:100000000C9472000C9493000C9493000C94930045
:100010000C9493000C9493000C9493000C94930014
:100020000C9493000C9493000C9493000C94930004
:100030000C9493000C9493000C9493000C949300F4
:100040000C9493000C9493000C9493000C949300E4
:100050000C9493000C9493000C9493000C949300D4
:100060000C9493000C9493000C9493000C949300C4
:100070000C9493000C9493000C9493000C949300B4
:100080000C9493000C9493000C9493000C949300A4
:100090000C9493000C9493000C9493000C94930094
:1000A0000C9493000C9493000C9493000C94930084
:1000B0000C9493000C9493000C9493000C94930074
:1000C0000C9493000C9493000C9493000C94930064
:1000D0000C9493000C9493000C9493000C94930054
:1000E0000C94930011241FBECFEFD1E2DEBFCDBF31
:1000F00000E00CBF12E0A0E0B2E0E4E7F9E000E0CD
:100100000BBF02C007900D92A231B107D9F712E0E0
:10011000A2E1B2E001C01D92AE31B107E1F70E9449
:10012000C2000C94B8040C940000CF93DF938AE0D3
:1001300090E00E94DE00EC01909313028093120283
:1001400086E090E00E94DE00998388838AE090E058
:100150000E94DE009F838E838AE090E00E94DE0092
:100160009987888740E050E064EB72EC4A835B83B8
:100170006C837D83DF91CF910895809112029091DD
:10018000130208950E9495000E94BD00FC01858124
:100190008F9384818F9383818F9382818F9386E065
:1001A00092E09F938F930E9405020F900F900F9003
:1001B0000F900F900F9080E090E00895CF93DF9321
:1001C0008230910510F482E090E0E0911602F09107
:1001D000170220E030E0A0E0B0E0309739F1408134
:1001E000518148175907B8F04817590771F48281AF
:1001F0009381109729F013969C938E9312972CC09D
:10020000909317028093160227C02115310531F013
:100210004217530718F0A901DB0101C0EF019A0151
:10022000BD01DF010280F381E02DD7CF211531051B
:10023000F9F0281B390B2430310580F48A819B8129
:100240006115710521F0FB019383828304C09093B3
:10025000170280931602FE01329644C0FE01E20F9F
:10026000F31F8193919322503109398328833AC037
:100270002091140230911502232B41F420910202A7
:100280003091030230931502209314022091000252
:10029000309101022115310541F42DB73EB740914F
:1002A000040250910502241B350BE0911402F091D9
:1002B0001502E217F307A0F42E1B3F0B281739078E
:1002C00078F0AC014E5F5F4F2417350748F04E0FB2
:1002D0005F1F50931502409314028193919302C0C3
:1002E000E0E0F0E0CF01DF91CF910895CF93DF936D
:1002F000009709F487C0FC01329713821282C091E3
:100300001602D0911702209781F420813181280FA5
:10031000391F80911402909115028217930779F585
:10032000F0931502E09314026DC0DE0120E030E08E
:10033000AE17BF0750F412964D915C9113979D0133
:100340004115510509F1DA01F3CFB383A28340814E
:100350005181840F951F8A179B0771F48D919C9191
:100360001197840F951F02969183808312968D9129
:100370009C911397938382832115310529F4F0937F
:100380001702E09316023EC0D9011396FC93EE9338
:1003900012974D915D91A40FB51FEA17FB0779F4F1
:1003A00080819181840F951F0296D90111969C93AB
:1003B0008E938281938113969C938E931297E0E0A3
:1003C000F0E08A819B81009719F0FE01EC01F9CFE2
:1003D000CE01029628813981820F931F2091140249
:1003E000309115022817390769F4309729F41092D3
:1003F00017021092160202C013821282D0931502C5
:10040000C0931402DF91CF910895CF93DF93CDB7BE
:10041000DEB7FE01369661917191AF0180911A02AB
:1004200090911B020E941702DF91CF9108952F92A5
:100430003F924F925F926F927F928F929F92AF9274
:10044000BF92CF92DF92EF92FF920F931F93CF93C1
:10045000DF93CDB7DEB72C970FB6F894DEBF0FBE93
:10046000CDBF7C016B018A01FC011782168283815A
:1004700081FFBDC1CE0101964C01F7019381F601C8
:1004800093FD859193FF81916F01882309F4ABC19E
:10049000853239F493FD859193FF81916F01853207
:1004A00029F4B70190E00E942804E7CF512C312CA9
:1004B00020E02032A0F48B3269F030F4803259F021
:1004C000833269F420612CC08D3239F0803339F4E5
:1004D000216026C02260246023C0286021C027FD3F
:1004E00027C030ED380F3A3078F426FF06C0FAE026
:1004F0005F9E300D1124532E13C08AE0389E300DBC
:100500001124332E20620CC08E3221F426FD6BC1E3
:10051000206406C08C3611F4206802C0883641F48D
:10052000F60193FD859193FF81916F018111C1CFF8
:10053000982F9F7D9554933028F40C5F1F4FFFE355
:10054000F9830DC0833631F0833771F0833509F0BC
:100550005BC022C0F801808189830E5F1F4F442455
:100560004394512C540115C03801F2E06F0E711CF8
:10057000F801A080B18026FF03C0652D70E002C0A5
:100580006FEF7FEFC5012C870E941D042C018301B2
:100590002C852F77222E17C03801F2E06F0E711CC8
:1005A000F801A080B18026FF03C0652D70E002C075
:1005B0006FEF7FEFC5012C870E9412042C012C8560
:1005C0002068222E830123FC1BC0832D90E0481657
:1005D0005906B0F4B70180E290E00E9428043A94F2
:1005E000F4CFF50127FC859127FE81915F01B701CA
:1005F00090E00E94280431103A94F1E04F1A51081B
:100600004114510471F7E5C0843611F0893639F58B
:10061000F80127FF07C060817181828193810C5F9F
:100620001F4F08C060817181882777FD8095982FC2
:100630000E5F1F4F2F76B22E97FF09C090958095C1
:10064000709561957F4F8F4F9F4F2068B22E2AE0A3
:1006500030E0A4010E945A04A82EA81844C085378F
:1006600029F42F7EB22E2AE030E025C0F22FF97F48
:10067000BF2E8F36C1F018F4883579F0B4C08037BA
:1006800019F0883721F0AFC02F2F2061B22EB4FEB1
:100690000DC08B2D8460B82E09C024FF0AC09F2F87
:1006A0009660B92E06C028E030E005C020E130E0B9
:1006B00002C020E132E0F801B7FE07C0608171811D
:1006C000828193810C5F1F4F06C06081718180E041
:1006D00090E00E5F1F4FA4010E945A04A82EA81894
:1006E000FB2DFF77BF2EB6FE0BC02B2D2E7FA51442
:1006F00050F4B4FE0AC0B2FC08C02B2D2E7E05C0FB
:100700007A2C2B2D03C07A2C01C0752C24FF0DC030
:10071000FE01EA0DF11D8081803311F4297E09C0AC
:1007200022FF06C07394739404C0822F867809F068
:10073000739423FD13C020FF06C05A2C731418F4C1
:10074000530C5718732C731468F4B70180E290E0CF
:100750002C870E94280473942C85F5CF731410F411
:10076000371801C0312C24FF12C0B70180E390E09C
:100770002C870E9428042C8522FF17C021FF03C06C
:1007800088E590E002C088E790E0B7010CC0822FB6
:10079000867859F021FD02C080E201C08BE227FD7E
:1007A0008DE2B70190E00E942804A51438F4B70147
:1007B00080E390E00E9428045A94F7CFAA94F401B1
:1007C000EA0DF11D8081B70190E00E942804A1107C
:1007D000F5CF332009F451CEB70180E290E00E94BA
:1007E00028043A94F6CFF7018681978102C08FEFF3
:1007F0009FEF2C960FB6F894DEBF0FBECDBFDF91F2
:10080000CF911F910F91FF90EF90DF90CF90BF900D
:10081000AF909F908F907F906F905F904F903F90A0
:100820002F900895FC010590615070400110D8F799
:10083000809590958E0F9F1F0895FC016150704028
:1008400001900110D8F7809590958E0F9F1F089505
:100850000F931F93CF93DF93182F092FEB018B81F9
:1008600081FD03C08FEF9FEF20C082FF10C04E813B
:100870005F812C813D81421753077CF4E881F98127
:100880009F012F5F3F4F39832883108306C0E8857F
:10089000F985812F1995892B29F72E813F812F5FAB
:1008A0003F4F3F832E83812F902FDF91CF911F9158
:1008B0000F910895FA01AA27283051F1203181F1D2
:1008C000E8946F936E7F6E5F7F4F8F4F9F4FAF4F58
:1008D000B1E03ED0B4E03CD0670F781F891F9A1F6B
:1008E000A11D680F791F8A1F911DA11D6A0F711D1F
:1008F000811D911DA11D20D009F468943F912AE02B
:10090000269F11243019305D3193DEF6CF01089512
:10091000462F4770405D4193B3E00FD0C9F7F6CF43
:10092000462F4F70405D4A3318F0495D31FD40520B
:10093000419302D0A9F7EACFB4E0A69597958795A1
:1009400077956795BA95C9F7009761057105089580
:100950009B01AC010A2E069457954795379527952C
:10096000BA95C9F7620F731F841F951FA01D0895C4
:04097000F894FFCF29
:1009740000001E02200053656E736F723A202566D4
:020984000A0067
:00000001FF
