:100000000C94B3000C94D4000C94D4000C94D40041
:100010000C94D4000C94D4000C94D4000C94D40010
:100020000C94D4000C94D4000C94D4000C94D40000
:100030000C94D4000C94D4000C94D4000C94D400F0
:100040000C94D4000C94D4000C94D4000C94D400E0
:100050000C94D4000C94D4000C94D4000C94D400D0
:100060000C94D4000C94D4000C94D4000C94D400C0
:100070000C94D4000C94D4000C94D4000C94D400B0
:100080000C94D4000C94D4000C94D4000C94D400A0
:100090000C94D4000C94D4000C94D4000C94D40090
:1000A0000C94D4000C94D4000C94D4000C94D40080
:1000B0000C94D4000C94D4000C94D4000C94D40070
:1000C0000C94D4000C94D4000C94D4000C94D40060
:1000D0000C94D4000C94D4000C94D4000C94D40050
:1000E0000C94D40007634236B79BD8A71A396856D8
:1000F00018AEBAAB558C1D3CB7CC5763BD6DEDFD4A
:10010000753EF6177231BF000000803F0800000006
:10011000BE922449123EABAAAA2ABECDCCCC4C3EFC
:1001200000000080BEABAAAAAA3E00000000BF00EB
:100130000000803F0000000000084178D3BB4387E7
:10014000D1133D190E3CC3BD4282AD2B3E68EC82FB
:1001500076BED98FE1A93E4C80EFFFBE01C4FF7F80
:100160003F000000000011241FBECFEFD1E2DEBF30
:10017000CDBF00E00CBF12E0A0E0B2E0E2E8F3E1A6
:1001800000E00BBF02C007900D92A830B107D9F76D
:1001900022E0A8E0B2E001C01D92A431B207E1F76D
:1001A0000E942A030C94BF090C94000010BA11BAE3
:1001B000109207011092080108950C94D600EAE706
:1001C000F0E0108210927B0080E280937C0080E857
:1001D00080BF86E880830895F8940E94D6000E942C
:1001E000DF0078940895883018F098E090937B00B1
:1001F0008770806280937C0080917A008064809315
:100200007A0080917A0084FFFCCF809179009091F0
:100210007A00906190937A0010927B000895682F85
:1002200070E080E090E00E9406042FEE39EC43E994
:100230005FE30E941B059B01AC0160E070E080E879
:100240009FE30E946D032AE939EF4EE255E40E94D4
:10025000B80420E030E040E251E40E94B8040E947B
:10026000D503CB01613223E0720710F080E293E006
:1002700008950F931F93CF93DF938C01EB01BC0183
:1002800060547140882777FD8095982F0E9408045C
:100290009F7720E030E040E851E40E94690387FD49
:1002A00039C0B80166507140882777FD8095982F36
:1002B0000E9408049F7720E030E040E551E40E946E
:1002C000690387FD2AC0B8016A5E7109882777FD36
:1002D0008095982F0E9408049F7720E030E040E549
:1002E00051E40E94690387FD1BC0B8016C5C710971
:1002F000882777FD8095982F0E9408049F7720E03B
:1003000030E040E551E40E94690387FF0BC0CCE078
:10031000D0E008C0C0E0D0E005C0C6E0D0E002C038
:10032000C9E0D0E0CE01DF91CF911F910F910895E8
:1003300087B1876F87B988B1807888B908950C94A0
:100340009801F8940E9498017894089586E69EE0BA
:100350000197F1F700004098419880E388B9429AEC
:100360008FEF97E40197F1F700C00000429886E60E
:100370009EE00197F1F700004098419880E388B92A
:10038000429A8FEF97E40197F1F700C0000042987E
:1003900086E69EE00197F1F700004098419880E3DF
:1003A00088B9429A8FEF97E40197F1F700C00000F7
:1003B000429886E69EE00197F1F700004098419848
:1003C00080E288B9429A86E69EE00197F1F7000044
:1003D0004298089598B19F7098B928B1982F907F4E
:1003E000922B98B940984198429AEFEFF7E43197F1
:1003F000F1F700C00000429898B19F7098B998B189
:100400008295807F892B88B940984198429A8FEFD6
:1004100097E40197F1F700C000004298089586E63E
:100420009EE00197F1F7000088E20E94EA0181E076
:100430000E94EA0186E00E94EA018EE00E94EA0141
:1004400080E80C94EA0198B19F7098B928B1982F70
:10045000907F922B98B9409A4198429AEFEFF7E437
:100460003197F1F700C0000042988295807F98B1E3
:100470009F7098B998B1892B88B9409A4198429A4F
:100480008FEF97E40197F1F700C0000042980895BC
:1004900080E80C94EA01EF92FF921F93CF93DF93D1
:1004A0001F92CDB7DEB7182F81E099830E94EA0131
:1004B000E12E9981F92EF70181917F01882319F0AE
:1004C0000E942302F8CF0F90DF91CF911F91FF90F0
:1004D000EF900895CF93DF93CDB7DEB760970FB657
:1004E000F894DEBF0FBECDBFFE01769641915191CB
:1004F0009F0160E170E0CE0101960E94E506CE0109
:1005000001960E944B0260960FB6F894DEBF0FBEB4
:10051000CDBFDF91CF910895982F862F923059F05B
:100520001CF4913031F00895933039F0943039F063
:100530000895815805C0815403C08D5601C08D5265
:100540000C94EA010F931F93CF93DF938A01E90183
:10055000882311F0611103C00E94480202C00E946A
:100560008C02C530D10579F4C80160E177E20E94C0
:100570005503605D7F4F7093090260930802862FD8
:100580000E94230203C0C430D10559F5C80168EEAA
:1005900073E00E945503CB0170930B0260930A0233
:1005A0006AE070E00E945503C09690931302809316
:1005B00012020E942302C80164E670E00E94550303
:1005C000CB0170930B0260930A026AE070E00E9414
:1005D0005503C09690930F0280930E020E9423024F
:1005E00006C0C330D10539F3C230D10551F52AE038
:1005F00030E0C801B9010E945503CB0170930B0292
:1006000060930A02B9010E945503C09690930D02AF
:1006100080930C020E942302C8016AE070E00E94ED
:100620005503C09690931102809310020E942302FA
:1006300026975CF085E4DF91CF911F910F910C9488
:100640002302C130D105A1F7E7CFDF91CF911F91F0
:100650000F9108950E94A1010E94A6010E940F021D
:100660000E94EC0000E010E0C0E0D2E08BE00E94CD
:10067000F3000E940F01F82EE92EB8010E94390103
:100680008C01EF92FF92DF93CF930E946A029FEF5B
:100690002FEF8CE2915020408040E1F700C0000035
:1006A0000F900F900F900F90E1CFAA1BBB1B51E151
:1006B00007C0AA1FBB1FA617B70710F0A61BB70BD2
:1006C000881F991F5A95A9F780959095BC01CD0177
:1006D0000895D9D008F481E008950CD00FC107D156
:1006E00040F0FED030F021F45F3F19F0F0C051111E
:1006F00039C1F3C014D198F39923C9F35523B1F349
:10070000951B550BBB27AA2762177307840738F080
:100710009F5F5F4F220F331F441FAA1FA9F333D0DF
:100720000E2E3AF0E0E830D091505040E695001C93
:10073000CAF729D0FE2F27D0660F771F881FBB1F4F
:10074000261737074807AB07B0E809F0BB0B802D29
:10075000BF01FF2793585F4F2AF09E3F510568F075
:10076000B6C000C15F3FECF3983EDCF38695779509
:100770006795B795F7959F5FC9F7880F911D969577
:10078000879597F90895E1E0660F771F881FBB1FD3
:10079000621773078407BA0720F0621B730B840B80
:1007A000BA0BEE1F88F7E095089504D06894B11154
:1007B000D9C00895BCD088F09F5790F0B92F9927E1
:1007C000B751A0F0D1F0660F771F881F991F1AF05C
:1007D000BA95C9F712C0B13081F0C3D0B1E0089525
:1007E000C0C0672F782F8827B85F39F0B93FCCF3A6
:1007F000869577956795B395D9F73EF49095809552
:10080000709561957F4F8F4F9F4F0895E89409C071
:1008100097FB3EF490958095709561957F4F8F4F33
:100820009F4F9923A9F0F92F96E9BB279395F69549
:10083000879577956795B795F111F8CFFAF4BB0FC7
:1008400011F460FF1BC06F5F7F4F8F4F9F4F16C02B
:10085000882311F096E911C0772321F09EE8872FB5
:10086000762F05C0662371F096E8862F70E060E071
:100870002AF09A95660F771F881FDAF7880F9695EA
:10088000879597F90895990F0008550FAA0BE0E88E
:10089000FEEF16161706E807F907C0F01216130642
:1008A000E407F50798F0621B730B840B950B39F482
:1008B0000A2661F0232B242B252B21F408950A26E8
:1008C00009F4A140A6958FEF811D811D089597F928
:1008D0009F6780E870E060E008959FEF80EC0895E6
:1008E00000240A941616170618060906089500240F
:1008F0000A9412161306140605060895092E039489
:10090000000C11F4882352F0BB0F40F4BF2B11F4FC
:1009100060FF04C06F5F7F4F8F4F9F4F089557FD5B
:100920009058440F551F59F05F3F71F04795880F5D
:1009300097FB991F61F09F3F79F0879508951216F4
:1009400013061406551FF2CF4695F1DF08C01616A0
:1009500017061806991FF1CF869571056105089451
:100960000895E894BB2766277727CB0197F9089568
:100970000BD0C4CFB5DF28F0BADF18F0952309F00B
:10098000A6CFABCF1124EECFCADFA0F3959FD1F352
:10099000950F50E0551F629FF001729FBB27F00D2D
:1009A000B11D639FAA27F00DB11DAA1F649F662782
:1009B000B00DA11D661F829F2227B00DA11D621FD1
:1009C000739FB00DA11D621F839FA00D611D221F8B
:1009D000749F3327A00D611D231F849F600D211D6F
:1009E000822F762F6A2F11249F5750408AF0E1F012
:1009F00088234AF0EE0FFF1FBB1F661F771F881F5B
:100A000091505040A9F79E3F510570F060CFAACF9A
:100A10005F3FECF3983EDCF3869577956795B79545
:100A2000F795E7959F5FC1F7FE2B880F911D96956F
:100A3000879597F90895FA01EE0FFF1F309621056B
:100A4000310599F16115710561F48038BFE39B07A9
:100A500049F168949038810561F08038BFEF9B07B9
:100A600041F0992342F5FF3FE1053105210511F1E0
:100A7000E8940894E795D901AA2329F4AB2FBE2F57
:100A8000F85FD0F310C0FF5F70F4A695E0F7F73978
:100A900050F019F0FF3A38F49F779F930CD00F90E5
:100AA00007FC905808953EF018CF60E070E080E8B1
:100AB0009FE308954FE79F775F934F933F932F9363
:100AC0009ED02F913F914F915F9152DF05C019F455
:100AD0000EF0FDCE46CF01CF2ADFC8F39638C0F71F
:100AE00007F80F92E8942BE33AEA48EB5FE74EDF12
:100AF0000F920F920F924DB75EB70F92C0D0E4EEF7
:100B0000F0E016D04F915F91EF91FF91E595EE1FC8
:100B1000FF1F49F0FE57E0684427EE0F441FFA9587
:100B2000E1F74195550B32D00F9007FE26C008958E
:100B3000DF93CF931F930F93FF92EF92DF927B018E
:100B40008C01689405C0DA2EEF011EDFFE01E894E7
:100B5000A5912591359145915591AEF3EF01D4D0F2
:100B6000FE019701A801DA9479F7DF90EF90FF90EA
:100B70000F911F91CF91DF9108959B01AC0160E02F
:100B800070E080E89FE3A9CDA2CE11C1D0DEE8F3EA
:100B90009923D9F3940F511DBBF39150504094F019
:100BA00059F0882332F0660F771F881F915050400C
:100BB000C1F79E3F510544F7880F911D9695879583
:100BC00097F908955F3FACF0983E9CF0BB2786955F
:100BD00077956795B79508F4B1609395C1F7BB0F0A
:100BE00058F711F460FFE8CF6F5F7F4F8F4F9F4F33
:100BF000E3CFB8CE0EF0DBC070CE689468CE97DE3F
:100C0000C8F39923D1F3C6F3DF93CF931F930F93C8
:100C1000FF92C92FDD2788232AF02197660F771FBF
:100C2000881FDAF720E030E040E85FEB9FE3883987
:100C300020F0803E30F021968F7755D0ECE0F1E047
:100C400003C051D0E9E3F1E073DF8B01BE01EC0199
:100C5000FB2E6F5771097595771F880B990BD8DD9F
:100C600028E132E741E35FE38FDEAF2D9801AE016B
:100C7000FF900F911F91CF91DF9146D03FCEFA01A7
:100C8000DC01AA0FBB1F9B01AC01BF5728F4222730
:100C90003327442750781FC0B75188F4AB2F002466
:100CA000469537952795011CA395D2F3002069F04E
:100CB000220F331F441FB395DAF30DD013C06130F8
:100CC0007105A0E88A07B94630F49B01AC0166279C
:100CD000772788279078309621F0208331834283CC
:100CE000538308955058BB27AA270ED007CEF8DDAE
:100CF00030F0FDDD20F031F49F3F11F41EF4EDCD16
:100D00000EF4E095E7FBE3CDE92F09DE80F3BA1797
:100D1000620773078407950718F071F49EF521CEDA
:100D20000EF4E0950B2EBA2FA02D0B01B901900106
:100D30000C01CA01A0011124FF27591B99F0593F4A
:100D400050F4503E68F11A16F040A22F232F342F92
:100D50004427585FF3CF469537952795A795F040E0
:100D60005395C9F77EF41F16BA0B620B730B840BF5
:100D7000BAF09150A1F0FF0FBB1F661F771F881FAD
:100D8000C2F70EC0BA0F621F731F841F48F4879505
:100D900077956795B795F7959E3F08F0B3CF9395F4
:100DA000880F08F09927EE0F9795879508959F3F34
:100DB00031F0915020F4879577956795B795880F16
:100DC000911D9695879597F908950F931F93CF934B
:100DD000DF93CDB7DEB72E970FB6F894DEBF0FBE08
:100DE000CDBF8C01CA0146E04C831A83098377FF8B
:100DF00002C060E070E8615071097E836D83A901D3
:100E0000BC01CE0101960E941E074D815E8157FDF7
:100E10000AC02F813885421753070CF49A01F80154
:100E2000E20FF31F10822E960FB6F894DEBF0FBEAE
:100E3000CDBFDF91CF911F910F9108952F923F92D7
:100E40004F925F926F927F928F929F92AF92BF92DA
:100E5000CF92DF92EF92FF920F931F93CF93DF9386
:100E6000CDB7DEB72C970FB6F894DEBF0FBECDBF5F
:100E70007C016B018A01FC0117821682838181FF4C
:100E8000BDC1CE0101964C01F7019381F60193FD9E
:100E9000859193FF81916F01882309F4ABC185325D
:100EA00039F493FD859193FF81916F01853229F487
:100EB000B70190E00E942F09E7CF512C312C20E0A0
:100EC0002032A0F48B3269F030F4803259F0833252
:100ED00069F420612CC08D3239F0803339F42160FF
:100EE00026C02260246023C0286021C027FD27C0BF
:100EF00030ED380F3A3078F426FF06C0FAE05F9EF6
:100F0000300D1124532E13C08AE0389E300D112469
:100F1000332E20620CC08E3221F426FD6BC120647A
:100F200006C08C3611F4206802C0883641F4F60100
:100F300093FD859193FF81916F018111C1CF982F0E
:100F40009F7D9554933028F40C5F1F4FFFE3F98386
:100F50000DC0833631F0833771F0833509F05BC003
:100F600022C0F801808189830E5F1F4F442443947F
:100F7000512C540115C03801F2E06F0E711CF801BC
:100F8000A080B18026FF03C0652D70E002C06FEF26
:100F90007FEFC5012C870E9424092C0183012C8539
:100FA0002F77222E17C03801F2E06F0E711CF80166
:100FB000A080B18026FF03C0652D70E002C06FEFF6
:100FC0007FEFC5012C870E9419092C012C85206810
:100FD000222E830123FC1BC0832D90E04816590666
:100FE000B0F4B70180E290E00E942F093A94F4CF68
:100FF000F50127FC859127FE81915F01B70190E003
:101000000E942F0931103A94F1E04F1A510841140F
:10101000510471F7E5C0843611F0893639F5F801CD
:1010200027FF07C060817181828193810C5F1F4F10
:1010300008C060817181882777FD8095982F0E5FA9
:101040001F4F2F76B22E97FF09C09095809570950F
:1010500061957F4F8F4F9F4F2068B22E2AE030E07E
:10106000A4010E946109A82EA81844C0853729F45C
:101070002F7EB22E2AE030E025C0F22FF97FBF2E5E
:101080008F36C1F018F4883579F0B4C0803719F084
:10109000883721F0AFC02F2F2061B22EB4FE0DC0D3
:1010A0008B2D8460B82E09C024FF0AC09F2F966044
:1010B000B92E06C028E030E005C020E130E002C0D3
:1010C00020E132E0F801B7FE07C0608171818281C2
:1010D00093810C5F1F4F06C06081718180E090E0BA
:1010E0000E5F1F4FA4010E946109A82EA818FB2DB6
:1010F000FF77BF2EB6FE0BC02B2D2E7FA51450F40C
:10110000B4FE0AC0B2FC08C02B2D2E7E05C07A2C7E
:101110002B2D03C07A2C01C0752C24FF0DC0FE01BD
:10112000EA0DF11D8081803311F4297E09C022FF70
:1011300006C07394739404C0822F867809F0739468
:1011400023FD13C020FF06C05A2C731418F4530C4F
:101150005718732C731468F4B70180E290E02C8761
:101160000E942F0973942C85F5CF731410F437184F
:1011700001C0312C24FF12C0B70180E390E02C871E
:101180000E942F092C8522FF17C021FF03C088E58C
:1011900090E002C088E790E0B7010CC0822F86780B
:1011A00059F021FD02C080E201C08BE227FD8DE2F3
:1011B000B70190E00E942F09A51438F4B70180E32D
:1011C00090E00E942F095A94F7CFAA94F401EA0DF7
:1011D000F11D8081B70190E00E942F09A110F5CF89
:1011E000332009F451CEB70180E290E00E942F092C
:1011F0003A94F6CFF7018681978102C08FEF9FEF77
:101200002C960FB6F894DEBF0FBECDBFDF91CF9105
:101210001F910F91FF90EF90DF90CF90BF90AF9014
:101220009F908F907F906F905F904F903F902F9006
:101230000895FC010590615070400110D8F7809529
:1012400090958E0F9F1F0895FC0161507040019092
:101250000110D8F7809590958E0F9F1F08950F93DA
:101260001F93CF93DF93182F092FEB018B8181FD03
:1012700003C08FEF9FEF20C082FF10C04E815F81BF
:101280002C813D81421753077CF4E881F9819F014D
:101290002F5F3F4F39832883108306C0E885F98587
:1012A000812F1995892B29F72E813F812F5F3F4F81
:1012B0003F832E83812F902FDF91CF911F910F912C
:1012C0000895FA01AA27283051F1203181F1E894DC
:1012D0006F936E7F6E5F7F4F8F4F9F4FAF4FB1E029
:1012E0003ED0B4E03CD0670F781F891F9A1FA11D24
:1012F000680F791F8A1F911DA11D6A0F711D811D25
:10130000911DA11D20D009F468943F912AE0269FE9
:1013100011243019305D3193DEF6CF010895462F48
:101320004770405D4193B3E00FD0C9F7F6CF462F29
:101330004F70405D4A3318F0495D31FD4052419392
:1013400002D0A9F7EACFB4E0A6959795879577954F
:101350006795BA95C9F700976105710508959B01D6
:10136000AC010A2E06945795479537952795BA955F
:10137000C9F7620F731F841F951FA01D0895F8946D
:02138000FFCF9D
:0813820056616C3A202564005D
:00000001FF
