:100000000C9472000C9493000C9493000C94930045
:100010000C9493000C9493000C9493000C94930014
:100020000C9493000C9493000C9493000C94930004
:100030000C9493000C9493000C9493000C949300F4
:100040000C9493000C9493000C9493000C949300E4
:100050000C9493000C9493000C9493000C949300D4
:100060000C9493000C9493000C9493000C949300C4
:100070000C9493000C9493000C9493000C949300B4
:100080000C9493000C9493000C9493000C949300A4
:100090000C9493000C9493000C9493000C94930094
:1000A0000C9493000C9493000C9493000C94930084
:1000B0000C9493000C9493000C9493000C94930074
:1000C0000C9493000C9493000C9493000C94930064
:1000D0000C9493000C9493000C9493000C94930054
:1000E0000C94930011241FBECFEFD1E2DEBFCDBF31
:1000F00000E00CBF12E0A0E0B2E0E0ECFAE000E0CB
:100100000BBF02C007900D92AC31B107D9F712E0D6
:10011000ACE1B2E001C01D92A832B107E1F70E9444
:1001200034020C945E050C94000087B1876F87B988
:1001300088B1807888B908950C949500F8940E944D
:1001400095007894089586E69EE00197F1F7000007
:100150004098419880E388B9429A8FEF97E40197DD
:10016000F1F700C00000429886E69EE00197F1F7A3
:1001700000004098419880E388B9429A8FEF97E455
:100180000197F1F700C00000429886E69EE00197D3
:10019000F1F700004098419880E388B9429A8FEFC8
:1001A00097E40197F1F700C00000429886E69EE0D0
:1001B0000197F1F700004098419880E288B9429A8F
:1001C00086E69EE00197F1F700004298089598B105
:1001D0009F7098B928B1982F907F922B98B940982A
:1001E0004198429AEFEFF7E43197F1F700C0000031
:1001F000429898B19F7098B998B18295807F892B69
:1002000088B940984198429A8FEF97E40197F1F7A7
:1002100000C00000429808950E949E000E94A30022
:1002200086E69EE00197F1F7000088E20E94E70071
:1002300081E00E94E70086E00E94E7008EE00E94D5
:10024000E70080E80C94E70098B19F7098B928B156
:10025000982F907F922B98B9409A4198429AEFEF4D
:10026000F7E43197F1F700C0000042988295807F53
:1002700098B19F7098B998B1892B88B9409A4198E4
:10028000429A8FEF97E40197F1F700C0000042987F
:10029000089580E80C94E700EF92FF921F93CF93AC
:1002A000DF931F92CDB7DEB7182F81E099830E94AC
:1002B000E700E12E9981F92EF70181917F018823D2
:1002C00019F00E942401F8CF0F90DF91CF911F9178
:1002D000FF90EF900895CF93DF93CDB7DEB760978F
:1002E0000FB6F894DEBF0FBECDBFFE0176964191EA
:1002F00051919F0160E170E0CE0101960E9484025D
:10030000CE0101960E944C012FEF8FE796E121501C
:1003100080409040E1F700C0000060960FB6F8946E
:10032000DEBF0FBECDBFDF91CF910895982F862FEE
:10033000923059F01CF4913031F00895933039F037
:10034000943039F00895815805C0815403C08D560A
:1003500001C08D520C94E7000F931F93CF93DF934E
:100360008A01E901882311F0611103C00E9449014B
:1003700002C00E949601C530D10579F4C80160E140
:1003800077E20E947002605D7F4F70931D02609360
:100390001C02862F0E94240103C0C430D10559F5E8
:1003A000C80168EE73E00E947002CB0170931F02D7
:1003B00060931E026AE070E00E947002C096909303
:1003C0002702809326020E942401C80164E670E09F
:1003D0000E947002CB0170931F0260931E026AE0BC
:1003E00070E00E947002C0969093230280932202D4
:1003F0000E94240106C0C330D10539F3C230D105B3
:1004000051F52AE030E0C801B9010E947002CB0129
:1004100070931F0260931E02B9010E947002C09681
:1004200090932102809320020E942401C8016AE077
:1004300070E00E947002C09690932502809324027F
:100440000E94240126975CF085E4DF91CF911F91F3
:100450000F910C942401C130D105A1F7E7CFDF91B2
:10046000CF911F910F9108950E940C012FEF8FEFF4
:100470009CE2215080409040E1F700C000008AE2F9
:10048000D82E90E0E92E92E0F92E00E112E0C9E1C9
:10049000D2E01F92DF92FF92EF920E946B012FEF4A
:1004A0008FEF9CE2215080409040E1F700C00000B7
:1004B0001F930F93DF93CF930E946B019FEF2FEF5A
:1004C0008CE2915020408040E1F700C000008DB7E1
:1004D0009EB708960FB6F8949EBF0FBE8DBFD9CFBA
:1004E000AA1BBB1B51E107C0AA1FBB1FA617B7075A
:1004F00010F0A61BB70B881F991F5A95A9F7809576
:100500009095BC01CD0108950F931F93CF93DF9376
:10051000CDB7DEB72E970FB6F894DEBF0FBECDBFB6
:100520008C01CA0146E04C831A83098377FF02C01D
:1005300060E070E8615071097E836D83A901BC01A0
:10054000CE0101960E94BD024D815E8157FD0AC019
:100550002F813885421753070CF49A01F801E20FF6
:10056000F31F10822E960FB6F894DEBF0FBECDBFDC
:10057000DF91CF911F910F9108952F923F924F924B
:100580005F926F927F928F929F92AF92BF92CF9223
:10059000DF92EF92FF920F931F93CF93DF93CDB72C
:1005A000DEB72C970FB6F894DEBF0FBECDBF7C012F
:1005B0006B018A01FC0117821682838181FFBDC114
:1005C000CE0101964C01F7019381F60193FD8591CF
:1005D00093FF81916F01882309F4ABC1853239F40F
:1005E00093FD859193FF81916F01853229F4B701C5
:1005F00090E00E94CE04E7CF512C312C20E0203235
:10060000A0F48B3269F030F4803259F0833269F40F
:1006100020612CC08D3239F0803339F4216026C03E
:100620002260246023C0286021C027FD27C030ED50
:10063000380F3A3078F426FF06C0FAE05F9E300D9E
:100640001124532E13C08AE0389E300D1124332E0E
:1006500020620CC08E3221F426FD6BC1206406C0DE
:100660008C3611F4206802C0883641F4F60193FDFF
:10067000859193FF81916F018111C1CF982F9F7D4B
:100680009554933028F40C5F1F4FFFE3F9830DC09E
:10069000833631F0833771F0833509F05BC022C0B7
:1006A000F801808189830E5F1F4F44244394512CAD
:1006B000540115C03801F2E06F0E711CF801A080E2
:1006C000B18026FF03C0652D70E002C06FEF7FEFA1
:1006D000C5012C870E94C3042C0183012C852F7730
:1006E000222E17C03801F2E06F0E711CF801A080B5
:1006F000B18026FF03C0652D70E002C06FEF7FEF71
:10070000C5012C870E94B8042C012C852068222E5C
:10071000830123FC1BC0832D90E048165906B0F4DA
:10072000B70180E290E00E94CE043A94F4CFF50144
:1007300027FC859127FE81915F01B70190E00E941F
:10074000CE0431103A94F1E04F1A5108411451048B
:1007500071F7E5C0843611F0893639F5F80127FFC5
:1007600007C060817181828193810C5F1F4F08C037
:1007700060817181882777FD8095982F0E5F1F4FCC
:100780002F76B22E97FF09C0909580957095619550
:100790007F4F8F4F9F4F2068B22E2AE030E0A40198
:1007A0000E940005A82EA81844C0853729F42F7E82
:1007B000B22E2AE030E025C0F22FF97FBF2E8F360F
:1007C000C1F018F4883579F0B4C0803719F0883753
:1007D00021F0AFC02F2F2061B22EB4FE0DC08B2DA3
:1007E0008460B82E09C024FF0AC09F2F9660B92EDE
:1007F00006C028E030E005C020E130E002C020E182
:1008000032E0F801B7FE07C0608171818281938177
:100810000C5F1F4F06C06081718180E090E00E5F29
:100820001F4FA4010E940005A82EA818FB2DFF77DA
:10083000BF2EB6FE0BC02B2D2E7FA51450F4B4FE98
:100840000AC0B2FC08C02B2D2E7E05C07A2C2B2DA1
:1008500003C07A2C01C0752C24FF0DC0FE01EA0DE7
:10086000F11D8081803311F4297E09C022FF06C06A
:100870007394739404C0822F867809F0739423FDD7
:1008800013C020FF06C05A2C731418F4530C5718C9
:10089000732C731468F4B70180E290E02C870E94F7
:1008A000CE0473942C85F5CF731410F4371801C05F
:1008B000312C24FF12C0B70180E390E02C870E9406
:1008C000CE042C8522FF17C021FF03C088E590E0ED
:1008D00002C088E790E0B7010CC0822F867859F0FB
:1008E00021FD02C080E201C08BE227FD8DE2B7014D
:1008F00090E00E94CE04A51438F4B70180E390E0A4
:100900000E94CE045A94F7CFAA94F401EA0DF11D87
:100910008081B70190E00E94CE04A110F5CF332072
:1009200009F451CEB70180E290E00E94CE043A94DF
:10093000F6CFF7018681978102C08FEF9FEF2C964B
:100940000FB6F894DEBF0FBECDBFDF91CF911F91E0
:100950000F91FF90EF90DF90CF90BF90AF909F905E
:100960008F907F906F905F904F903F902F90089561
:10097000FC010590615070400110D8F7809590956A
:100980008E0F9F1F0895FC0161507040019001106F
:10099000D8F7809590958E0F9F1F08950F931F9302
:1009A000CF93DF93182F092FEB018B8181FD03C0BB
:1009B0008FEF9FEF20C082FF10C04E815F812C819E
:1009C0003D81421753077CF4E881F9819F012F5F35
:1009D0003F4F39832883108306C0E885F985812F2E
:1009E0001995892B29F72E813F812F5F3F4F3F8338
:1009F0002E83812F902FDF91CF911F910F9108951A
:100A0000FA01AA27283051F1203181F1E8946F933F
:100A10006E7F6E5F7F4F8F4F9F4FAF4FB1E03ED0E5
:100A2000B4E03CD0670F781F891F9A1FA11D680F83
:100A3000791F8A1F911DA11D6A0F711D811D911DB6
:100A4000A11D20D009F468943F912AE0269F11242B
:100A50003019305D3193DEF6CF010895462F47708F
:100A6000405D4193B3E00FD0C9F7F6CF462F4F70EA
:100A7000405D4A3318F0495D31FD4052419302D048
:100A8000A9F7EACFB4E0A6959795879577956795EE
:100A9000BA95C9F700976105710508959B01AC01EE
:100AA0000A2E06945795479537952795BA95C9F715
:100AB000620F731F841F951FA01D0895F894FFCF28
:100AC00044414E474552205A4F4E4521202564004F
:0C0AD00048414C203930303000257300C4
:00000001FF
