:100000000C9491000C94B2000C94B2000C94B200C9
:100010000C94B2000C947C120C9457120C94B20005
:100020000C94B2000C94B2000C94B2000C94B20088
:100030000C94B2000C94B2000C94B2000C94B20078
:100040000C94B2000C94B2000C94B2000C94B20068
:100050000C94B2000C94B2000C94B2000C94B20058
:100060000C94B2000C94B2000C94B2000C94B20048
:100070000C94B2000C94B2000C94B2000C94B20038
:100080000C94B2000C94B2000C94B2000C94B20028
:100090000C94B2000C94B2000C94B2000C94B20018
:1000A0000C94B2000C94B2000C94B2000C94B20008
:1000B0000C94B2000C94B2000C94B2000C94B200F8
:1000C0000C94B2000C94B2000C94B2000C94B200E8
:1000D0000C94B2000C94B2000C94B2000C94B200D8
:1000E0000C94B200084AD73B3BCE016E84BCBFFDE6
:1000F000C12F3D6C74319ABD56833DDA3D00C77FF8
:1001000011BED9E4BB4C3E916BAAAABE0000008090
:100110003F000C94890F0C94D50C0C944F030C9455
:10012000ED0C11241FBECFEFD1E2DEBFCDBF00E04A
:100130000CBF13E0A0E0B2E0EAE1FBE300E00BBF9C
:1001400002C007900D92AE39B107D9F723E0AEE9AE
:10015000B3E001C01D92AB3DB207E1F70E94A715C5
:100160000C948B1D0C9400004F925F926F927F92C3
:100170008F929F92AF92BF92CF92DF92EF92FF92B7
:100180000F931F93CF93DF9300D01F92CDB7DEB7AD
:100190008C017B010E94DC0BFC01C080D180F60148
:1001A0002281338144815581F80162817381848188
:1001B00095810E94E3152B013C01F60126813781D0
:1001C00040855185F80166817781808591850E94FF
:1001D000E3154B015C01A3019201C301B2010E942E
:1001E00085182B013C01A5019401C501B4010E94B1
:1001F00085189B01AC01C301B2010E94E4150E9465
:10020000EC184B015C01B701C8010E944A0C6B015C
:100210007C012B013C01E89477F820E030E040EFCE
:1002200050E4C501B4010E94E315A30192010E94AC
:1002300085180E941B1770E080E090E00E9449172B
:1002400069837A838B839C8320E030E040EF50E425
:10025000C501B4010E94E415A30192010E94851812
:100260000E941B178FEF0E943419682F70E080E006
:1002700090E00E9449179B01AC0169817A818B81D2
:100280009C810E9485180E941B17162F20E030E0E9
:10029000A901C701B6010E947A1818161CF4812F13
:1002A0001FEF01C08FEF4EEF51E0612F0F900F90C5
:1002B0000F900F90DF91CF911F910F91FF90EF90D2
:1002C000DF90CF90BF90AF909F908F907F906F9076
:1002D0005F904F900C949B0E2F923F924F925F92A3
:1002E0006F927F928F929F92AF92BF92CF92DF9246
:1002F000EF92FF920F931F93CF93DF93CDB7DEB7AB
:100300002D970FB6F894DEBF0FBECDBF9D838C83B3
:100310000E9408121C010E94DC0B4C010E94E10BA0
:100320008C01D101ED91FC91228133814481558171
:10033000288739874A875B870E94370B288539854C
:100340004A855B856C817D810E94E70F9A83898352
:1003500082E192E00E94760B9F838E83D101ED9122
:10036000FC9100811181E981FA81A280B380F2E0E1
:10037000AF1AB108AA0CBB1CD101ED90FC90EC8126
:10038000FD810E171F0709F46BC1A981BA81ED9198
:10039000FC91EA0DFB1D808191819D878C87DC019A
:1003A000ED91FC91B1E0BB838081833609F01B8223
:1003B000EC85FD8563897489858996890E94161765
:1003C0007F936F93D70112966D917D918D919C9142
:1003D00015970E9416177F936F93A5E1B2E0BF9324
:1003E000AF930E94D414FFEF2FEF8CE2F150204026
:1003F0008040E1F700C00000D101ED91FC91228125
:10040000338144815581EC85FD85638974898589B3
:1004100096890E94E3150E941617CB010E94EE0BED
:100420006B810E94B50EA801D40114966C911497AB
:1004300012968D919C9113970E94AB0B0F900F9089
:100440000F900F900F900F908F3FC1F04C855D85FE
:10045000F4016481828193810E94AB0B8F3F71F024
:10046000A1E2B2E0BF93AF930E94D4146C857D8566
:10047000C8010E94B4000F900F90D3C0AC85BD8519
:1004800012962D913D914D915C911597F8016281E5
:100490007381848195810E94E3152B013C01AC8519
:1004A000BD8516962D913D914D915C911997F8015E
:1004B00066817781808591850E94E3156B017C01BF
:1004C0004C855D85D40114966C91149712968D918C
:1004D0009C9113970E94AB0B8F3F21F1A3019201D6
:1004E000C301B2010E9485182B013C01A7019601AE
:1004F000C701B6010E9485189B01AC01C301B2017E
:100500000E94E4150E94EC1820E030E040E251E443
:100510000E9485180E941617AB014451510966EEDE
:1005200086EE7DC0BB81BB2309F458C0EE81FF81FC
:100530002281338144815581AC85BD8512966D91B0
:100540007D918D919C9115970E94AA16A30192010D
:1005500087FF24C0C301B2010E9485182B013C0112
:10056000A7019601C701B6010E9485189B01AC0145
:10057000C301B2010E94E4150E94EC1820E030E0B3
:1005800040E251E40E9485180E941617AB014E51BB
:10059000510960EF80EF0E94170F43C0C301B20101
:1005A0000E9485182B013C01A7019601C701B601E5
:1005B0000E9485189B01AC01C301B2010E94E415A1
:1005C0000E94EC1820E030E040E251E40E948518DF
:1005D0000E941617AB014E5151091FC0A301920191
:1005E000C301B2010E9485182B013C01A7019601AD
:1005F000C701B6010E9485189B01AC01C301B2017D
:100600000E94E4150E94EC1820E030E040E251E442
:100610000E9485180E941617AB0160EF80EF0E94C0
:100620009B0EF10120813181EC85FD8583899489C0
:10063000A589B689F90182839383A483B583118345
:100640000083FFEF2FEF8CE2F15020408040E1F774
:1006500000C0000092E0A91AB1080C851D858CCE5F
:10066000D7010D931C9389819A812D960FB6F8942A
:10067000DEBF0FBECDBFDF91CF911F910F91FF90D5
:10068000EF90DF90CF90BF90AF909F908F907F9032
:100690006F905F904F903F902F900C948711CF9365
:1006A000DF93EC016091B7037091B8038881998161
:1006B0000E947B1A892B31F4D093B603C093B50303
:1006C00081E001C080E0DF91CF9108958F929F92E9
:1006D000AF92BF92CF92DF92EF92FF920F931F9350
:1006E000CF93DF9300D01F92CDB7DEB74B015C01F3
:1006F0008AE190E029833A834B835C830E945419FA
:100700006C01FC0182829382A482B58229813A81A4
:100710004B815C8126833783408751870287F18232
:10072000E0821386178A108A112707FD1095C801E9
:10073000880F991F0E945419F601918F808FB12C58
:100740008B2D90E08017910784F4880F991FF60194
:10075000E08CF18CE80EF91E86E090E00E945419BE
:10076000F70191838083B394EBCFE091B903F091CB
:10077000BA0382818F5F8283C6010F900F900F9022
:100780000F90DF91CF911F910F91FF90EF90DF902D
:10079000CF90BF90AF909F908F900895EF92FF926F
:1007A0001F93CF93DF93EC019B85FB018385F88D2D
:1007B000E98DAF2FBE2FA90FB11DA90FB11DED916E
:1007C000FC91119775836483FB01108D918DE12E4F
:1007D000F92EE80EF11CE80EF11CF70180819181E1
:1007E000FC01D583C4830D90BC91A02DF7018081BD
:1007F0009181FC0120833183428353832D933D9368
:100800004D935C9313978B858F5F8B87FB0183855B
:100810008F5F8387DF91CF911F91FF90EF900895B5
:100820002F923F924F925F926F927F928F929F9200
:10083000AF92BF92CF92DF92EF92FF920F931F93EE
:10084000CF93DF93CDB7DEB7C855D1090FB6F89473
:10085000DEBF0FBECDBF0E9408129093BC038093F1
:10086000BB0385E090E00E9454198C019093B4037F
:100870008093B30388E0D80114968C9380E190E0D4
:100880000E945419F8019383828383E090E00E94D0
:1008900054199093BA038093B903DC0112961C9209
:1008A00044E4E42E42E0F42E01E020E030E040EEAB
:1008B00050E460E070E084EB92EC0E9466039CAB35
:1008C0008BAB57E4E52E52E0F52E20E030E040EE11
:1008D00050E460E070E080E992EC0E9466039EAB19
:1008E0008DAB6AE4E62E62E0F62E20E030E040EECA
:1008F00050E460E070E088E592EC0E94660398AFF7
:100900008FAB7DE4E72E72E0F72E20E030E040EE82
:1009100050E460E070E080E192EC0E9466039AAFE0
:1009200089AFE0E5EE2EE2E0FE2E20E030E040EE82
:1009300050E460E070E080E991EC0E9466039CAFB7
:100940008BAFF3E5EF2EF2E0FF2E20E030E040EE3B
:1009500050E460E070E080E991E40E9466039EAF9D
:100960008DAFA6E5EA2EA2E0FA2E20E030E040EEC0
:1009700050E460E070E080E192E40E94660321961A
:100980009FAF8EAF2197B9E5EB2EB2E0FB2E20E0B2
:1009900030E040EE50E460E070E088E592E40E94D0
:1009A000660323969FAF8EAF23971CE5E12E12E0DE
:1009B000F12E20E030E040EE50E460E070E080E9AD
:1009C00092E40E94660325969FAF8EAF25978FE530
:1009D000E82E82E0F82E20E030E040EE50E460E0C7
:1009E00070E084EB92E40E94660327969FAF8EAF7F
:1009F000279793E6E92E92E0F92E02E020E030E01E
:100A000048EC51E460E070E084EB92EC0E946603F5
:100A100098AB8FA726E6E22E22E0F22E03E020E03C
:100A200030E048EC51E460E070E080E992EC0E9434
:100A300066039A87898739E6E32E32E0F32E20E0B9
:100A400030E048EC51E460E070E088E592EC0E9410
:100A500066039C878B8749E3E42E42E0F42E20E076
:100A600030E048EC51E460E070E080E192EC0E94FC
:100A700066039E878D875CE6E52E52E0F52E20E02A
:100A800030E048EC51E460E070E080E991EC0E94D5
:100A90006603988B8F876FE6E62E62E0F62E20E0E5
:100AA00030E048EC51E460E070E080E991E40E94BD
:100AB00066039A8B898B76E3E72E72E0F72E20E0AF
:100AC00030E048EC51E460E070E080E192E40E94A4
:100AD00066039C8B8B8BE2E7EE2EE2E0FE2E20E09D
:100AE00030E048EC51E460E070E088E592E40E9478
:100AF00066039E8B8D8BF5E7EF2EF2E0FF2E20E054
:100B000030E048EC51E460E070E080E992E40E945B
:100B10006603988F8F8BA8E7EA2EA2E0FA2E02E0F8
:100B200020E030E048EC51E460E070E084EB92E4D7
:100B30000E9466039AAB89ABBCE3EB2EB2E0FB2EBE
:100B400001E020E030E0A901CA01B9010E9466037A
:100B50009A8F898F12E1E12E12E0F12E04E020E05D
:100B600030E048EC51E460E070E0CB010E946603A5
:100B700069969FAF8EAF69978CE7E82E82E0F82EDA
:100B800020E030E042E852E460E070E0CB010E94F7
:100B900066039A8389839FE7E92E92E0F92E03E0AA
:100BA00020E030E042E852E460E070E08CE092EC5B
:100BB0000E9466039C838B8322E8E22E22E0F22EC1
:100BC00020E030E043EC52E460E070E087E892EC33
:100BD0000E9466039E838D8335E8E32E32E0F32E78
:100BE00020E030E844E053E460E070E087E892EC15
:100BF0000E9466039C8F8B8F48E8E42E42E0F42E1F
:100C000020E030E847E253E460E070E087E892ECEF
:100C10000E94660398878F835BE8E52E52E0F52EED
:100C200020E030E048E453E460E070E08CE092ECD7
:100C30000E9466032C016EE8E62E62E0F62E20E0AC
:100C400030E048E453E460E070E0CB010E946603CA
:100C50009E8F8D8F71E9E72E72E0F72E20E030E055
:100C600048E453E460E070E08CE092E40E946603A4
:100C70003C01E4E9EE2EE2E0FE2E20E030E847E21F
:100C800053E460E070E087E892E40E9466034C0160
:100C9000F8E9EF2EF2E0FF2E20E030E844E053E4E4
:100CA00060E070E087E892E40E94660398A38F8F6B
:100CB000ACE9EA2EA2E0FA2E20E030E043EC52E468
:100CC00060E070E087E892E40E9466035C01B0EAAD
:100CD000EB2EB2E0FB2E20E030E042E852E460E090
:100CE00070E08CE092E40E9466036C0114EAE12E4D
:100CF00012E0F12E20E030E04DEC52E460E070E0D4
:100D0000CB010E9466039AA389A388EAE82E82E0B9
:100D1000F82E20E030E844E053E460E070E080EF3B
:100D200091EC0E9466039CA38BA39CEAE92E92E0BF
:100D3000F92E20E030E842E253E460E070E0CB01BD
:100D40000E9466039EA38DA320EBE22E22E0F22EEA
:100D500020E030E844E053E460E070E080EF91E4AC
:100D60000E94660398A78FA334EBE32E32E0F32EA4
:100D700004E020E030E844E053E460E070E0CB01C0
:100D80000E9466031C0148EBE42E42E0F42E00E0D2
:100D900020E030E044E352E460E070E084E592EC6F
:100DA0000E9466035DEBE52E52E0F52E20E030E078
:100DB00044E352E460E070E088E891EC0E9466034E
:100DC00062ECE62E62E0F62E20E030E047EE52E4E0
:100DD00060E070E08FEA92EC0E94660377ECE72E09
:100DE00072E0F72E20E030E04FE952E460E070E07E
:100DF0008FEA92EC0E946603ECECEE2EE2E0FE2E0F
:100E000020E030E849E353E460E070E08FEA92ECE0
:100E10000E946603F1EDEF2EF2E0FF2E20E030E8B5
:100E200045E153E460E070E08FEA92EC0E946603D3
:100E3000A6EDEA2EA2E0FA2E20E030E04CE553E4E5
:100E400060E070E088E891EC0E946603BBEDEB2E59
:100E5000B2E0FB2E20E030E04CE553E460E070E0CF
:100E600084E592EC0E94660310EEE12E12E0F12E72
:100E700020E030E04CE553E460E070E084E592E48B
:100E80000E94660385EEE82E82E0F82E20E030E036
:100E90004CE553E460E070E088E891E40E9466036A
:100EA0009AEEE92E92E0F92E20E030E845E153E495
:100EB00060E070E08FEA92E40E9466032FEEE22E7B
:100EC00022E0F22E20E030E849E353E460E070E0F5
:100ED0008FEA92E40E94660334EFE32E32E0F32EB1
:100EE00020E030E04FE952E460E070E08FEA92E405
:100EF0000E94660349EFE42E42E0F42E20E030E049
:100F000047EE52E460E070E08FEA92E40E946603EC
:100F10005EEFE52E52E0F52E20E030E044E352E4AF
:100F200060E070E088E891E40E94660363E0E62EEA
:100F300063E0F62E20E030E044E352E460E070E04D
:100F400084E592E40E94660378E0E72E73E0F72ED2
:100F500001E020E030E044E352E460E070E08CE047
:100F600092EC0E94660329969FAF8EAF2997EBE023
:100F7000EE2EE3E0FE2E20E030E043EC52E460E0B1
:100F800070E08FEA92EC0E9466032B969FAF8EAFC3
:100F90002B97FEE0EF2EF3E0FF2E20E030E847E253
:100FA00053E460E070E08FEA92EC0E9466032D96B5
:100FB0009FAF8EAF2D97A1E1EA2EA3E0FA2E20E09D
:100FC00030E04CE553E460E070E08CE092EC0E948D
:100FD00066032F969FAF8EAF2F97B3E3EB2EB2E051
:100FE000FB2E20E030E04CE553E460E070E08CE064
:100FF00092E40E94660361969FAF8EAF619714E101
:10100000E12E13E0F12E20E030E847E253E460E007
:1010100070E08FEA92E40E94660363969FAF8EAF02
:10102000639787E1E82E83E0F82E20E030E043EC80
:1010300052E460E070E08FEA92E40E9466036596F5
:101040009FAF8EAF65979AE1E92E93E0F92E20E0ED
:1010500030E044E352E460E070E08CE092E40E940F
:10106000660367969FAF8EAF67972DE1E22E23E070
:10107000F22E03E020E030E04DEC52E460E070E05E
:1010800080EF91EC0E9466039AA789A730E2E32ED5
:1010900033E0F32E20E030E842E253E460E070E019
:1010A00080EF91EC0E9466039CA78BA744E2E42E9C
:1010B00043E0F42E20E030E842E253E460E070E0E8
:1010C00080EF91E40E9466039EA78DA758E2E52E6B
:1010D00053E0F52E20E030E04DEC52E460E070E0AB
:1010E00080EF91E40E9466038C012FE135E84BEC20
:1010F0005FE369966EAD7FAD6997898D9A8D0E9489
:10110000CE0323E333E343E95FE36F857889699690
:101110008EAD9FAD69970E94CE0323E333E343E98D
:101120005FE36BAD7CAD8F8598890E94CE0323E38E
:1011300033E343E95FE36D857E858F8598890E945F
:10114000CE0323E333E343E95FE369AD7AAD8D85F5
:101150009E850E94CE0323E333E343E95FE36B857F
:101160007C858D859E850E94CE0323E333E343E98E
:101170005FE36FA978AD8B859C850E94CE0323E346
:1011800033E343E95FE369857A858B859C850E941B
:10119000CE0323E333E343E95FE36DA97EA98985A9
:1011A0009A850E94CE0323E333E343E95FE36FA50F
:1011B00078A989859A850E94CE0323E333E343E926
:1011C0005FE36BA97CA98FA598A90E94CE0323E3B6
:1011D00033E343E95FE369897A8969968EAD9FAD10
:1011E00069970E94CE0323E333E343E95FE36DADE8
:1011F0007EAD89899A890E94CE0323E333E343E9D4
:101200005FE36B897C8989899A890E94CE0323E3F5
:1012100033E343E95FE321966EAD7FAD21978B8980
:101220009C890E94CE0323E333E343E95FE36D89A6
:101230007E898B899C890E94CE0323E333E343E9B3
:101240005FE323966EAD7FAD23978D899E890E94C3
:10125000CE0323E333E343E95FE36F89788D8D8920
:101260009E890E94CE0323E333E343E95FE325969F
:101270006EAD7FAD25978F89988D0E94CE0323E3B5
:1012800033E343E95FE369A97AA98F89988D0E94C6
:10129000CE0323E333E343E95FE327966EAD7FADEF
:1012A000279789A99AA90E94CE0323E333E343E257
:1012B00050E469817A8169968EAD9FAD69970E94ED
:1012C000CE0322E538EB4EE050E46B817C818981CE
:1012D0009A810E94CE032CE53FE842EA5FE329961B
:1012E0006EAD7FAD29978B819C810E94CE0325E84E
:1012F0003BEE41E750E46D817E818B819C810E94B1
:10130000CE032CE53FE842EA5FE32B966EAD7FAD5E
:101310002B978D819E810E94CE0322E538EB4EE013
:1013200050E46B8D7C8D8D819E810E94CE0323ECD9
:1013300035EF48E150E46BA17CA18B8D9C8D0E9420
:10134000CE0322E538EB4EE050E46F8178858B8D3B
:101350009C8D0E94CE032CE53FE842EA5FE32D9688
:101360006EAD7FAD2D978F8198850E94CE0325E8C5
:101370003BEE41E750E4B2018F8198850E94CE0395
:101380002CE53FE842EA5FE32F966EAD7FAD2F97E5
:10139000C2010E94CE0322E538EB4EE050E46D8D91
:1013A0007E8DC2010E94CE0323EC35EF48E150E46C
:1013B0006DA17EA18D8D9E8D0E94CE0322E538EB1E
:1013C0004EE050E4B3018D8D9E8D0E94CE032CE53E
:1013D0003FE842EA5FE361966EAD7FAD6197C3017E
:1013E0000E94CE0325E83BEE41E750E4B401C3017F
:1013F0000E94CE032CE53FE842EA5FE363966EADC0
:101400007FAD6397C4010E94CE0322E538EB4EE026
:1014100050E46F8D78A1C4010E94CE0323EC35EF18
:1014200048E150E46FA178A58F8D98A10E94CE036A
:1014300022E538EB4EE050E4B5018F8D98A10E9473
:10144000CE032CE53FE842EA5FE365966EAD7FADE3
:101450006597C5010E94CE0325E83BEE41E750E4C5
:10146000B601C5010E94CE032CE53FE842EA5FE3E6
:1014700067966EAD7FAD6797C6010E94CE0322E5E9
:1014800038EB4EE050E469817A81C6010E94CE03B8
:1014900023EC35EF48E150E469A17AA189819A8172
:1014A0000E94CE0321EE3AE744EF5FE369A57AA5F7
:1014B00089A19AA10E94CE0321EE3AE744EF5FE3AF
:1014C0006BA17CA189A59AA50E94CE0321EE3AE7E3
:1014D00044EF5FE36BA57CA58BA19CA10E94CE038A
:1014E00021EE3AE744EF5FE36DA17EA18BA59CA5B9
:1014F0000E94CE0321EE3AE744EF5FE36DA57EA59F
:101500008DA19EA10E94CE0321EE3AE744EF5FE356
:101510006FA178A58DA59EA50E94CE0321EE3AE786
:1015200044EF5FE3B8018FA198A50E94CE0321EE9E
:101530003AE744EF5FE369A17AA1C8010E94CE03B4
:101540002DEC3CEC4CE250E4B10189A59AA50E9437
:10155000CE032DEC3CEC4CE250E4B1018BA59CA5F4
:101560000E94CE032DEC3CEC4CE250E4B1018DA581
:101570009EA50E94CE032DEC3CEC4CE250E4B10160
:10158000C8010E94CE03E091B903F091BA03898D9E
:101590009A8D91838083E091BB03F091BC0301900D
:1015A000F081E02D9183808380E090E0A4EBB2E4B1
:1015B00082839383A483B583E091B303F091B40352
:1015C0000280F381E02DAB81BC81B183A083E091E7
:1015D000B303F091B403228133818D819E81D901BF
:1015E00013969C938E931297228133818F819885D5
:1015F000D90115969C938E931497A281B381179667
:101600005C924E921697A281B38119967C926E924B
:101610001897A281B3811B969C928E921A97A281F1
:10162000B3811D96BC92AE921C97A281B3811F9686
:10163000DC92CE921E9731822082C85ADF4F0FB6BD
:10164000F894DEBF0FBECDBFDF91CF911F910F91F8
:10165000FF90EF90DF90CF90BF90AF909F908F90D2
:101660007F906F905F904F903F902F900895E09102
:10167000BB03F091BC030190F081E02D808191814A
:101680000895EF92FF920F931F93CF93DF93EC0196
:10169000E62E8A0181E0611180E08F8BCE01F80196
:1016A0001995F12C8F2D90E02B85332727FD309550
:1016B00082179307A4F4880F991FA88DB98DA80FDE
:1016C000B91FED91FC9184819581FC0127892E1130
:1016D00004C0A8016E2D0E94410BF394E3CFDF916B
:1016E000CF911F910F91FF90EF900895CF93DF93CB
:1016F000EC01E091B903F091BA03808191811092DD
:10170000B6031092B503C093B703D093B8034FE468
:1017100053E0FC0167890E94410B2091B503309191
:10172000B6032115310599F4DF93CF938CE293E052
:101730009F938F930E949D15E091B903F091BA0396
:10174000808191810F900F900F900F9001C0C9017F
:10175000DF91CF910895FC0180E0861739F0219147
:1017600031912417350719F08F5FF7CF8FEF089568
:10177000DF92EF92FF920F931F93CF93DF93D82EB8
:10178000E92EEB018A01F8806F2D0E94AB0B8F3F91
:1017900059F4ED2DFE2DEF0DF11DEF0DF11D11830F
:1017A000008388818F5F8883DF91CF911F910F9194
:1017B000FF90EF90DF9008958091B3039091B40370
:1017C00008958091B9039091BA0308959F772AE014
:1017D00037ED43E25CE30E9485180895853B91054F
:1017E0001CF088569140FACF8C342FEF92071CF4EE
:1017F00088599E4FF3CF089520E030E044E353E44E
:101800000E9485182BED3FE049E450E40E94AE169B
:101810000895CF92DF92EF92FF926B017C0120E05E
:1018200030E0A9010E94AA1620E030E044EB53E426
:1018300087FF05C0C701B6010E94E415EECFC701BE
:10184000B601FF90EF90DF90CF900C948B17CF9262
:10185000DF92EF92FF926B017C0120E030E0A90162
:101860000E94AA162BED3FE049EC50E487FF0AC026
:10187000C701B6010E94E415FF90EF90DF90CF9072
:101880000C94090CC701B601FF90EF90DF90CF9048
:101890000C948B174F925F926F927F928F929F92D0
:1018A000AF92BF92CF92DF92EF92FF920F931F936E
:1018B000CF93DF93EC018B01E091B303F091B4037C
:1018C0000190F081E02D82809380A480B580C68055
:1018D000D780E084F1842A813B814C815D81C50100
:1018E000B4010E94E3152B013C012E813F81488504
:1018F0005985C701B6010E94E315A30192010E9418
:1019000057162B013C01F801228133814481558116
:10191000C501B4010E94E3154B015C01F801268169
:10192000378140855185C701B6010E94E315A501A5
:1019300094010E9457160E94270C6B017C01C30181
:10194000B2010E94270C9B01AC01C701B6010E94A5
:10195000E315DF91CF911F910F91FF90EF90DF90F2
:10196000CF90BF90AF909F908F907F906F905F903F
:101970004F9008950E944A0C20E030E0A9010E9497
:101980007A1887FD02C081E008958FEF08950E94C4
:10199000800F0E94C4130C943C120E94620F91E0CD
:1019A000893208F490E0892F089583E090E00E9446
:1019B000CD0C882311F081E0089582E090E00E9430
:1019C000CD0C8111F8CF81E090E00E94CD0C91E028
:1019D000811101C090E0892F089582E090E00C947D
:1019E000CD0C8F929F92AF92BF92CF92DF92EF92E7
:1019F000FF921F93CF93DF935C01EB01BC01625E0A
:101A00007F4F80E090E00E94471728E431EE42E8E3
:101A100050E40E94AE160E941B176B01E12CF12CC2
:101A2000B5016E51710980E090E00E94471728E4EB
:101A300031EE42E850E40E94AE160E941B174B01A3
:101A4000A12CB12C0E94E3130E94DA13FE01199518
:101A5000811119C00E94F51390E0A0E0B0E011E000
:101A6000C816D906EA06FB0608F010E00E94EC133F
:101A700090E0A0E0B0E0C816D906EA06FB06E0F068
:101A8000112321F319C00E94F51390E0A0E0B0E00B
:101A900011E088169906AA06BB0608F010E00E941D
:101AA000EC1390E0A0E0B0E088169906AA06BB0609
:101AB00028F0112379F202C0C0E001C0C1E00E9409
:101AC000C4128C2F90E0DF91CF911F91FF90EF9087
:101AD000DF90CF90BF90AF909F908F9008952F92FE
:101AE0003F924F925F926F927F928F929F92AF92AE
:101AF000BF92CF92DF92EF92FF920F931F93CF93FB
:101B0000DF93CDB7DEB72A970FB6F894DEBF0FBECE
:101B1000CDBF182F062F4A01B22EBA01882777FDB4
:101B20008095982F0E94491725EE30ED4AEA50E43F
:101B30000E94AE160E941B176B017C01B401645118
:101B40007109882777FD8095982F0E94491725EE07
:101B500030ED4AEA50E40E94AE160E941B172B019A
:101B60003C010E94DA130E94E313812F90E09A87D0
:101B7000898710E02B2D30E0AA24AA94B12CA21A58
:101B8000B30AF801E20FF31FFA83E983821B930B78
:101B90009C838B8389859A85820F931F9E838D8377
:101BA000F801E21BF30BF887EF830E94EC1390E03F
:101BB000A0E0B0E099249394C816D906EA06FB0683
:101BC00008F0912C0E94F51390E0A0E0B0E0C81658
:101BD000D906EA06FB0608F494C0911092C082E090
:101BE00090E00E94CD0C81110BC039842A84902E84
:101BF000812E83E090E00E94CD0C81112FC028C07F
:101C000083E090E00E94CD0C8823D9F00E94EC1371
:101C100090E0A0E0B0E099249394481659066A0633
:101C20007B0608F0912C0E94F51390E0A0E0B0E054
:101C3000481659066A067B0608F463C09920A9F283
:101C400060C081E090E00E94CD0C8111DFCFCDCF4C
:101C50008091A2039091A303892B49F0A016B106AD
:101C60001CF43B802C8024C099808A8021C081E0B4
:101C700090E00E94CD0C811106C080919E0390914E
:101C80009F03892B59F089859A85A816B9061CF4FB
:101C90009F8088840DC03D802E800AC083E090E044
:101CA0000E94CD0C882321F081E090E00E94CD0CB1
:101CB00083E090E00E94CD0C992787FD909590934A
:101CC000A3038093A20381E090E00E94CD0C9927AA
:101CD00087FD909590939F0380939E03692D782DA7
:101CE0006F3F710519F014F06FEF70E0832D922DA6
:101CF0008F3F910519F014F08FEF90E00E94A7122A
:101D000054CF2A960FB6F894DEBF0FBECDBFDF9139
:101D1000CF911F910F91FF90EF90DF90CF90BF90E8
:101D2000AF909F908F907F906F905F904F903F907B
:101D30002F900C94C412CF93DF9300D01F92CDB795
:101D4000DEB74B835C836A8389830E94AC12209147
:101D500001024B815C816A8189810F900F900F9005
:101D60000F90DF91CF910C946F0DEF92FF920F9334
:101D70001F93CF93DF93EC01611103C005ED1CE0CD
:101D800002C00DEE1CE060EF80EF0E94A7121C164F
:101D90001D0654F50E94B212B801CE010E94F10C4A
:101DA00052EEE52EFF24FA94EC1AFD0A0197A1F0F9
:101DB00060EF80EF0E94A712C7010E94CD134CE391
:101DC00050E06FEF8FEF0E949B0E0E94B212B8019D
:101DD000CE010E94F10CEACFDF91CF911F910F91BC
:101DE000FF90EF900C94C4122097B1F30E94B512AB
:101DF000EE24FF24EC1AFD0AB801C7010E94F10C81
:101E00006E96019749F360EF80EF0E94A712CE0112
:101E10000E94CD134CE350E06FEF8FEF0E949B0EBA
:101E20000E94B512B801C7010E94F10CEACFCF930E
:101E3000DF9300D01F92CDB7DEB74B835C836A83FC
:101E400089830E94AF12209100024B815C816A81DC
:101E500089810F900F900F900F90DF91CF910C948C
:101E60006F0D10BA11BA109207011092080108956F
:101E70000C94310FE1E2F1E010828FEF80932501A5
:101E800091E09093240110922901809328011092EF
:101E90002B0180932A0110922D0180932C0189EA55
:101EA000809320018BE080830895EAE7F0E01082C0
:101EB00010927B0080E280937C0080E880BF86E8FF
:101EC00080830895883018F098E090937B008770A5
:101ED000806280937C0080917A00806480937A0095
:101EE00080917A0084FFFCCF8091790090917A00F4
:101EF000906190937A0010927B0008950C94620F89
:101F0000F8940E94310F0E94550F0E943A0F789466
:101F1000089540E050E060E87FE7FC014487558782
:101F200066877787108A80E008952F923F924F92BC
:101F30005F926F927F928F929F92AF92BF92CF9259
:101F4000DF92EF92FF920F931F93CF93DF936B017A
:101F50007C01A12CB12C912C812C80E8782E9FE75C
:101F6000692E00E010E00C151D05ECF4F701C1919D
:101F7000D1917F018889811113C02C843D844E84C6
:101F80005F84292D382D472D562DB101C2010E94A5
:101F9000AA1687FF05C05E01922C832C742C652C39
:101FA0000F5F1F4FE0CFC501DF91CF911F910F91C0
:101FB000FF90EF90DF90CF90BF90AF909F908F9069
:101FC0007F906F905F904F903F902F9008952F9249
:101FD0003F924F925F926F927F928F929F92AF92B9
:101FE000BF92CF92DF92EF92FF920F931F93CF9306
:101FF000DF93CDB7DEB72F970FB6F894DEBF0FBED5
:10200000CDBF4C015B0169017A01198288E090E043
:102010000E9454191C01D80112968C91880F990BBB
:102020000E945419F10191838083138212828A14D1
:102030009B0429F414821582168217824EC10E94D5
:10204000DC0B49E85FE0F4016789C4010E94410BA1
:10205000D80112968C91880F990B0E9454199F8376
:102060008E83F401148615861686178681E0808B90
:10207000C38AD48AE58AF68A8114910429F0A114CE
:10208000B10411F0012B91F480E593E00E94841AD1
:1020900080E090E0A0E8BFE7F10184839583A68308
:1020A000B7838E819F810E94EC1917C1840120E1C2
:1020B00037E239872887E1E0D8015096EC931D82FA
:1020C0001C82D8011B968C91992787FD9095EC81F5
:1020D000FD81E817F9070CF0B1C02C813D81220F7A
:1020E000331F3B872A87D8015896ED91FC91599769
:1020F000E20FF31F0190F081E02D248135813B83B5
:102100002A831C964D905D906D907C901F97D9010D
:1021100050968C91813009F48BC0D80153968D91E3
:102120009D910D90BC91A02D8C879D87AE87BF8718
:10213000F8012281338144815581AA81BB811296A5
:102140006D917D918D919C9115970E94E3156B0186
:102150007C01F8012681378140855185AA81BB81A8
:1021600016966D917D918D919C9119970E94E31522
:10217000A70196010E9457160E94FC0B6B017C017F
:10218000AA81BB81ED91FC918081833619F4C12C29
:10219000D12C7601A70196016C857D858E859F8562
:1021A0000E94E3150E94E60B9B01AC01C301B20142
:1021B0000E94E415D8015896ED91FC9159972A8513
:1021C0003B85E20FF31F0190F081E02D20813181EA
:1021D000428153810E94E4152B013C01AA81BB81FD
:1021E0001C962D913D914D915C911F970E94AA16CE
:1021F00087FF1EC0EA81FB81448655866686778606
:10220000C701B6010E94090CAA81BB8153966D9348
:102210007D938D939C93569752961C930E93519752
:10222000AD01BE016F5F7F4F8E819F810E94B80B11
:10223000EC81FD813196FD83EC8343CF698170E0B1
:102240008E819F810E94950F8C01288539852150B0
:10225000310939872887232B29F488E893E00E94E5
:10226000841A04C08A159B0509F025CF8E819F81B1
:102270000E94EC19F50184859585A685B785F10145
:1022800084839583A683B78322813381C901880F14
:10229000991F0190F081E02DE80FF91FB182A08213
:1022A0002F5F3F4FD10113963C932E931297C90194
:1022B000880F991FF501A188B288D101ED91FC9199
:1022C000E80FF91FB182A0822F5F3F4F0296A8143A
:1022D000B90481F7F10133832283C1012F960FB630
:1022E000F894DEBF0FBECDBFDF91CF911F910F914C
:1022F000FF90EF90DF90CF90BF90AF909F908F9026
:102300007F906F905F904F903F902F900895CF9364
:10231000DF93EC01888199810E94EC19CE01DF9155
:10232000CF910C94EC190F931F93CF93DF938AE016
:1023300090E00E9454198C019093C2038093C103D2
:1023400086E090E00E945419D8018D939C9382E11D
:1023500090E00E945419EC01F8019783868382E192
:1023600090E00E945419FC01D80119969C938E9319
:10237000189740E050E064EB72EC12964D935D9339
:102380006D937C931597198A188A488359836A83B9
:102390007B8382E090E09D838C838CE390E09F833D
:1023A0008E8387E890E09987888781E090E09B871B
:1023B0008A8788E290E09D878C878BE990E09F87F1
:1023C0008E87118A108A40E050E064EB72E440830B
:1023D00051836283738383E090E09583848382E8F2
:1023E00090E0978386838FE590E09187808784E0F3
:1023F00090E09387828780EA90E09587848784E1E4
:1024000090E097878687DF91CF911F910F91089574
:102410008091C1039091C203089581B18F6081B909
:1024200082B1807F82B9EAE0F1E0808188618083B7
:10243000EBE0F1E080818861808308956C98749A64
:1024400008956D98759A08950E940D120E941E12AB
:102450000C942112F894EAE6F0E080818260808397
:10246000EC9A78940895F894EAE6F0E08081886028
:102470008083ED9A78940895E1E2F1E010828FEF85
:102480008093250191E0909324011092290180937B
:10249000280110922B0180932A0110922D01809324
:1024A0002C0189EA809320018BE0808308951F929C
:1024B0000F920FB60F9211248F939F93AF93BF93F8
:1024C0008091AB039091AC03A091AD03B091AE03AA
:1024D0000196A11DB11D8093AB039093AC03A09313
:1024E000AD03B093AE03BF91AF919F918F910F90C9
:1024F0000FBE0F901F9018951F920F920FB60F925C
:1025000011248F939F93AF93BF938091AF039091CA
:10251000B003A091B103B091B2030196A11DB11D0A
:102520008093AF039093B003A093B103B093B20331
:10253000BF91AF919F918F910F900FBE0F901F9001
:10254000189592B1907F8F70892B82B908958093EE
:10255000280160932A01089586E00C94A11289E075
:102560000C94A11285E00C94A1128AE00C94A112A3
:1025700084E00C94A11282E00C94A11281E00C94EE
:10258000A11288E00C94A11280E00C94A1120F9388
:102590001F93BC0180E090E00E94471728E431EED1
:1025A00042E850E40E94AE160E941B17CB01A0E047
:1025B000B0E01092AB031092AC031092AD031092F6
:1025C000AE031092AF031092B0031092B1031092B9
:1025D000B2034091AB035091AC036091AD03709195
:1025E000AE030091AF031091B0032091B10330917D
:1025F000B203081719072A073B0728F44817590799
:102600006A077B0730F31F910F910C94C412CF928D
:10261000DF92EF92FF920F931F93BC0180E090E056
:102620000E94471725EE30ED4AEA50E40E94AE16AC
:102630000E941B171092AB031092AC031092AD03D3
:102640001092AE031092AF031092B0031092B10338
:102650001092B2030091AB031091AC032091AD0333
:102660003091AE03C090AF03D090B003E090B103BF
:10267000F090B2036C157D058E059F0528F060175C
:1026800071078207930730F71F910F91FF90EF902A
:10269000DF90CF900C94C412CF93DF931F921F92C0
:1026A000CDB7DEB789839A830E94AC1289819A8163
:1026B0000F900F90DF91CF910C940713CF93DF937E
:1026C0001F921F92CDB7DEB789839A830E94AF1203
:1026D00089819A810F900F90DF91CF910C9407130D
:1026E000CF93DF931F921F92CDB7DEB789839A8372
:1026F0000E94B21289819A810F900F90DF91CF9141
:102700000C94C712CF93DF931F921F92CDB7DEB701
:1027100089839A830E94B51289819A810F900F90C4
:10272000DF91CF910C94C712CF93DF93EC010E94FD
:10273000B812CE01880F991FDF91CF910C94C71268
:10274000CF93DF93EC010E94BB12CE01880F991F3B
:10275000DF91CF910C94C712CF93DF93EC010E94CD
:10276000BE12CE01880F991FDF91CF910C94C71232
:10277000CF93DF93EC010E94C112CE01880F991F05
:10278000DF91CF910C94C712F8940E9424120E94FA
:102790002A120E94331278940895181619061CF410
:1027A0000E94701305C09195819591090E94821332
:1027B0000C94C4121092AB031092AC031092AD03B0
:1027C0001092AE0308951092AF031092B0031092CE
:1027D000B1031092B20308958091AB039091AC03C2
:1027E000A091AD03B091AE0308958091AF03909195
:1027F000B003A091B103B091B203089587B1876F80
:1028000087B988B1807888B908950C94FE13F8943C
:102810000E94FE137894089586E69EE00197F1F7F2
:1028200000004098419880E388B9429A8FEF97E47E
:102830000197F1F700C00000429886E69EE00197FC
:10284000F1F700004098419880E388B9429A8FEFF1
:1028500097E40197F1F700C00000429886E69EE0F9
:102860000197F1F700004098419880E388B9429AB7
:102870008FEF97E40197F1F700C00000429886E6D9
:102880009EE00197F1F700004098419880E288B9F6
:10289000429A86E69EE00197F1F70000429808957B
:1028A00098B19F7098B928B1982F907F922B98B9C2
:1028B00040984198429AEFEFF7E43197F1F700C062
:1028C0000000429898B19F7098B998B18295807F26
:1028D000892B88B940984198429A8FEF97E40197E5
:1028E000F1F700C00000429808950E9407140E946A
:1028F0000C1486E69EE00197F1F7000088E20E9442
:10290000501481E00E94501486E00E9450148EE022
:102910000E94501480E80C94501498B19F7098B99C
:1029200028B1982F907F922B98B9409A4198429A5B
:10293000EFEFF7E43197F1F700C00000429882957D
:10294000807F98B19F7098B998B1892B88B9409AC7
:102950004198429A8FEF97E40197F1F700C0000089
:102960004298089580E80C945014EF92FF921F93C0
:10297000CF93DF931F92CDB7DEB7182F81E09983F5
:102980000E945014E12E9981F92EF70181917F0167
:10299000882319F00E948D14F8CF0F90DF91CF910A
:1029A0001F91FF90EF900895CF93DF93CDB7DEB7DF
:1029B00060970FB6F894DEBF0FBECDBFFE017696CE
:1029C000419151919F0160E170E0CE0101960E941A
:1029D000B11ACE0101960E94B5142FEF8FE796E150
:1029E000215080409040E1F700C0000060960FB693
:1029F000F894DEBF0FBECDBFDF91CF910895982F21
:102A0000862F923059F01CF4913031F008959330B4
:102A100039F0943039F00895815805C0815403C0CD
:102A20008D5601C08D520C9450140F931F93CF9369
:102A3000DF938A01E901882311F0611103C00E942C
:102A4000B21402C00E94FF14C530D10579F4C80148
:102A500060E177E20E944019605D7F4F7093C6038A
:102A60006093C503862F0E948D1403C0C430D10526
:102A700059F5C80168EE73E00E944019CB017093CC
:102A8000C8036093C7036AE070E00E944019C096D3
:102A90009093D0038093CF030E948D14C80164E605
:102AA00070E00E944019CB017093C8036093C70384
:102AB0006AE070E00E944019C0969093CC03809326
:102AC000CB030E948D1406C0C330D10539F3C23048
:102AD000D10551F52AE030E0C801B9010E94401942
:102AE000CB017093C8036093C703B9010E944019DA
:102AF000C0969093CA038093C9030E948D14C801A5
:102B00006AE070E00E944019C0969093CE038093D3
:102B1000CD030E948D1426975CF085E4DF91CF9160
:102B20001F910F910C948D14C130D105A1F7E7CFFF
:102B3000DF91CF911F910F910895CF93DF93CDB780
:102B4000DEB780E090E0DF91CF91089508950E9474
:102B500093110E9410040E9475140E94C70C87E212
:102B600092E09F938F930E949D152FEF8FEF9CE231
:102B7000215080409040E1F700C0000083E392E0E4
:102B80000E94760B0E946C0186E392E00E94760B15
:102B90000E946C0189E392E00E94760B0E946C0116
:102BA0008CE392E00E94760B0E946C018EE392E02F
:102BB0009F938F930E94D4140F900F900F900F90BB
:102BC00080E090E008955058BB27AA270ED058C245
:102BD00049D230F04ED220F031F49F3F11F41EF470
:102BE00019C20EF4E095E7FB01C2E92F5AD280F337
:102BF000BA17620773078407950718F071F49EF5FA
:102C000072C20EF4E0950B2EBA2FA02D0B01B90164
:102C100090010C01CA01A0011124FF27591B99F052
:102C2000593F50F4503E68F11A16F040A22F232F5E
:102C3000342F4427585FF3CF469537952795A795AE
:102C4000F0405395C9F77EF41F16BA0B620B730B55
:102C5000840BBAF09150A1F0FF0FBB1F661F771FC6
:102C6000881FC2F70EC0BA0F621F731F841F48F47B
:102C7000879577956795B795F7959E3F08F0B3CF01
:102C80009395880F08F09927EE0F979587950895EB
:102C9000E9D158F080E891E009F49EEFEAD128F0FC
:102CA00040E851E059F45EEF09C0B4C11CC2E92FFD
:102CB000E078F7D168F3092E052AC1F32617370704
:102CC0004807590738F00E2E07F8E02569F0E0258F
:102CD000E0640AC0EF6307F8009407FADB01B9016A
:102CE0009D01DC01CA01AD01EF9347D0C9D10AD0E3
:102CF0005F91552331F02BED3FE049E450FD49EC65
:102D000063CF0895DF93DD27B92FBF7740E85FE3F6
:102D10001616170648075B0710F4D92FEFD19F93BB
:102D20008F937F936F9396D2E4EEF0E076D1A8D1A3
:102D30002F913F914F915F91F4D1DD2349F090584D
:102D4000A2EA2AED3FE049EC5FE3D0785D274DDF52
:102D5000DF9196C127D108F481E008950CD090C18D
:102D600088D140F07FD130F021F45F3F19F03EC1AF
:102D70005111BAC14FC195D198F39923C9F3552385
:102D8000B1F3951B550BBB27AA276217730784075E
:102D900038F09F5F5F4F220F331F441FAA1FA9F314
:102DA00033D00E2E3AF0E0E830D091505040E69506
:102DB000001CCAF729D0FE2F27D0660F771F881F67
:102DC000BB1F261737074807AB07B0E809F0BB0B56
:102DD000802DBF01FF2793585F4F2AF09E3F51057A
:102DE00068F004C181C15F3FECF3983EDCF3869547
:102DF00077956795B795F7959F5FC9F7880F911DF0
:102E00009695879597F90895E1E0660F771F881FDB
:102E1000BB1F621773078407BA0720F0621B730B8E
:102E2000840BBA0BEE1F88F7E095089504D06894E0
:102E3000B1115AC108953DD188F09F5790F0B92F34
:102E40009927B751A0F0D1F0660F771F881F991FFF
:102E50001AF0BA95C9F712C0B13081F044D1B1E08F
:102E6000089541C1672F782F8827B85F39F0B93F9F
:102E7000CCF3869577956795B395D9F73EF4909501
:102E80008095709561957F4F8F4F9F4F0895E8947F
:102E900009C097FB3EF490958095709561957F4FA2
:102EA0008F4F9F4F9923A9F0F92F96E9BB27939550
:102EB000F695879577956795B795F111F8CFFAF460
:102EC000BB0F11F460FF1BC06F5F7F4F8F4F9F4F91
:102ED00016C0882311F096E911C0772321F09EE8EF
:102EE000872F762F05C0662371F096E8862F70E055
:102EF00060E02AF09A95660F771F881FDAF7880F2F
:102F00009695879597F90895ADD018F011F0B1D046
:102F100038F480C0E9C0E92FC4D0B0F35523C9F319
:102F2000E7FB6217730784079507A8F199F3E92F68
:102F3000FF2788232AF03197660F771F881FDAF75B
:102F4000952F5527442332F091505040220F331FC4
:102F5000441FD2F7BB27E91BF50B621B730B840BD5
:102F6000B109C1F222F4620F731F841FB11D3197A2
:102F70002AF0660F771F881FBB1FEFCF915050407C
:102F80005AF041F0882332F0660F771F881F915066
:102F90005040C1F7939530C08695779567959F5FB0
:102FA000D9F7F8CF990F0008550FAA0BE0E8FEEF0C
:102FB00016161706E807F907C0F012161306E407FD
:102FC000F50798F0621B730B840B950B39F40A26F6
:102FD00061F0232B242B252B21F408950A2609F4D4
:102FE000A140A6958FEF811D811D089597F99F67D8
:102FF00080E870E060E008959F3F31F0915020F448
:10300000879577956795B795880F911D96958795C4
:1030100097F908959FEF80EC0895DF93CF931F9366
:103020000F93FF92EF92DF927B018C01689405C0B1
:10303000DA2EEF0176D0FE01E894A5912591359125
:1030400045915591AEF3EF01D0DDFE019701A80146
:10305000DA9479F7DF90EF90FF900F911F91CF9165
:10306000DF91089500240A9416161706180609061B
:10307000089500240A9412161306140605060895EE
:10308000092E0394000C11F4882352F0BB0F40F476
:10309000BF2B11F460FF04C06F5F7F4F8F4F9F4FB6
:1030A000089557FD9058440F551F59F05F3F71F038
:1030B0004795880F97FB991F61F09F3F79F087959F
:1030C0000895121613061406551FF2CF4695F1DF28
:1030D00008C0161617061806991FF1CF86957105B8
:1030E000610508940895E894BB2766277727CB01EC
:1030F00097F9089557DF08F48FEF08959B01AC010D
:1031000060E070E080E89FE329CE0BD0B9CFAADF62
:1031100028F0AFDF18F0952309F068CF7BCF11249A
:10312000E3CFBFDFA0F3959FD1F3950F50E0551F7C
:10313000629FF001729FBB27F00DB11D639FAA270C
:10314000F00DB11DAA1F649F6627B00DA11D661F5B
:10315000829F2227B00DA11D621F739FB00DA11D7C
:10316000621F839FA00D611D221F749F3327A00D36
:10317000611D231F849F600D211D822F762F6A2FD2
:1031800011249F5750408AF0E1F088234AF0EE0F57
:10319000FF1FBB1F661F771F881F91505040A9F764
:1031A0009E3F510570F022CF9FCF5F3FECF3983EDA
:1031B000DCF3869577956795B795F795E7959F5FCB
:1031C000C1F7FE2B880F911D9695879597F9089565
:1031D00011F40EF41FCF10CF6CDFD0F39923D9F385
:1031E000CEF39F57550B87FF38D00024A0E640EA66
:1031F000900180585695979528F4805C660F771F4C
:10320000881F20F026173707480730F4621B730B1E
:10321000840B202931294A2BA69517940794202541
:1032200031254A2758F7660F771F881F20F0261789
:103230003707480730F4620B730B840B200D311DE8
:10324000411DA09581F7B901842F9158880F96955B
:10325000879508959B01AC0158CF91505040660F5F
:10326000771F881FD2F70895991B79E004C0991F32
:10327000961708F0961B881F7A95C9F780950895D0
:10328000AA1BBB1B51E107C0AA1FBB1FA617B7078C
:1032900010F0A61BB70B881F991F5A95A9F78095A8
:1032A0009095BC01CD010895CF93DF9382309105B5
:1032B00010F482E090E0E091D303F091D40320E099
:1032C00030E0A0E0B0E0309739F1408151814817FB
:1032D0005907B8F04817590771F482819381109704
:1032E00029F013969C938E9312972CC09093D4033D
:1032F0008093D30327C02115310531F042175307BE
:1033000018F0A901DB0101C0EF019A01BD01DF0145
:103310000280F381E02DD7CF21153105F9F0281B6C
:10332000390B2430310580F48A819B816115710548
:1033300021F0FB019383828304C09093D403809394
:10334000D303FE01329644C0FE01E20FF31F8193C6
:10335000919322503109398328833AC02091D103B7
:103360003091D203232B41F42091040230910502C5
:103370003093D2032093D1032091020230910302B3
:103380002115310541F42DB73EB740910602509109
:103390000702241B350BE091D103F091D203E21711
:1033A000F307A0F42E1B3F0B2817390778F0AC0168
:1033B0004E5F5F4F2417350748F04E0F5F1F509345
:1033C000D2034093D1038193919302C0E0E0F0E0F7
:1033D000CF01DF91CF910895CF93DF93009709F448
:1033E00087C0FC01329713821282C091D303D0911F
:1033F000D403209781F420813181280F391F8091D7
:10340000D1039091D2038217930779F5F093D203F9
:10341000E093D1036DC0DE0120E030E0AE17BF07BE
:1034200050F412964D915C9113979D0141155105F1
:1034300009F1DA01F3CFB383A28340815181840F74
:10344000951F8A179B0771F48D919C911197840F9A
:10345000951F02969183808312968D919C9113976C
:10346000938382832115310529F4F093D403E093EB
:10347000D3033EC0D9011396FC93EE9312974D915E
:103480005D91A40FB51FEA17FB0779F48081918144
:10349000840F951F0296D90111969C938E93828179
:1034A000938113969C938E931297E0E0F0E08A81CB
:1034B0009B81009719F0FE01EC01F9CFCE01029635
:1034C00028813981820F931F2091D1033091D2033B
:1034D0002817390769F4309729F41092D403109211
:1034E000D30302C013821282D093D203C093D103BC
:1034F000DF91CF910895FB01DC018D91019080193E
:103500000110D9F3990B08950F931F93CF93DF9375
:10351000E091D703F091D803238121FF1BC0EC0178
:1035200000E010E089916091D7037091D803DB012E
:103530001896ED91FC911997882331F01995892BF4
:1035400089F30FEF1FEFEECF8AE01995892B11F465
:10355000C80102C08FEF9FEFDF91CF911F910F91B4
:1035600008950F931F93CF93DF93CDB7DEB72E97B8
:103570000FB6F894DEBF0FBECDBF8C01CA0146E086
:103580004C831A83098377FF02C060E070E86150C2
:1035900071097E836D83A901BC01CE0101960E9451
:1035A000EA1A4D815E8157FD0AC02F813885421786
:1035B00053070CF49A01F801E20FF31F10822E96C4
:1035C0000FB6F894DEBF0FBECDBFDF91CF911F9134
:1035D0000F9108952F923F924F925F926F927F9238
:1035E0008F929F92AF92BF92CF92DF92EF92FF9213
:1035F0000F931F93CF93DF93CDB7DEB72C970FB602
:10360000F894DEBF0FBECDBF7C016B018A01FC01C7
:1036100017821682838181FFBDC1CE0101964C01C4
:10362000F7019381F60193FD859193FF81916F01DD
:10363000882309F4ABC1853239F493FD859193FF5A
:1036400081916F01853229F4B70190E00E94FB1C43
:10365000E7CF512C312C20E02032A0F48B3269F0DE
:1036600030F4803259F0833269F420612CC08D32FD
:1036700039F0803339F4216026C02260246023C0F1
:10368000286021C027FD27C030ED380F3A3078F48C
:1036900026FF06C0FAE05F9E300D1124532E13C0A2
:1036A0008AE0389E300D1124332E20620CC08E32F9
:1036B00021F426FD6BC1206406C08C3611F420680D
:1036C00002C0883641F4F60193FD859193FF819104
:1036D0006F018111C1CF982F9F7D9554933028F4AD
:1036E0000C5F1F4FFFE3F9830DC0833631F0833742
:1036F00071F0833509F05BC022C0F80180818983B5
:103700000E5F1F4F44244394512C540115C03801BF
:10371000F2E06F0E711CF801A080B18026FF03C09B
:10372000652D70E002C06FEF7FEFC5012C870E940E
:10373000F01C2C0183012C852F77222E17C0380115
:10374000F2E06F0E711CF801A080B18026FF03C06B
:10375000652D70E002C06FEF7FEFC5012C870E94DE
:10376000E51C2C012C852068222E830123FC1BC024
:10377000832D90E048165906B0F4B70180E290E03E
:103780000E94FB1C3A94F4CFF50127FC859127FE9B
:1037900081915F01B70190E00E94FB1C31103A94C7
:1037A000F1E04F1A51084114510471F7E5C0843615
:1037B00011F0893639F5F80127FF07C06081718162
:1037C000828193810C5F1F4F08C0608171818827BF
:1037D00077FD8095982F0E5F1F4F2F76B22E97FFA3
:1037E00009C090958095709561957F4F8F4F9F4F41
:1037F0002068B22E2AE030E0A4010E942D1DA82EE0
:10380000A81844C0853729F42F7EB22E2AE030E074
:1038100025C0F22FF97FBF2E8F36C1F018F48835FE
:1038200079F0B4C0803719F0883721F0AFC02F2F5E
:103830002061B22EB4FE0DC08B2D8460B82E09C05D
:1038400024FF0AC09F2F9660B92E06C028E030E002
:1038500005C020E130E002C020E132E0F801B7FE0F
:1038600007C060817181828193810C5F1F4F06C008
:103870006081718180E090E00E5F1F4FA4010E9483
:103880002D1DA82EA818FB2DFF77BF2EB6FE0BC04E
:103890002B2D2E7FA51450F4B4FE0AC0B2FC08C034
:1038A0002B2D2E7E05C07A2C2B2D03C07A2C01C027
:1038B000752C24FF0DC0FE01EA0DF11D80818033BF
:1038C00011F4297E09C022FF06C07394739404C0CA
:1038D000822F867809F0739423FD13C020FF06C061
:1038E0005A2C731418F4530C5718732C731468F46F
:1038F000B70180E290E02C870E94FB1C73942C851A
:10390000F5CF731410F4371801C0312C24FF12C006
:10391000B70180E390E02C870E94FB1C2C8522FFDE
:1039200017C021FF03C088E590E002C088E790E05F
:10393000B7010CC0822F867859F021FD02C080E2C9
:1039400001C08BE227FD8DE2B70190E00E94FB1CD5
:10395000A51438F4B70180E390E00E94FB1C5A9450
:10396000F7CFAA94F401EA0DF11D8081B70190E030
:103970000E94FB1CA110F5CF332009F451CEB701F2
:1039800080E290E00E94FB1C3A94F6CFF70186811A
:10399000978102C08FEF9FEF2C960FB6F894DEBF91
:1039A0000FBECDBFDF91CF911F910F91FF90EF9090
:1039B000DF90CF90BF90AF909F908F907F906F904F
:1039C0005F904F903F902F900895FC0105906150BB
:1039D00070400110D8F7809590958E0F9F1F089525
:1039E000FC016150704001900110D8F780959095CE
:1039F0008E0F9F1F08950F931F93CF93DF93182F60
:103A0000092FEB018B8181FD03C08FEF9FEF20C059
:103A100082FF10C04E815F812C813D814217530788
:103A20007CF4E881F9819F012F5F3F4F3983288320
:103A3000108306C0E885F985812F1995892B29F710
:103A40002E813F812F5F3F4F3F832E83812F902F09
:103A5000DF91CF911F910F910895FA01AA27283085
:103A600051F1203181F1E8946F936E7F6E5F7F4F4B
:103A70008F4F9F4FAF4FB1E03ED0B4E03CD0670FC7
:103A8000781F891F9A1FA11D680F791F8A1F911D1A
:103A9000A11D6A0F711D811D911DA11D20D009F46A
:103AA00068943F912AE0269F11243019305D3193AC
:103AB000DEF6CF010895462F4770405D4193B3E095
:103AC0000FD0C9F7F6CF462F4F70405D4A3318F03C
:103AD000495D31FD4052419302D0A9F7EACFB4E0ED
:103AE000A6959795879577956795BA95C9F70097A5
:103AF0006105710508959B01AC010A2E0694579546
:103B0000479537952795BA95C9F7620F731F841F9C
:0A3B1000951FA01D0895F894FFCF43
:103B1A0078780000DB03200014003C0014001E002B
:103B2A001E00723100526F743A2025642C202564DD
:103B3A000043757276650048656C6C6F20776F720A
:103B4A006C640048350063370063340053004166F3
:103B5A007465720050310050320050330050340006
:103B6A005035005036005037005038005039005058
:103B7A003130006331006332006333006335006320
:103B8A0036006338006339006331300072320072E4
:103B9A0033007234007235007236007237007238A0
:103BAA0000723900723130007231310072313200E4
:103BBA00723133007231340072313500723136009D
:103BCA00723137007231380048314441004831447B
:103BDA00420048324441004832444200483344419A
:103BEA0000483344420048344441004834444200C7
:103BFA00483544410048354442004836444100486B
:103C0A003644420048374441004837444200483865
:103C1A0044410048384442004831004832004833A1
:103C2A000048340048360048370048380048390010
:103C3A004831300048313100483132004552524F44
:103C4A00523A20666F756E645F6E6F646520666FA8
:103C5A0072202573206973204E554C4C0A0A0A00BB
:103C6A004552524F523A204E554C4C20706F696E55
:103C7A0074657220666F7220736F75726365206F48
:103C8A007220746172676574202D2064696A6B738F
:103C9A007472612E630A0A00546F6F206D616E7927
:0E3CAA0020697465726174696F6E7321000089
:00000001FF
