:100000000C94D2000C94F3000C94F3000C94F300C5
:100010000C94F3000C947E120C9459120C94F3007F
:100020000C94F3000C94F3000C94F3000C94F30084
:100030000C94F3000C94F3000C94F3000C94F30074
:100040000C94F3000C94F3000C94F3000C94F30064
:100050000C94F3000C94F3000C94F3000C94F30054
:100060000C94F3000C94F3000C94F3000C94F30044
:100070000C94F3000C94F3000C94F3000C94F30034
:100080000C941E160C945F160C9489160C94F300B5
:100090000C94F3000C94F3000C94F3000C94F30014
:1000A0000C94F3000C94F3000C94F3000C94F30004
:1000B0000C94F3000C94F3000C94F3000C94F300F4
:1000C0000C94F3000C94F3000C94F3000C94F300E4
:1000D0000C94F3000C94F3000C94F3000C94F300D4
:1000E0000C94F300084AD73B3BCE016E84BCBFFDA5
:1000F000C12F3D6C74319ABD56833DDA3D00C77FF8
:1001000011BED9E4BB4C3E916BAAAABE0000008090
:100110003F07634236B79BD8A71A39685618AEBA5C
:10012000AB558C1D3CB7CC5763BD6DEDFD753EF6F0
:10013000177231BF000000803F08000000BE92240B
:1001400049123EABAAAA2ABECDCCCC4C3E00000040
:1001500080BEABAAAAAA3E00000000BF000000803B
:100160003F0000000000084178D3BB4387D1133D16
:10017000190E3CC3BD4282AD2B3E68EC8276BED9DF
:100180008FE1A93E4C80EFFFBE01C4FF7F3F00001E
:10019000000000000C94950F0C9439030C94D70CBC
:1001A0000C94BF0C11241FBECFEFD1E2DEBFCDBF38
:1001B00000E00CBF13E0A0E0B2E0ECECF2E400E001
:1001C0000BBF02C007900D92AA3AB107D9F713E00E
:1001D000AAEAB3E001C01D92AC3FB107E1F70E946B
:1001E000FE170C9464210C9400004F925F926F9262
:1001F0007F928F929F92AF92BF92CF92DF92EF92B7
:10020000FF920F931F93CF93DF9300D01F92CDB730
:10021000DEB78C017B010E94C60BFC01C080D1803F
:10022000F6012281338144815581F8016281738115
:10023000848195810E943C182B013C01F6012681A6
:10024000378140855185F801668177818085918568
:100250000E943C184B015C01A3019201C301B20151
:100260000E94DE1A2B013C01A5019401C501B401D5
:100270000E94DE1A9B01AC01C301B2010E943D182D
:100280000E94911B4B015C01B701C8010E94340C14
:100290006B017C012B013C01E89477F820E030E011
:1002A00040EF50E4C501B4010E943C18A301920143
:1002B0000E94DE1A0E94741970E080E090E00E94B3
:1002C000A21969837A838B839C8320E030E040EF1E
:1002D00050E4C501B4010E943D18A30192010E949F
:1002E000DE1A0E9474198FEF0E94B81C682F70E00C
:1002F00080E090E00E94A2199B01AC0169817A81A3
:100300008B819C810E94DE1A0E947419162F20E0B6
:1003100030E0A901C701B6010E94D31A18161CF4D7
:10032000812F1FEF01C08FEF4EEF51E0612F0F9033
:100330000F900F900F90DF91CF911F910F91FF9031
:10034000EF90DF90CF90BF90AF909F908F907F9075
:100350006F905F904F900C94850E2F923F924F922A
:100360005F926F927F928F929F92AF92BF92CF9245
:10037000DF92EF92FF920F931F93CF93DF93CDB74E
:10038000DEB72B970FB6F894DEBF0FBECDBF1C01B2
:100390000E940A129A8389830E94C60B4C010E9414
:1003A000CB0B8C01A981BA81ED91FC912281338123
:1003B000448155812E833F83488759870E94210BB2
:1003C0002E813F8148855985B1010E94F30F9C839E
:1003D0008B838EE192E00E94600BF10181818F930B
:1003E00080818F9381E292E09F938F930E949F156B
:1003F000A981BA81ED91FC9100811181EB81FC8191
:10040000A280B380F2E0AF1AB108AA0CBB1C0F9017
:100410000F900F900F900215130509F408C1AB81DE
:10042000BC81ED91FC91EA0DFB1D808191819B8740
:100430008A87DC01ED91FC91B1E0BD838081833638
:1004400009F01D82EFEFFFEF2CE2E150F040204079
:10045000E1F700C00000A981BA81ED91FC912281F1
:10046000338144815581EA85FB8563897489858957
:1004700096890E943C180E946F19CB010E94D80BEC
:100480006D810E949F0EA801D40114966C9114975F
:1004900012968D919C9113970E94950B8F3FC1F0FE
:1004A0004A855B85F4016481828193810E94950B6A
:1004B0008F3F71F0AEE2B2E0BF93AF930E94D614CB
:1004C0006A857B85C8010E94F5000F900F9098C047
:1004D000AA85BB8512962D913D914D915C91159702
:1004E000F80162817381848195810E943C182B01FF
:1004F0003C01AA85BB8516962D913D914D915C914D
:100500001997F80166817781808591850E943C1852
:100510006B017C014A855B85D40114966C9114971C
:1005200012968D919C9113970E94950B8F3F21F10C
:10053000A3019201C301B2010E94DE1A2B013C010A
:10054000A7019601C701B6010E94DE1A9B01AC010A
:10055000C301B2010E943D180E94911B20E030E0CF
:1005600040E251E40E94DE1A0E946F19AB0144512F
:10057000510966EE86EE42C0BD81A3019201C3011E
:10058000B201BB23F1F00E94DE1A2B013C01A7014E
:100590009601C701B6010E94DE1A9B01AC01C3019E
:1005A000B2010E943D180E94911B20E030E040E221
:1005B00051E40E94DE1A0E946F19AB014A505109A2
:1005C0001BC00E94DE1A2B013C01A7019601C70146
:1005D000B6010E94DE1A9B01AC01C301B2010E9468
:1005E0003D180E94911B20E030E040E251E40E945F
:1005F000DE1A0E946F19AB0160EF80EF0E94850E3A
:10060000E981FA8120813181EA85FB85838994899A
:10061000A589B689F90182839383A483B583118365
:100620000083F2E0AF1AB1080A851B85F4CEA981D8
:10063000BA81ED91FC91118300838B819C812B9673
:100640000FB6F894DEBF0FBECDBFDF91CF911F91E3
:100650000F91FF90EF90DF90CF90BF90AF909F9061
:100660008F907F906F905F904F903F902F900C9461
:100670008911CF93DF93EC016091CA037091CB0392
:10068000888199810E94541E892B31F4D093C9032B
:10069000C093C80381E001C080E0DF91CF9108954D
:1006A0008F929F92AF92BF92CF92DF92EF92FF9282
:1006B0000F931F93CF93DF9300D01F92CDB7DEB778
:1006C0004B015C018AE190E029833A834B835C8390
:1006D0000E942D1D6C01FC0182829382A482B5824E
:1006E00029813A814B815C812683378340875187FA
:1006F0000287F182E0821386178A108A112707FD8C
:100700001095C801880F991F0E942D1DF601918F29
:10071000808FB12C8B2D90E08017910784F4880F87
:10072000991FF601E08CF18CE80EF91E86E090E04E
:100730000E942D1DF70191838083B394EBCFE0914C
:10074000CC03F091CD0382818F5F8283C6010F902D
:100750000F900F900F90DF91CF911F910F91FF900D
:10076000EF90DF90CF90BF90AF909F908F900895C3
:10077000EF92FF921F93CF93DF93EC019B85FB01D8
:100780008385F88DE98DAF2FBE2FA90FB11DA90F5D
:10079000B11DED91FC91119775836483FB01108D60
:1007A000918DE12EF92EE80EF11CE80EF11CF701F7
:1007B00080819181FC01D583C4830D90BC91A02DD3
:1007C000F70180819181FC0120833183428353832F
:1007D0002D933D934D935C9313978B858F5F8B8700
:1007E000FB0183858F5F8387DF91CF911F91FF90FE
:1007F000EF9008952F923F924F925F926F927F9267
:100800008F929F92AF92BF92CF92DF92EF92FF9220
:100810000F931F93CF93DF93CDB7DEB7C855D109A0
:100820000FB6F894DEBF0FBECDBF0E940A129093A0
:10083000CF038093CE0385E090E00E942D1D8C01B4
:100840009093C7038093C60388E0D80114968C93D5
:1008500080E190E00E942D1DF8019383828383E064
:1008600090E00E942D1D9093CD038093CC03DC017A
:1008700012961C9241E5E42E42E0F42E01E020E0C5
:1008800030E040EE50E460E070E084EB92EC0E94D7
:1008900050039CAB8BAB54E5E52E52E0F52E20E0E7
:1008A00030E040EE50E460E070E080E992EC0E94BD
:1008B00050039EAB8DAB67E5E62E62E0F62E20E09E
:1008C00030E040EE50E460E070E088E592EC0E9499
:1008D000500398AF8FAB7AE5E72E72E0F72E20E059
:1008E00030E040EE50E460E070E080E192EC0E9485
:1008F00050039AAF89AFEDE5EE2EE2E0FE2E20E048
:1009000030E040EE50E460E070E080E991EC0E945D
:1009100050039CAF8BAFF0E6EF2EF2E0FF2E20E00D
:1009200030E040EE50E460E070E080E991E40E9445
:1009300050039EAF8DAFA3E6EA2EA2E0FA2E20E090
:1009400030E040EE50E460E070E080E192E40E942C
:10095000500321969FAF8EAF2197B6E6EB2EB2E003
:10096000FB2E20E030E040EE50E460E070E088E5EF
:1009700092E40E94500323969FAF8EAF239719E60F
:10098000E12E12E0F12E20E030E040EE50E460E095
:1009900070E080E992E40E94500325969FAF8EAFED
:1009A00025978CE6E82E82E0F82E20E030E040EE3D
:1009B00050E460E070E084EB92E40E9450032796DC
:1009C0009FAF8EAF279790E7E92E92E0F92E02E0D5
:1009D00020E030E048EC51E460E070E084EB92EC21
:1009E0000E94500398AB8FA723E7E22E22E0F22E5D
:1009F00003E020E030E048EC51E460E070E080E9A2
:100A000092EC0E9450039A87898736E7E32E32E002
:100A1000F32E20E030E048EC51E460E070E088E53F
:100A200092EC0E9450039C878B8746E4E42E42E0C0
:100A3000F42E20E030E048EC51E460E070E080E12A
:100A400092EC0E9450039E878D8759E7E52E52E075
:100A5000F52E20E030E048EC51E460E070E080E901
:100A600091EC0E945003988B8F876CE7E62E62E032
:100A7000F62E20E030E048EC51E460E070E080E9E0
:100A800091E40E9450039A8B898B73E4E72E72E005
:100A9000F72E20E030E048EC51E460E070E080E1C7
:100AA00092E40E9450039C8B8B8BEFE7EE2EE2E0EA
:100AB000FE2E20E030E048EC51E460E070E088E594
:100AC00092E40E9450039E8B8D8BF2E8EF2EF2E0B1
:100AD000FF2E20E030E048EC51E460E070E080E977
:100AE00092E40E945003988F8F8BA5E8EA2EA2E033
:100AF000FA2E02E020E030E048EC51E460E070E0E3
:100B000084EB92E40E9450039AAB89ABB9E4EB2EDC
:100B1000B2E0FB2E01E020E030E0A901CA01B901FA
:100B20000E9450039A8F898F1EE1E12E12E0F12E70
:100B300004E020E030E048EC51E460E070E0CB01FC
:100B40000E94500369969FAF8EAF699789E8E82E9F
:100B500082E0F82E20E030E042E852E460E070E00D
:100B6000CB010E9450039A8389839CE8E92E92E08E
:100B7000F92E03E020E030E042E852E460E070E06B
:100B80008CE092EC0E9450039C838B832FE8E22E32
:100B900022E0F22E20E030E043EC52E460E070E02E
:100BA00087E892EC0E9450039E838D8332E9E32E06
:100BB00032E0F32E20E030E844E053E460E070E0FF
:100BC00087E892EC0E9450039C8F8B8F45E9E42EBE
:100BD00042E0F42E20E030E847E253E460E070E0C9
:100BE00087E892EC0E94500398878F8358E9E52E9E
:100BF00052E0F52E20E030E048E453E460E070E09D
:100C00008CE092EC0E9450032C016BE9E62E62E02E
:100C1000F62E20E030E048E453E460E070E0CB01E1
:100C20000E9450039E8F8D8F7EE9E72E72E0F72E93
:100C300020E030E048E453E460E070E08CE092E4CF
:100C40000E9450033C01E1EAEE2EE2E0FE2E20E09D
:100C500030E847E253E460E070E087E892E40E9405
:100C600050034C01F5EAEF2EF2E0FF2E20E030E8D1
:100C700044E053E460E070E087E892E40E945003AF
:100C800098A38F8FA9EAEA2EA2E0FA2E20E030E0A6
:100C900043EC52E460E070E087E892E40E94500385
:100CA0005C01BDEAEB2EB2E0FB2E20E030E042E832
:100CB00052E460E070E08CE092E40E9450036C012A
:100CC00011EBE12E12E0F12E20E030E04DEC52E489
:100CD00060E070E0CB010E9450039AA389A385EBEA
:100CE000E82E82E0F82E20E030E844E053E460E0B3
:100CF00070E080EF91EC0E9450039CA38BA399EBD2
:100D0000E92E92E0F92E20E030E842E253E460E080
:100D100070E0CB010E9450039EA38DA32DEBE22E29
:100D200022E0F22E20E030E844E053E460E070E09E
:100D300080EF91E40E94500398A78FA331ECE32E3B
:100D400032E0F32E04E020E030E844E053E460E0D9
:100D500070E0CB010E9450031C0145ECE42E42E000
:100D6000F42E00E020E030E044E352E460E070E084
:100D700084E592EC0E9450035AECE52E52E0F52EE9
:100D800020E030E044E352E460E070E088E891EC79
:100D90000E9450036FECE62E62E0F62E20E030E079
:100DA00047EE52E460E070E08FEA92EC0E9450035C
:100DB00074EDE72E72E0F72E20E030E04FE952E4C8
:100DC00060E070E08FEA92EC0E945003E9EDEE2EB5
:100DD000E2E0FE2E20E030E849E353E460E070E01A
:100DE0008FEA92EC0E945003FEEDEF2EF2E0FF2E10
:100DF00020E030E845E153E460E070E08FEA92ECF7
:100E00000E945003A3EEEA2EA2E0FA2E20E030E08A
:100E10004CE553E460E070E088E891EC0E945003F8
:100E2000B8EEEB2EB2E0FB2E20E030E04CE553E4D0
:100E300060E070E084E592EC0E9450031DEEE12E2C
:100E400012E0F12E20E030E04CE553E460E070E089
:100E500084E592E40E94500382EFE82E82E0F82EAF
:100E600020E030E04CE553E460E070E088E891E495
:100E70000E94500397EFE92E92E0F92E20E030E82F
:100E800045E153E460E070E08FEA92E40E94500391
:100E90002CEFE22E22E0F22E20E030E849E353E48A
:100EA00060E070E08FEA92E40E94500331E0E32EAC
:100EB00033E0F32E20E030E04FE952E460E070E0F0
:100EC0008FEA92E40E94500346E0E42E43E0F42EC1
:100ED00020E030E047EE52E460E070E08FEA92E418
:100EE0000E9450035BE0E52E53E0F52E20E030E059
:100EF00044E352E460E070E088E891E40E9450032B
:100F000060E1E62E63E0F62E20E030E044E352E4B8
:100F100060E070E084E592E40E94500375E1E72E02
:100F200073E0F72E01E020E030E044E352E460E0BB
:100F300070E08CE092EC0E94500329969FAF8EAF38
:100F40002997E8E1EE2EE3E0FE2E20E030E043ECCE
:100F500052E460E070E08FEA92EC0E9450032B961E
:100F60009FAF8EAF2B97FBE1EF2EF3E0FF2E20E03B
:100F700030E847E253E460E070E08FEA92EC0E94D0
:100F800050032D969FAF8EAF2D97AEE1EA2EA3E0D2
:100F9000FA2E20E030E04CE553E460E070E08CE0B5
:100FA00092EC0E9450032F969FAF8EAF2F97B0E424
:100FB000EB2EB2E0FB2E20E030E04CE553E460E0A5
:100FC00070E08CE092E40E94500361969FAF8EAF78
:100FD000619711E2E12E13E0F12E20E030E847E2C4
:100FE00053E460E070E08FEA92E40E94500363965D
:100FF0009FAF8EAF639784E2E82E83E0F82E20E067
:1010000030E043EC52E460E070E08FEA92E40E944A
:10101000500365969FAF8EAF659797E2E92E93E0F8
:10102000F92E20E030E044E352E460E070E08CE030
:1010300092E40E94500367969FAF8EAF67972AE2B3
:10104000E22E23E0F22E03E020E030E04DEC52E40B
:1010500060E070E080EF91EC0E9450039AA789A7AE
:101060003DE2E32E33E0F32E20E030E842E253E4A9
:1010700060E070E080EF91EC0E9450039CA78BA78A
:1010800041E3E42E43E0F42E20E030E842E253E472
:1010900060E070E080EF91E40E9450039EA78DA76E
:1010A00055E3E52E53E0F52E20E030E04DEC52E420
:1010B00060E070E080EF91E40E9450038C012FE12A
:1010C00035E84BEC5FE369966EAD7FAD6997898D2E
:1010D0009A8D0E94B80323E333E343E95FE36F850E
:1010E000788969968EAD9FAD69970E94B80323E316
:1010F00033E343E95FE36BAD7CAD8F8598890E9454
:10110000B80323E333E343E95FE36D857E858F8591
:1011100098890E94B80323E333E343E95FE369ADB1
:101120007AAD8D859E850E94B80323E333E343E9BE
:101130005FE36B857C858D859E850E94B80323E3E4
:1011400033E343E95FE36FA978AD8B859C850E940B
:10115000B80323E333E343E95FE369857A858B854D
:101160009C850E94B80323E333E343E95FE36DA961
:101170007EA989859A850E94B80323E333E343E976
:101180005FE36FA578A989859A850E94B80323E358
:1011900033E343E95FE36BA97CA98FA598A90E947B
:1011A000B80323E333E343E95FE369897A89699606
:1011B0008EAD9FAD69970E94B80323E333E343E903
:1011C0005FE36DAD7EAD89899A890E94B80323E300
:1011D00033E343E95FE36B897C8989899A890E94BB
:1011E000B80323E333E343E95FE321966EAD7FADBC
:1011F00021978B899C890E94B80323E333E343E959
:101200005FE36D897E898B899C890E94B80323E303
:1012100033E343E95FE323966EAD7FAD23978D897A
:101220009E890E94B80323E333E343E95FE36F89B8
:10123000788D8D899E890E94B80323E333E343E9C7
:101240005FE325966EAD7FAD25978F89988D0E94BF
:10125000B80323E333E343E95FE369A97AA98F89FC
:10126000988D0E94B80323E333E343E95FE32796B5
:101270006EAD7FAD279789A99AA90E94B80323E391
:1012800033E343E250E469817A8169968EAD9FAD84
:1012900069970E94B80322E538EB4EE050E46B8179
:1012A0007C8189819A810E94B8032CE53FE842EA5B
:1012B0005FE329966EAD7FAD29978B819C810E945B
:1012C000B80325E83BEE41E750E46D817E818B81D8
:1012D0009C810E94B8032CE53FE842EA5FE32B962D
:1012E0006EAD7FAD2B978D819E810E94B80322E564
:1012F00038EB4EE050E46B8D7C8D8D819E810E9499
:10130000B80323EC35EF48E150E46BA17CA18B8D51
:101310009C8D0E94B80322E538EB4EE050E46F81CB
:1013200078858B8D9C8D0E94B8032CE53FE842EABE
:101330005FE32D966EAD7FAD2D978F8198850E94CE
:10134000B80325E83BEE41E750E4B2018F81988570
:101350000E94B8032CE53FE842EA5FE32F966EADAA
:101360007FAD2F97C2010E94B80322E538EB4EE013
:1013700050E46D8D7E8DC2010E94B80323EC35EFE1
:1013800048E150E46DA17EA18D8D9E8D0E94B80331
:1013900022E538EB4EE050E4B3018D8D9E8D0E9426
:1013A000B8032CE53FE842EA5FE361966EAD7FAD9E
:1013B0006197C3010E94B80325E83BEE41E750E482
:1013C000B401C3010E94B8032CE53FE842EA5FE3A1
:1013D00063966EAD7FAD6397C4010E94B80322E5AA
:1013E00038EB4EE050E46F8D78A1C4010E94B80341
:1013F00023EC35EF48E150E46FA178A58F8D98A1DB
:101400000E94B80322E538EB4EE050E4B5018F8D21
:1014100098A10E94B8032CE53FE842EA5FE3659695
:101420006EAD7FAD6597C5010E94B80325E83BEE20
:1014300041E750E4B601C5010E94B8032CE53FE83E
:1014400042EA5FE367966EAD7FAD6797C6010E9483
:10145000B80322E538EB4EE050E469817A81C60199
:101460000E94B80323EC35EF48E150E469A17AA16A
:1014700089819A810E94B80321EE3AE744EF5FE345
:1014800069A57AA589A19AA10E94B80321EE3AE73D
:1014900044EF5FE36BA17CA189A59AA50E94B803E4
:1014A00021EE3AE744EF5FE36BA57CA58BA19CA1FD
:1014B0000E94B80321EE3AE744EF5FE36DA17EA1FD
:1014C0008BA59CA50E94B80321EE3AE744EF5FE3A9
:1014D0006DA57EA58DA19EA10E94B80321EE3AE7DD
:1014E00044EF5FE36FA178A58DA59EA50E94B80388
:1014F00021EE3AE744EF5FE3B8018FA198A50E947F
:10150000B80321EE3AE744EF5FE369A17AA1C8018D
:101510000E94B8032DEC3CEC4CE250E4B10189A5EB
:101520009AA50E94B8032DEC3CEC4CE250E4B101CA
:101530008BA59CA50E94B8032DEC3CEC4CE250E43A
:10154000B1018DA59EA50E94B8032DEC3CEC4CE2A8
:1015500050E4B101C8010E94B803E091CC03F091BE
:10156000CD03898D9A8D91838083E091CE03F09194
:10157000CF030190F081E02D9183808380E090E0A3
:10158000A4EBB2E482839383A483B583E091C60382
:10159000F091C7030280F381E02DAB81BC81B18360
:1015A000A083E091C603F091C703228133818D812E
:1015B0009E81D90113969C938E9312972281338139
:1015C0008F819885D90115969C938E931497A2814B
:1015D000B38117965C924E921697A281B3811996A9
:1015E0007C926E921897A281B3811B969C928E92E8
:1015F0001A97A281B3811D96BC92AE921C97A281CC
:10160000B3811F96DC92CE921E9731822082C85AF7
:10161000DF4F0FB6F894DEBF0FBECDBFDF91CF9185
:101620001F910F91FF90EF90DF90CF90BF90AF9000
:101630009F908F907F906F905F904F903F902F90F2
:101640000895E091CE03F091CF030190F081E02D59
:10165000808191810895EF92FF920F931F93CF9312
:10166000DF93EC01E62E8A0181E0611180E08F8B2F
:10167000CE01F8011995F12C8F2D90E02B853327A1
:1016800027FD309582179307A4F4880F991FA88D22
:10169000B98DA80FB91FED91FC9184819581FC0152
:1016A00027892E1104C0A8016E2D0E942B0BF394E4
:1016B000E3CFDF91CF911F910F91FF90EF900895AD
:1016C000CF93DF93EC01E091CC03F091CD038081C7
:1016D00091811092C9031092C803C093CA03D0939A
:1016E000CB0349E353E0FC0167890E942B0B209157
:1016F000C8033091C9032115310599F4DF93CF93C5
:1017000089E393E09F938F930E949F15E091CC0310
:10171000F091CD03808191810F900F900F900F90E9
:1017200001C0C901DF91CF910895FC0180E08617C7
:1017300039F0219131912417350719F08F5FF7CFD8
:101740008FEF0895DF92EF92FF920F931F93CF9345
:10175000DF93D82EE92EEB018A01F8806F2D0E94CD
:10176000950B8F3F59F4ED2DFE2DEF0DF11DEF0D73
:10177000F11D1183008388818F5F8883DF91CF9172
:101780001F910F91FF90EF90DF9008958091C60315
:101790009091C70308958091CC039091CD03089553
:1017A0009F772AE037ED43E25CE30E94DE1A08955A
:1017B000853B91051CF088569140FACF8C342FEF71
:1017C00092071CF488599E4FF3CF089520E030E033
:1017D00044E353E40E94DE1A2BED3FE049E450E479
:1017E0000E9407190895CF92DF92EF92FF926B014A
:1017F0007C0120E030E0A9010E94031920E030E0E4
:1018000044EB53E487FF05C0C701B6010E943D18B1
:10181000EECFC701B601FF90EF90DF90CF900C9410
:10182000E419CF92DF92EF92FF926B017C0120E0EE
:1018300030E0A9010E9403192BED3FE049EC50E490
:1018400087FF0AC0C701B6010E943D18FF90EF90C4
:10185000DF90CF900C94F30BC701B601FF90EF908F
:10186000DF90CF900C94E4194F925F926F927F9229
:101870008F929F92AF92BF92CF92DF92EF92FF92A0
:101880000F931F93CF93DF93EC018B01E091C6037D
:10189000F091C7030190F081E02D82809380A480B5
:1018A000B580C680D780E084F1842A813B814C8159
:1018B0005D81C501B4010E943C182B013C012E81C1
:1018C0003F8148855985C701B6010E943C18A30194
:1018D00092010E94B0182B013C01F8012281338152
:1018E00044815581C501B4010E943C184B015C0143
:1018F000F8012681378140855185C701B6010E94D4
:101900003C18A50194010E94B0180E94110C6B01B3
:101910007C01C301B2010E94110C9B01AC01C70103
:10192000B6010E943C18DF91CF911F910F91FF905B
:10193000EF90DF90CF90BF90AF909F908F907F906F
:101940006F905F904F9008950E94340C20E030E03B
:10195000A9010E94D31A87FD02C081E008958FEF8C
:1019600008950E948C0F0E94C6130C943E120E9490
:101970006E0F91E0893208F490E0892F089583E09A
:1019800090E00E94B70C882311F081E0089582E076
:1019900090E00E94B70C8111F8CF81E090E00E94A6
:1019A000B70C91E0811101C090E0892F089582E089
:1019B00090E00C94B70C8F929F92AF92BF92CF920F
:1019C000DF92EF92FF921F93CF93DF935C01EB01C5
:1019D000BC01625E7F4F80E090E00E94A01928E485
:1019E00031EE42E850E40E9407190E9474196B011D
:1019F000E12CF12CB5016E51710980E090E00E945C
:101A0000A01928E431EE42E850E40E9407190E9430
:101A100074194B01A12CB12C0E94E5130E94DC1318
:101A2000FE011995811119C00E94F71390E0A0E002
:101A3000B0E011E0C816D906EA06FB0608F010E08F
:101A40000E94EE1390E0A0E0B0E0C816D906EA06C6
:101A5000FB06E0F0112321F319C00E94F71390E078
:101A6000A0E0B0E011E088169906AA06BB0608F0CF
:101A700010E00E94EE1390E0A0E0B0E08816990616
:101A8000AA06BB0628F0112379F202C0C0E001C00B
:101A9000C1E00E94C6128C2F90E0DF91CF911F9180
:101AA000FF90EF90DF90CF90BF90AF909F908F907E
:101AB00008952F923F924F925F926F927F928F92F2
:101AC0009F92AF92BF92CF92DF92EF92FF920F93CD
:101AD0001F93CF93DF93CDB7DEB72A970FB6F89455
:101AE000DEBF0FBECDBF182F062F4A01B22EBA019E
:101AF000882777FD8095982F0E94A21925EE30ED5A
:101B00004AEA50E40E9407190E9474196B017C0193
:101B1000B40164517109882777FD8095982F0E9440
:101B2000A21925EE30ED4AEA50E40E9407190E94FE
:101B300074192B013C010E94DC130E94E513812FD4
:101B400090E09A87898710E02B2D30E0AA24AA9490
:101B5000B12CA21AB30AF801E20FF31FFA83E9834A
:101B6000821B930B9C838B8389859A85820F931F9D
:101B70009E838D83F801E21BF30BF887EF830E94AD
:101B8000EE1390E0A0E0B0E099249394C816D90633
:101B9000EA06FB0608F0912C0E94F71390E0A0E003
:101BA000B0E0C816D906EA06FB0608F494C0911006
:101BB00092C082E090E00E94B70C81110BC0398482
:101BC0002A84902E812E83E090E00E94B70C811130
:101BD0002FC028C083E090E00E94B70C8823D9F082
:101BE0000E94EE1390E0A0E0B0E099249394481690
:101BF00059066A067B0608F0912C0E94F71390E0C4
:101C0000A0E0B0E0481659066A067B0608F463C0F7
:101C10009920A9F260C081E090E00E94B70C811188
:101C2000DFCFCDCF8091AE039091AF03892B49F0E8
:101C3000A016B1061CF43B802C8024C099808A80B9
:101C400021C081E090E00E94B70C811106C0809114
:101C5000AA039091AB03892B59F089859A85A81620
:101C6000B9061CF49F8088840DC03D802E800AC078
:101C700083E090E00E94B70C882321F081E090E09F
:101C80000E94B70C83E090E00E94B70C992787FD73
:101C900090959093AF038093AE0381E090E00E9413
:101CA000B70C992787FD90959093AB038093AA0377
:101CB000692D782D6F3F710519F014F06FEF70E00A
:101CC000832D922D8F3F910519F014F08FEF90E046
:101CD0000E94A91254CF2A960FB6F894DEBF0FBE09
:101CE000CDBFDF91CF911F910F91FF90EF90DF90CB
:101CF000CF90BF90AF909F908F907F906F905F90AC
:101D00004F903F902F900C94C612CF93DF9300D04A
:101D10001F92CDB7DEB74B835C836A8389830E94B1
:101D2000AE12209101024B815C816A8189810F9002
:101D30000F900F900F90DF91CF910C94590DCF928F
:101D4000DF92EF92FF920F931F93CF93DF938C015B
:101D5000611103C0CFEBDCE002C0C7EDDCE060EF57
:101D600080EF0E94A912101611060CF045C00E94C7
:101D7000B412BE01C8010E94DB0C52EEE52EFF2416
:101D8000FA94E01AF10A0197A1F060EF80EF0E9447
:101D9000A912C7010E94CF134CE350E06FEF8FEF01
:101DA0000E94850E0E94B412BE01C8010E94DB0C85
:101DB000EACF0E94C6120E940A12FC01C081D181A2
:101DC000B801882777FD8095982F0E94A2199B0162
:101DD000AC016A817B818C819D810E943D186A8360
:101DE0007B838C839D83DF91CF911F910F91FF9017
:101DF000EF90DF90CF90089501151105D1F20E9468
:101E0000B712EE24FF24E01AF10ABE01C7010E94B6
:101E1000DB0C6801FEE1CF0ED11C019751F260EF9F
:101E200080EF0E94A912C6010E94CF134CE350E03C
:101E30006FEF8FEF0E94850E0E94B712BE01C7019F
:101E40000E94DB0CEACFCF93DF9300D01F92CDB777
:101E5000DEB74B835C836A8389830E94B112209131
:101E600000024B815C816A8189810F900F900F90F5
:101E70000F90DF91CF910C94590D10BA11BA1092B6
:101E800007011092080108950C943D0FE1E2F1E082
:101E900010828FEF8093250191E09093240110929E
:101EA00029018093280110922B0180932A0110921E
:101EB0002D0180932C0189EA809320018BE080839F
:101EC0000895EAE7F0E0108210927B0080E28093B0
:101ED0007C0080E880BF86E880830895883018F011
:101EE00098E090937B008770806280937C00809163
:101EF0007A00806480937A0080917A0084FFFCCF1E
:101F00008091790090917A00906190937A0010927C
:101F10007B0008950C946E0FF8940E943D0F0E9470
:101F2000610F0E94460F7894089540E050E060E809
:101F30007FE7FC014487558766877787108A80E0B2
:101F400008952F923F924F925F926F927F928F925D
:101F50009F92AF92BF92CF92DF92EF92FF920F9338
:101F60001F93CF93DF936B017C01A12CB12C912C9B
:101F7000812C80E8782E9FE7692E00E010E00C1598
:101F80001D05ECF4F701C191D1917F018889811180
:101F900013C02C843D844E845F84292D382D472D19
:101FA000562DB101C2010E94031987FF05C05E01D1
:101FB000922C832C742C652C0F5F1F4FE0CFC50132
:101FC000DF91CF911F910F91FF90EF90DF90CF9015
:101FD000BF90AF909F908F907F906F905F904F9049
:101FE0003F902F9008952F923F924F925F926F9261
:101FF0007F928F929F92AF92BF92CF92DF92EF9299
:10200000FF920F931F93CF93DF93CDB7DEB72F9738
:102010000FB6F894DEBF0FBECDBF4C015B01690166
:102020007A01198288E090E00E942D1D1C01D801E0
:1020300012968C91880F990B0E942D1DF1019183AE
:102040008083138212828A149B0429F414821582DD
:102050001682178244C10E94C60B45E95FE0F40175
:102060006789C4010E942B0BD80112968C91880FAE
:10207000990B0E942D1D9F838E83F4011486158673
:102080001686178681E0808BC38AD48AE58AF68A11
:102090008114910429F0A114B10411F0012B91F4E1
:1020A0008DE593E00E945D1E80E090E0A0E8BFE730
:1020B000F10184839583A683B7838E819F810E94DB
:1020C000C51D0DC1840120E137E239872887E1E091
:1020D000D8015096EC931D821C82D8011B968C91DE
:1020E000992787FD9095EC81FD81E817F9070CF0A1
:1020F000A7C02C813D81220F331F3B872A87D8013F
:102100005896ED91FC915997E20FF31F0190F081E1
:10211000E02D248135813B832A831C964D905D9070
:102120006D907C901F97D90150968C91813009F465
:1021300081C0D80153968D919D910D90BC91A02D99
:102140008C879D87AE87BF87F801228133814481C8
:102150005581AA81BB8112966D917D918D919C9143
:1021600015970E943C186B017C01F801268137818C
:1021700040855185AA81BB8116966D917D918D9187
:102180009C9119970E943C18A70196010E94B018D3
:102190000E94E60B6B017C019B01AC016C857D8587
:1021A0008E859F850E943C180E94D00B9B01AC013C
:1021B000C301B2010E943D18D8015896ED91FC91DF
:1021C00059972A853B85E20FF31F0190F081E02D9E
:1021D00020813181428153810E943D182B013C01B5
:1021E000AA81BB811C962D913D914D915C911F97C9
:1021F0000E94031987FF1EC0EA81FB814486558631
:1022000066867786C701B6010E94F30BAA81BB815F
:1022100053966D937D938D939C93569752961C93F2
:102220000E935197AD01BE016F5F7F4F8E819F81ED
:102230000E94A20BEC81FD813196FD83EC834DCF92
:10224000698170E08E819F810E94A10F8C01288599
:1022500039852150310939872887232B29F485E9CD
:1022600093E00E945D1E04C08A159B0509F02FCFE4
:102270008E819F810E94C51DF50184859585A68567
:10228000B785F10184839583A683B7832281338147
:10229000C901880F991F0190F081E02DE80FF91F07
:1022A000B182A0822F5F3F4FD10113963C932E93B2
:1022B0001297C901880F991FF501A188B288D10131
:1022C000ED91FC91E80FF91FB182A0822F5F3F4F83
:1022D0000296A814B90481F7F10133832283C10166
:1022E0002F960FB6F894DEBF0FBECDBFDF91CF9112
:1022F0001F910F91FF90EF90DF90CF90BF90AF9024
:102300009F908F907F906F905F904F903F902F9015
:102310000895CF93DF93EC01888199810E94C51DB8
:10232000CE01DF91CF910C94C51D0F931F93CF93D6
:10233000DF938AE090E00E942D1D8C019093D503DD
:102340008093D40386E090E00E942D1DD8018D93E8
:102350009C9382E190E00E942D1DEC01F80197838F
:10236000868382E190E00E942D1DFC01D801199620
:102370009C938E93189740E050E064EB72EC1296B9
:102380004D935D936D937C931597198A188A4883B2
:1023900059836A837B8382E090E09D838C838CE306
:1023A00090E09F838E8387E890E09987888781E01B
:1023B00090E09B878A8788E290E09D878C878BE9F5
:1023C00090E09F878E87118A108A40E050E064EB8E
:1023D00072E4408351836283738383E090E095834A
:1023E000848382E890E0978386838FE590E09187ED
:1023F000808784E090E09387828780EA90E09587E9
:10240000848784E190E097878687DF91CF911F9141
:102410000F9108958091D4039091D503089581B1CF
:102420008F6081B982B1807F82B9EAE0F1E080817A
:1024300088618083EBE0F1E080818861808308958A
:102440006C98749A08956D98759A08950E940F1269
:102450000E9420120C942312F894EAE6F0E08081A6
:1024600082608083EC9A78940895F894EAE6F0E02C
:10247000808188608083ED9A78940895E1E2F1E0AC
:1024800010828FEF8093250191E0909324011092A8
:1024900029018093280110922B0180932A01109228
:1024A0002D0180932C0189EA809320018BE08083A9
:1024B00008951F920F920FB60F9211248F939F933E
:1024C000AF93BF938091B7039091B803A091B903E4
:1024D000B091BA030196A11DB11D8093B7039093EB
:1024E000B803A093B903B093BA03BF91AF919F9182
:1024F0008F910F900FBE0F901F9018951F920F9203
:102500000FB60F9211248F939F93AF93BF93809137
:10251000BB039091BC03A091BD03B091BE03019693
:10252000A11DB11D8093BB039093BC03A093BD0379
:10253000B093BE03BF91AF919F918F910F900FBE4B
:102540000F901F90189592B1907F8F70892B82B950
:1025500008958093280160932A01089586E00C94E1
:10256000A31289E00C94A31285E00C94A3128AE0D4
:102570000C94A31284E00C94A31282E00C94A31296
:1025800081E00C94A31288E00C94A31280E00C94D8
:10259000A3120F931F93BC0180E090E00E94A0194A
:1025A00028E431EE42E850E40E9407190E947419B1
:1025B000CB01A0E0B0E01092B7031092B8031092E4
:1025C000B9031092BA031092BB031092BC0310928D
:1025D000BD031092BE034091B7035091B8036091C0
:1025E000B9037091BA030091BB031091BC03209111
:1025F000BD033091BE03081719072A073B0728F4CB
:10260000481759076A077B0730F31F910F910C9405
:10261000C612CF92DF92EF92FF920F931F93BC01ED
:1026200080E090E00E94A01925EE30ED4AEA50E4E7
:102630000E9407190E9474191092B7031092B803F0
:102640001092B9031092BA031092BB031092BC030C
:102650001092BD031092BE030091B7031091B8030E
:102660002091B9033091BA03C090BB03D090BC0352
:10267000E090BD03F090BE036C157D058E059F05AF
:1026800028F0601771078207930730F71F910F91A9
:10269000FF90EF90DF90CF900C94C612CF93DF9312
:1026A0001F921F92CDB7DEB789839A830E94AE1224
:1026B00089819A810F900F90DF91CF910C9409132B
:1026C000CF93DF931F921F92CDB7DEB789839A8392
:1026D0000E94B11289819A810F900F90DF91CF9162
:1026E0000C940913CF93DF931F921F92CDB7DEB7DF
:1026F00089839A830E94B41289819A810F900F90E6
:10270000DF91CF910C94C912CF93DF931F921F9248
:10271000CDB7DEB789839A830E94B71289819A81E7
:102720000F900F90DF91CF910C94C912CF93DF934C
:10273000EC010E94BA12CE01880F991FDF91CF9150
:102740000C94C912CF93DF93EC010E94BD12CE010D
:10275000880F991FDF91CF910C94C912CF93DF930B
:10276000EC010E94C012CE01880F991FDF91CF911A
:102770000C94C912CF93DF93EC010E94C312CE01D7
:10278000880F991FDF91CF910C94C912F8940E9481
:1027900026120E942C120E94351278940895181661
:1027A00019061CF40E94721305C091958195910938
:1027B0000E9484130C94C6121092B7031092B803AF
:1027C0001092B9031092BA0308951092BB031092AD
:1027D000BC031092BD031092BE0308958091B7030D
:1027E0009091B803A091B903B091BA030895809174
:1027F000BB039091BC03A091BD03B091BE030895AB
:1028000087B1876F87B988B1807888B908950C94AB
:102810000014F8940E9400147894089586E69EE0CF
:102820000197F1F700004098419880E388B9429AF7
:102830008FEF97E40197F1F700C00000429886E619
:102840009EE00197F1F700004098419880E388B935
:10285000429A8FEF97E40197F1F700C00000429889
:1028600086E69EE00197F1F700004098419880E3EA
:1028700088B9429A8FEF97E40197F1F700C0000002
:10288000429886E69EE00197F1F700004098419853
:1028900080E288B9429A86E69EE00197F1F700004F
:1028A0004298089598B19F7098B928B1982F907F59
:1028B000922B98B940984198429AEFEFF7E43197FC
:1028C000F1F700C00000429898B19F7098B998B194
:1028D0008295807F892B88B940984198429A8FEFE2
:1028E00097E40197F1F700C00000429808950E9414
:1028F00009140E940E1486E69EE00197F1F700008D
:1029000088E20E94521481E00E94521486E00E94E4
:1029100052148EE00E94521480E80C94521498B124
:102920009F7098B928B1982F907F922B98B9409AB0
:102930004198429AEFEFF7E43197F1F700C00000B9
:1029400042988295807F98B19F7098B998B1892BF1
:1029500088B9409A4198429A8FEF97E40197F1F72E
:1029600000C000004298089580E80C945214EF9241
:10297000FF921F93CF93DF931F92CDB7DEB7182F2F
:1029800081E099830E945214E12E9981F92EF7017A
:1029900081917F01882319F00E948F14F8CF0F9046
:1029A000DF91CF911F91FF90EF900895CF93DF9328
:1029B000CDB7DEB760970FB6F894DEBF0FBECDBFC0
:1029C000FE017696419151919F0160E170E0CE0148
:1029D00001960E948A1ECE0101960E94B7142FEF25
:1029E0008FE796E1215080409040E1F700C0000061
:1029F00060960FB6F894DEBF0FBECDBFDF91CF91CA
:102A00000895982F862F923059F01CF4913031F0B0
:102A10000895933039F0943039F00895815805C005
:102A2000815403C08D5601C08D520C9452140F93E3
:102A30001F93CF93DF938A01E901882311F061117D
:102A400003C00E94B41402C00E940115C530D10514
:102A500079F4C80160E177E20E94C41C605D7F4F99
:102A60007093D9036093D803862F0E948F1403C0FC
:102A7000C430D10559F5C80168EE73E00E94C41C4A
:102A8000CB017093DB036093DA036AE070E00E948D
:102A9000C41CC0969093E3038093E2030E948F14BA
:102AA000C80164E670E00E94C41CCB017093DB0394
:102AB0006093DA036AE070E00E94C41CC0969093B1
:102AC000DF038093DE030E948F1406C0C330D1055C
:102AD00039F3C230D10551F52AE030E0C801B9011F
:102AE0000E94C41CCB017093DB036093DA03B9012D
:102AF0000E94C41CC0969093DD038093DC030E9467
:102B00008F14C8016AE070E00E94C41CC0969093C4
:102B1000E1038093E0030E948F1426975CF085E424
:102B2000DF91CF911F910F910C948F14C130D1057B
:102B3000A1F7E7CFDF91CF911F910F910895CF9328
:102B4000DF93CDB7DEB760970FB6F894DEBF0FBE48
:102B5000CDBFFE017696419151919F0160E170E0F9
:102B6000CE0101960E948A1ECE0101960E94B714E2
:102B70002FEF8FEF9CE2215080409040E1F700C0A2
:102B8000000080E090E060960FB6F894DEBF0FBEC4
:102B9000CDBFDF91CF9108950895CF93DF93EC01DE
:102BA0002091040230910502442737FD4095542FAF
:102BB0006091C2037091C3038091C4039091C503D7
:102BC0000E94EC1C8091020290910302B901681BE3
:102BD000790B6530710514F4BE0102C0BE01C90154
:102BE000DF91CF910C94B117E1E9F0E010821092DF
:102BF0009500109294008091EC038093990080914D
:102C0000E803809398008091E90380939B00809172
:102C1000EF0380939A008091E40380939D0080915C
:102C2000E70380939C0010929700109296001092F8
:102C30009000109292008CE0808308951F920F9272
:102C40000FB60F9211240BB60F922F933F934F9311
:102C50005F936F937F938F939F93AF93BF93EF9304
:102C6000FF9381E090E00E94CD158091BF03811118
:102C700013C08091C2039091C303A091C403B0918B
:102C8000C5030196A11DB11D8093C2039093C30398
:102C9000A093C403B093C503FF91EF91BF91AF918F
:102CA0009F918F917F916F915F914F913F912F9164
:102CB0000F900BBE0F900FBE0F901F9018951F9294
:102CC0000F920FB60F9211240BB60F922F933F93D2
:102CD0004F935F936F937F938F939F93AF93BF9324
:102CE000EF93FF9382E090E00E94CD15FF91EF916A
:102CF000BF91AF919F918F917F916F915F914F9114
:102D00003F912F910F900BBE0F900FBE0F901F9011
:102D100018951F920F920FB60F9211240BB60F92B7
:102D20002F933F934F935F936F937F938F939F93D3
:102D3000AF93BF93EF93FF9383E090E00E94CD1594
:102D4000FF91EF91BF91AF919F918F917F916F9183
:102D50005F914F913F912F910F900BBE0F900FBE3F
:102D60000F901F9018958091C0039091C103089512
:102D700081E08093BF0308958091C2039091C303C3
:102D8000909303028093020208952091ED03309105
:102D9000EE03232B51F49093EE038093ED03709395
:102DA000C1036093C00381E0089580E008952091FD
:102DB000040230910502442737FD4095542F60915D
:102DC000C2037091C3038091C4039091C5030E9414
:102DD000EC1CC90108951092C2031092C303109213
:102DE000C4031092C5030895CF92DF92EF92FF9231
:102DF0002091060230910702442737FD4095542F59
:102E0000609108027091090280910A0290910B0270
:102E10000E94EC1CC0900402D0900502EE24D7FC66
:102E2000E094FE2CCA01B901A70196010E94EC1C96
:102E3000B9013093EB032093EA033093EC03209322
:102E4000E803882777FD8095982F0E94A2196B01CF
:102E50007C012BEA3AEA4AE25FE30E94DE1A0E9412
:102E60006F196093F0037093F1037093E90360931B
:102E7000EF032BEA3AEA4AEA5EE3C701B6010E9491
:102E8000DE1A0E946F196093E5037093E603709356
:102E9000E4036093E7030E946417F8940E94F4151A
:102EA0008EE0809371007894FF90EF90DF90CF9048
:102EB00008958AB1806F8AB9E4E0F1E080818FEFF4
:102EC000808308950C945917F8940E9459177894A8
:102ED0000895CF93DF93CDB7DEB764970FB6F8941C
:102EE000DEBF0FBECDBF23E030E03A8329832FE958
:102EF00030E03C832B8325E230E03E832D832DE0C0
:102F000030E038872F8329E930E03A87298729E4A0
:102F100030E03C872B8721E430E03E872D872FE18E
:102F200030E0388B2F8721E030E03A8B298B29E085
:102F300030E03C8B2B8B8A30910540F4FC01EE0F86
:102F4000FF1FEC0FFD1F8181928102C080E090E0A5
:102F500064960FB6F894DEBF0FBECDBFDF91CF9160
:102F600008950F931F93CF93DF9300D01F92CDB797
:102F7000DEB78C01615071098BB18F708BB92BB1A9
:102F800080E190E0062E01C0880F0A94EAF7282B12
:102F90002BB9882777FD8095982F0E94A2199B0155
:102FA000AC0160E070E080E291E40E94411B9B0173
:102FB000AC01B801882777FD8095982F29833A8343
:102FC0004B835C830E94A21929813A814B815C81E9
:102FD0000E9407190E946F19CB016AE070E00E94FD
:102FE000D81C0E946917809305010F900F900F90D5
:102FF0000F90DF91CF911F910F9108950E94F416C9
:103000000E9495110E94FA030E9477140E94B10C4D
:1030100084E392E09F938F930E949F152FEF8FEF91
:103020009CE2215080409040E1F700C0000080E425
:1030300092E00E94600B0E94AD0183E492E00E9446
:10304000600B0E94AD0186E492E00E94600B0E943A
:10305000AD0189E492E00E94600B0E94AD018BE417
:1030600092E09F938F930E94D6140F900F900F9031
:103070000F9080E090E008955058BB27AA270ED00B
:1030800058C249D230F04ED220F031F49F3F11F4B3
:103090001EF419C20EF4E095E7FB01C2E92F5AD2E3
:1030A00080F3BA17620773078407950718F071F465
:1030B0009EF572C20EF4E0950B2EBA2FA02D0B01D7
:1030C000B90190010C01CA01A0011124FF27591B6D
:1030D00099F0593F50F4503E68F11A16F040A22F73
:1030E000232F342F4427585FF3CF469537952795E4
:1030F000A795F0405395C9F77EF41F16BA0B620BE3
:10310000730B840BBAF09150A1F0FF0FBB1F661F29
:10311000771F881FC2F70EC0BA0F621F731F841F6C
:1031200048F4879577956795B795F7959E3F08F092
:10313000B3CF9395880F08F09927EE0F9795879551
:103140000895E9D158F080E891E009F49EEFEAD1C2
:1031500028F040E851E059F45EEF09C0B4C11CC248
:10316000E92FE078F7D168F3092E052AC1F3261775
:1031700037074807590738F00E2E07F8E02569F0A1
:10318000E025E0640AC0EF6307F8009407FADB016A
:10319000B9019D01DC01CA01AD01EF9347D0C9D14E
:1031A0000AD05F91552331F02BED3FE049E450FD0B
:1031B00049EC63CF0895DF93DD27B92FBF7740E84F
:1031C0005FE31616170648075B0710F4D92FEFD1F7
:1031D0009F938F937F936F93E2D2E4EEF0E076D1EA
:1031E000A8D12F913F914F915F91F4D1DD2349F008
:1031F0009058A2EA2AED3FE049EC5FE3D0785D27E2
:103200004DDFDF9196C127D108F481E008950CD0FD
:1032100090C188D140F07FD130F021F45F3F19F0A8
:103220003EC15111BAC14FC195D198F39923C9F349
:103230005523B1F3951B550BBB27AA2762177307BC
:10324000840738F09F5F5F4F220F331F441FAA1F70
:10325000A9F333D00E2E3AF0E0E830D09150504030
:10326000E695001CCAF729D0FE2F27D0660F771FDE
:10327000881FBB1F261737074807AB07B0E809F0C0
:10328000BB0B802DBF01FF2793585F4F2AF09E3F55
:10329000510568F004C181C15F3FECF3983EDCF357
:1032A000869577956795B795F7959F5FC9F7880FCE
:1032B000911D9695879597F90895E1E0660F771F20
:1032C000881FBB1F621773078407BA0720F0621BB1
:1032D000730B840BBA0BEE1F88F7E095089504D0AA
:1032E0006894B1115AC108953DD188F09F5790F06C
:1032F000B92F9927B751A0F0D1F0660F771F881F1B
:10330000991F1AF0BA95C9F712C0B13081F044D1B3
:10331000B1E0089541C1672F782F8827B85F39F051
:10332000B93FCCF3869577956795B395D9F73EF479
:1033300090958095709561957F4F8F4F9F4F089521
:10334000E89409C097FB3EF490958095709561953F
:103350007F4F8F4F9F4F9923A9F0F92F96E9BB27F5
:103360009395F695879577956795B795F111F8CF71
:10337000FAF4BB0F11F460FF1BC06F5F7F4F8F4FDC
:103380009F4F16C0882311F096E911C0772321F0D2
:103390009EE8872F762F05C0662371F096E8862F6A
:1033A00070E060E02AF09A95660F771F881FDAF7C1
:1033B000880F9695879597F90895ADD018F011F07C
:1033C000B1D038F480C0E9C0E92FC4D0B0F35523A0
:1033D000C9F3E7FB6217730784079507A8F199F310
:1033E000E92FFF2788232AF03197660F771F881F60
:1033F000DAF7952F5527442332F091505040220F91
:10340000331F441FD2F7BB27E91BF50B621B730B5D
:10341000840BB109C1F222F4620F731F841FB11D26
:1034200031972AF0660F771F881FBB1FEFCF91508F
:1034300050405AF041F0882332F0660F771F881F02
:1034400091505040C1F7939530C086957795679518
:103450009F5FD9F7F8CF990F0008550FAA0BE0E846
:10346000FEEF16161706E807F907C0F01216130646
:10347000E407F50798F0621B730B840B950B39F486
:103480000A2661F0232B242B252B21F408950A26EC
:1034900009F4A140A6958FEF811D811D089597F92C
:1034A0009F6780E870E060E008959F3F31F09150A1
:1034B00020F4879577956795B795880F911D969518
:1034C000879597F908959FEF80EC0895DF93CF9348
:1034D0001F930F93FF92EF92DF927B018C01689410
:1034E00005C0DA2EEF0176D0FE01E894A591259172
:1034F000359145915591AEF3EF01D0DDFE01970175
:10350000A801DA9479F7DF90EF90FF900F911F9167
:10351000CF91DF91089500240A9416161706180615
:103520000906089500240A941216130614060506C7
:103530000895092E0394000C11F4882352F0BB0F58
:1035400040F4BF2B11F460FF04C06F5F7F4F8F4FBB
:103550009F4F089557FD9058440F551F59F05F3FF6
:1035600071F04795880F97FB991F61F09F3F79F0A5
:1035700087950895121613061406551FF2CF469527
:10358000F1DF08C0161617061806991FF1CF8695A9
:103590007105610508940895E894BB27662777278D
:1035A000CB0197F9089557DF08F48FEF08959B0139
:1035B000AC0160E070E080E89FE329CE0BD0B9CF8A
:1035C000AADF28F0AFDF18F0952309F068CF7BCF92
:1035D0001124E3CFBFDFA0F3959FD1F3950F50E007
:1035E000551F629FF001729FBB27F00DB11D639FB5
:1035F000AA27F00DB11DAA1F649F6627B00DA11D5B
:10360000661F829F2227B00DA11D621F739FB00D00
:10361000A11D621F839FA00D611D221F749F332770
:10362000A00D611D231F849F600D211D822F762F09
:103630006A2F11249F5750408AF0E1F088234AF006
:10364000EE0FFF1FBB1F661F771F881F9150504052
:10365000A9F79E3F510570F022CF9FCF5F3FECF35B
:10366000983EDCF3869577956795B795F795E7953E
:103670009F5FC1F7FE2B880F911D9695879597F94F
:103680000895FA01EE0FFF1F30962105310599F1DB
:103690006115710561F48038BFE39B0749F16894B7
:1036A0009038810561F08038BFEF9B0741F0992386
:1036B00042F5FF3FE1053105210511F1E894089439
:1036C000E795D901AA2329F4AB2FBE2FF85FD0F3D9
:1036D00010C0FF5F70F4A695E0F7F73950F019F0CD
:1036E000FF3A38F49F779F930CD00F9007FC9058C7
:1036F00008953EF0E8CE60E070E080E89FE3089532
:103700004FE79F775F934F933F932F93BED02F91B7
:103710003F914F915F9152DF4AC011F40EF4D3CE26
:10372000C4CE20DFD0F39923D9F3CEF39F57550BA6
:1037300087FF69D00024A0E640EA900180585695A2
:10374000979528F4805C660F771F881F20F0261756
:103750003707480730F4621B730B840B202931298B
:103760004A2BA69517940794202531254A2758F708
:10377000660F771F881F20F026173707480730F499
:10378000620B730B840B200D311D411DA09581F739
:10379000B901842F9158880F9695879508959B01BC
:1037A000AC010CCF19F40EF07ACEF6CE8CCEDADE68
:1037B000C8F39638C0F707F80F92E8942BE33AEA7B
:1037C00048EB5FE709DF0F920F920F924DB75EB79C
:1037D0000F929BD0E1E1F1E079DE4F915F91EF91A3
:1037E000FF91E595EE1FFF1F49F0FE57E068442763
:1037F000EE0F441FFA95E1F74195550B0DD00F9050
:1038000007FED5CE089591505040660F771F881F50
:10381000D2F7089544CE49CEA5DEE8F39923D9F333
:10382000940F511DBBF39150504094F059F08823F0
:1038300032F0660F771F881F91505040C1F79E3FAE
:10384000510544F7880F911D9695879597F908952E
:103850005F3FACF0983E9CF0BB27869577956795C7
:10386000B79508F4B1609395C1F7BB0F58F711F401
:1038700060FFE8CF6F5F7F4F8F4F9F4FE3CF8DCEBD
:103880000EF013CE20CE68940ACE6CDEC8F39923D6
:10389000D1F3C6F3DF93CF931F930F93FF92C92FFA
:1038A000DD2788232AF02197660F771F881FDAF714
:1038B00020E030E040E85FEB9FE3883920F0803E75
:1038C00030F021968F77D9DBE9E3F1E003C0D5DB57
:1038D000E6E6F1E0FBDD8B01BE01EC01FB2E6F574C
:1038E00071097595771F880B990B2CDD28E132E75C
:1038F00041E35FE36FDEAF2D9801AE01FF900F91C2
:103900001F91CF91DF91CADB14CEFA01DC01AA0F1F
:10391000BB1F9B01AC01BF5728F422273327442744
:1039200050781FC0B75188F4AB2F002446953795C7
:103930002795011CA395D2F3002069F0220F331FB5
:10394000441FB395DAF30DD097CB61307105A0E831
:103950008A07B94630F49B01AC0166277727882790
:103960009078309621F020833183428353830895E9
:10397000991B79E004C0991F961708F0961B881FC1
:103980007A95C9F780950895AA1BBB1B51E107C022
:10399000AA1FBB1FA617B70710F0A61BB70B881FDF
:1039A000991F5A95A9F780959095BC01CD0108956E
:1039B00097FB072E16F4009407D077FD09D00E94DC
:1039C000C41C07FC05D03EF4909581959F4F089547
:1039D000709561957F4F0895052E97FB1EF4009416
:1039E0000E94031D57FD07D00E940B1D07FC03D04A
:1039F0004EF40C94031D50954095309521953F4F02
:103A00004F4F5F4F089590958095709561957F4FCA
:103A10008F4F9F4F0895A1E21A2EAA1BBB1BFD01D9
:103A20000DC0AA1FBB1FEE1FFF1FA217B307E4079D
:103A3000F50720F0A21BB30BE40BF50B661F771FF5
:103A4000881F991F1A9469F76095709580959095D5
:103A50009B01AC01BD01CF010895CF93DF9382306C
:103A6000910510F482E090E0E091F403F091F50309
:103A700020E030E0A0E0B0E0309739F140815181A2
:103A800048175907B8F04817590771F48281938194
:103A9000109729F013969C938E9312972CC09093B5
:103AA000F5038093F40327C02115310531F0421747
:103AB000530718F0A901DB0101C0EF019A01BD0114
:103AC000DF010280F381E02DD7CF21153105F9F018
:103AD000281B390B2430310580F48A819B816115C4
:103AE000710521F0FB019383828304C09093F50359
:103AF0008093F403FE01329644C0FE01E20FF31FEF
:103B00008193919322503109398328833AC02091BF
:103B1000F2033091F303232B41F420910E023091F4
:103B20000F023093F3032093F20320910C023091A3
:103B30000D022115310541F42DB73EB74091100219
:103B400050911102241B350BE091F203F091F30325
:103B5000E217F307A0F42E1B3F0B2817390778F064
:103B6000AC014E5F5F4F2417350748F04E0F5F1FC3
:103B70005093F3034093F2038193919302C0E0E0EA
:103B8000F0E0CF01DF91CF910895CF93DF930097BD
:103B900009F487C0FC01329713821282C091F403AA
:103BA000D091F503209781F420813181280F391FAE
:103BB0008091F2039091F3038217930779F5F093C4
:103BC000F303E093F2036DC0DE0120E030E0AE17B6
:103BD000BF0750F412964D915C9113979D014115CA
:103BE000510509F1DA01F3CFB383A28340815181FA
:103BF000840F951F8A179B0771F48D919C911197E3
:103C0000840F951F02969183808312968D919C91CB
:103C10001397938382832115310529F4F093F503DB
:103C2000E093F4033EC0D9011396FC93EE931297F0
:103C30004D915D91A40FB51FEA17FB0779F48081C0
:103C40009181840F951F0296D90111969C938E93B2
:103C50008281938113969C938E931297E0E0F0E01B
:103C60008A819B81009719F0FE01EC01F9CFCE010A
:103C7000029628813981820F931F2091F20330919F
:103C8000F3032817390769F4309729F41092F503E4
:103C90001092F40302C013821282D093F303C093F4
:103CA000F203DF91CF910895FB01DC018D9101902A
:103CB00080190110D9F3990B08950F931F93CF9397
:103CC000DF93E091F803F091F903238121FF1BC0FA
:103CD000EC0100E010E089916091F8037091F90324
:103CE000DB011896ED91FC911997882331F0199515
:103CF000892B89F30FEF1FEFEECF8AE01995892BFF
:103D000011F4C80102C08FEF9FEFDF91CF911F9197
:103D10000F9108950F931F93CF93DF93CDB7DEB725
:103D20002E970FB6F894DEBF0FBECDBF8C01CA012F
:103D300046E04C831A83098377FF02C060E070E895
:103D4000615071097E836D83A901BC01CE0101968A
:103D50000E94C31E4D815E8157FD0AC02F813885A8
:103D6000421753070CF49A01F801E20FF31F108277
:103D70002E960FB6F894DEBF0FBECDBFDF91CF9168
:103D80001F910F9108952F923F924F925F926F92E1
:103D90007F928F929F92AF92BF92CF92DF92EF92DB
:103DA000FF920F931F93CF93DF93CDB7DEB72C977E
:103DB0000FB6F894DEBF0FBECDBF7C016B018A0148
:103DC000FC0117821682838181FFBDC1CE0101965D
:103DD0004C01F7019381F60193FD859193FF819149
:103DE0006F01882309F4ABC1853239F493FD8591C5
:103DF00093FF81916F01853229F4B70190E00E9411
:103E0000D420E7CF512C312C20E02032A0F48B328B
:103E100069F030F4803259F0833269F420612CC0AB
:103E20008D3239F0803339F4216026C0226024605D
:103E300023C0286021C027FD27C030ED380F3A305D
:103E400078F426FF06C0FAE05F9E300D1124532E51
:103E500013C08AE0389E300D1124332E20620CC02E
:103E60008E3221F426FD6BC1206406C08C3611F41D
:103E7000206802C0883641F4F60193FD859193FFD6
:103E800081916F018111C1CF982F9F7D95549330FF
:103E900028F40C5F1F4FFFE3F9830DC0833631F028
:103EA000833771F0833509F05BC022C0F80180814F
:103EB00089830E5F1F4F44244394512C540115C035
:103EC0003801F2E06F0E711CF801A080B18026FF6E
:103ED00003C0652D70E002C06FEF7FEFC5012C8736
:103EE0000E94C9202C0183012C852F77222E17C018
:103EF0003801F2E06F0E711CF801A080B18026FF3E
:103F000003C0652D70E002C06FEF7FEFC5012C8705
:103F10000E94BE202C012C852068222E830123FCC8
:103F20001BC0832D90E048165906B0F4B70180E21B
:103F300090E00E94D4203A94F4CFF50127FC8591BB
:103F400027FE81915F01B70190E00E94D4203110DB
:103F50003A94F1E04F1A51084114510471F7E5C049
:103F6000843611F0893639F5F80127FF07C06081E2
:103F70007181828193810C5F1F4F08C060817181C4
:103F8000882777FD8095982F0E5F1F4F2F76B22ED2
:103F900097FF09C090958095709561957F4F8F4FE1
:103FA0009F4F2068B22E2AE030E0A4010E94062133
:103FB000A82EA81844C0853729F42F7EB22E2AE0F7
:103FC00030E025C0F22FF97FBF2E8F36C1F018F4F4
:103FD000883579F0B4C0803719F0883721F0AFC048
:103FE0002F2F2061B22EB4FE0DC08B2D8460B82E11
:103FF00009C024FF0AC09F2F9660B92E06C028E092
:1040000030E005C020E130E002C020E132E0F801FC
:10401000B7FE07C060817181828193810C5F1F4F61
:1040200006C06081718180E090E00E5F1F4FA401A7
:104030000E940621A82EA818FB2DFF77BF2EB6FEE2
:104040000BC02B2D2E7FA51450F4B4FE0AC0B2FC79
:1040500008C02B2D2E7E05C07A2C2B2D03C07A2C68
:1040600001C0752C24FF0DC0FE01EA0DF11D8081F9
:10407000803311F4297E09C022FF06C07394739423
:1040800004C0822F867809F0739423FD13C020FFAB
:1040900006C05A2C731418F4530C5718732C73144D
:1040A00068F4B70180E290E02C870E94D4207394DA
:1040B0002C85F5CF731410F4371801C0312C24FF70
:1040C00012C0B70180E390E02C870E94D4202C8599
:1040D00022FF17C021FF03C088E590E002C088E7F7
:1040E00090E0B7010CC0822F867859F021FD02C004
:1040F00080E201C08BE227FD8DE2B70190E00E94D3
:10410000D420A51438F4B70180E390E00E94D420B5
:104110005A94F7CFAA94F401EA0DF11D8081B701FA
:1041200090E00E94D420A110F5CF332009F451CEA5
:10413000B70180E290E00E94D4203A94F6CFF701D4
:104140008681978102C08FEF9FEF2C960FB6F8946F
:10415000DEBF0FBECDBFDF91CF911F910F91FF90BA
:10416000EF90DF90CF90BF90AF909F908F907F9017
:104170006F905F904F903F902F900895FC010590B5
:10418000615070400110D8F7809590958E0F9F1F59
:104190000895FC016150704001900110D8F780959E
:1041A00090958E0F9F1F08950F931F93CF93DF93CA
:1041B000182F092FEB018B8181FD03C08FEF9FEF3B
:1041C00020C082FF10C04E815F812C813D8142174B
:1041D00053077CF4E881F9819F012F5F3F4F3983BA
:1041E0002883108306C0E885F985812F1995892BCE
:1041F00029F72E813F812F5F3F4F3F832E83812FF1
:10420000902FDF91CF911F910F910895FA01AA2766
:10421000283051F1203181F1E8946F936E7F6E5F09
:104220007F4F8F4F9F4FAF4FB1E03ED0B4E03CD0B7
:10423000670F781F891F9A1FA11D680F791F8A1F9A
:10424000911DA11D6A0F711D811D911DA11D20D001
:1042500009F468943F912AE0269F11243019305DBB
:104260003193DEF6CF010895462F4770405D4193AC
:10427000B3E00FD0C9F7F6CF462F4F70405D4A33F9
:1042800018F0495D31FD4052419302D0A9F7EACFC1
:10429000B4E0A6959795879577956795BA95C9F7F0
:1042A00000976105710508959B01AC010A2E0694E3
:1042B0005795479537952795BA95C9F7620F731F9C
:0C42C000841F951FA01D0895F894FFCFE7
:1042CC007878FBFF320000010000E1000000FC03E5
:1042DC00200014003C0014001E001E00050072316A
:1042EC0000476F696E6720746F3A20257300437521
:1042FC007276650048656C6C6F20776F726C640029
:10430C0048350063370063340053004166746572AE
:10431C000050310050320050330050340050350002
:10432C0050360050370050380050390050313000B2
:10433C00633100633200633300633500633600631E
:10434C00380063390063313000723200723300720E
:10435C0034007235007236007237007238007239D0
:10436C0000723130007231310072313200723133EF
:10437C0000723134007231350072313600723137CF
:10438C000072313800483144410048314442004801
:10439C0032444100483244420048334441004833DF
:1043AC0044420048344441004834444200483544B7
:1043BC0041004835444200483644410048364442A6
:1043CC0000483744410048374442004838444100D3
:1043DC0048384442004831004832004833004834E1
:1043EC00004836004837004838004839004831301A
:1043FC000048313100483132004552524F523A2078
:10440C00666F756E645F6E6F646520666F722025D3
:10441C0073206973204E554C4C0A0A0A00455252BF
:10442C004F523A204E554C4C20706F696E74657229
:10443C0020666F7220736F75726365206F722074C3
:10444C006172676574202D2064696A6B7374726184
:10445C002E630A0A00546F6F206D616E79206974A7
:0A446C0065726174696F6E732100C0
:00000001FF
