:100000000C948D000C94AE000C94AE000C94AE00D9
:100010000C94AE000C9428120C9403120C94AE00B5
:100020000C94AE000C94AE000C94AE000C94AE0098
:100030000C94AE000C94AE000C94AE000C94AE0088
:100040000C94AE000C94AE000C94AE000C94AE0078
:100050000C94AE000C94AE000C94AE000C94AE0068
:100060000C94AE000C94AE000C94AE000C94AE0058
:100070000C94AE000C94AE000C94AE000C94AE0048
:100080000C94AE000C94AE000C94AE000C94AE0038
:100090000C94AE000C94AE000C94AE000C94AE0028
:1000A0000C94AE000C94AE000C94AE000C94AE0018
:1000B0000C94AE000C94AE000C94AE000C94AE0008
:1000C0000C94AE000C94AE000C94AE000C94AE00F8
:1000D0000C94AE000C94AE000C94AE000C94AE00E8
:1000E0000C94AE00084AD73B3BCE016E84BCBFFDEA
:1000F000C12F3D6C74319ABD56833DDA3D00C77FF8
:1001000011BED9E4BB4C3E916BAAAABE0000008090
:100110003F000C9419020C94420F11241FBECFEF24
:10012000D1E2DEBFCDBF00E00CBF13E0A0E0B2E043
:10013000EEE8FAE300E00BBF02C007900D92A83E84
:10014000B107D9F714E0A8EEB3E001C01D92A333C4
:10015000B107E1F70E9471150C94451D0C94000045
:100160000F931F93CF93DF931F921F92CDB7DEB7EC
:100170008C0169837A830E94DA0A69817A81C801D5
:100180000F900F90DF91CF911F910F910C943A0B2C
:100190002F923F924F925F926F927F928F929F9297
:1001A000AF92BF92CF92DF92EF92FF920F931F9385
:1001B000CF93DF93CDB7DEB72A970FB6F894DEBFA3
:1001C0000FBECDBF9C838B830E94B4114C010E9453
:1001D000DA0A1C010E94DF0A8C01D401ED91FC9126
:1001E00022813381448155812D833E834F835887FB
:1001F0000E94240A2D813E814F8158856B817C812C
:100200000E94A10F9A838983D401ED91FC916281B0
:100210007381848195810E94DC167F936F93E981BD
:10022000FA8164817581868197810E94DC167F93B3
:100230006F9386E192E09F938F930E947C14D40188
:10024000ED91FC91208131813A872987A981BA817A
:1002500012960D911C91139702501109000F111F56
:100260000F900F900F900F900F900F9089859A85A7
:10027000AB81BC818A179B0709F4AEC0A981BA8102
:10028000ED91FC91E00FF11FA080B180F10164813C
:10029000758149855A85828193810E94A30A0196BE
:1002A000E1F0D10114966D917C911597A5011296FC
:1002B0008D919C9113970E94A30A019671F0AAE276
:1002C000B2E0BF93AF930E947C14B50189859A85F3
:1002D0000E94B0000F900F9073C0D50112962D911F
:1002E0003D914D915C911597E985FA856281738105
:1002F000848195810E94A9152B013C01D501169698
:100300002D913D914D915C911997E985FA85668112
:100310007781808591850E94A9156B017C01D401AC
:10032000ED91FC912281338144815581F5016689EB
:100330007789808D918D0E94A9150E94DC16CB01D2
:100340000E94440DD4012D913C91F5018689978935
:10035000A08DB18DF90182839383A483B583A3011A
:100360009201C301B2010E944B182B013C01A7016D
:100370009601C701B6010E944B189B01AC01C30155
:10038000B2010E94AA150E94B21820E030E040E2BB
:1003900051E40E944B180E94DC16CB019F936F938F
:1003A000A0E3B2E0BF93AF936D839E830E947C1461
:1003B0008D819E810E94AD0E0F900F900F900F9037
:1003C000D401ED91FC9129853A8531832083025037
:1003D0001109BA86A9864ACFD401ED91FC91918387
:1003E0008083FC0181818F9380818F938BE392E0E6
:1003F0009F938F930E947C140F900F900F900F90FB
:100400002A960FB6F894DEBF0FBECDBFDF91CF9115
:100410001F910F91FF90EF90DF90CF90BF90AF9022
:100420009F908F907F906F905F904F903F902F9014
:100430000895CF93DF93EC0160910304709104045D
:10044000888199810E94351A892B39F4D09302044E
:10045000C093010481E090E002C080E090E0DF9171
:10046000CF9108958F929F92AF92BF92CF92DF92D9
:10047000EF92FF920F931F93CF93DF9300D01F92C1
:10048000CDB7DEB74B015C018EE190E029833A8362
:100490004B835C830E940E196C01FC018282938263
:1004A000A482B58229813A814B815C81268337837E
:1004B0004087518713870287F182E0821586148670
:1004C000138E128E138A128AC801880F991F0E94F8
:1004D0000E19F601958F848FE12CF12CE016F106B0
:1004E0009CF4C701880F991FF601A48CB58CA80E47
:1004F000B91E86E090E00E940E19F5019183808379
:10050000FFEFEF1AFF0AEACFE0910504F09106042D
:1005100082819381019693838283C6010F900F900D
:100520000F900F90DF91CF911F910F91FF90EF905F
:10053000DF90CF90BF90AF909F908F900895EF92F3
:10054000FF920F931F93CF93DF937C01FB01DC019C
:100550001C960D911C911D9764857585E801CC0F43
:10056000DD1F5C968D919C915D978C0F9D1FEC011A
:10057000A881B9811596FC93EE931497660F771FA7
:10058000C48DD58DC60FD71F68817981DB01159683
:10059000FC92EE921497DC018D919C910990D88188
:1005A000C02D288339834A835B83EC0128833983F8
:1005B0004A835B830F5F1F4FD7011D961C930E93D9
:1005C0001C9784859585019695878487DF91CF91C7
:1005D0001F910F91FF90EF9008952F923F924F92AD
:1005E0005F926F927F928F929F92AF92BF92CF92C3
:1005F000DF92EF92FF920F931F93CF93DF93CDB7CC
:10060000DEB7C855D1090FB6F894DEBF0FBECDBF17
:100610000E94B411909308048093070486E090E050
:100620000E940E198C01909300048093FF0388E0D0
:1006300090E0D80115969C938E93149780E190E0FA
:100640000E940E19F8019383828384E090E00E9457
:100650000E199093060480930504DC0113961C92F6
:100660001E921297B6E6EB2EB2E0FB2E01E010E0F0
:1006700020E030E040EE50E460E070E084EB92EC8B
:100680000E9432029CAB8BAB89E6E82E82E0F82E0A
:1006900020E030E040EE50E460E070E080E992EC71
:1006A0000E9432029EAB8DAB9CE6E92E92E0F92EC1
:1006B00020E030E040EE50E460E070E088E592EC4D
:1006C0000E94320298AF8FAB2FE6E22E22E0F22E8C
:1006D00020E030E040EE50E460E070E080E192EC39
:1006E0000E9432029AAF89AF32E7E32E32E0F32E56
:1006F00020E030E040EE50E460E070E080E991EC12
:100700000E9432029CAF8BAF45E7E42E42E0F42E0C
:1007100020E030E040EE50E460E070E080E991E4F9
:100720000E9432029EAF8DAF58E7E52E52E0F52EC3
:1007300020E030E040EE50E460E070E080E192E4E0
:100740000E94320221969FAF8EAF21976BE7E62E73
:1007500062E0F62E20E030E040EE50E460E070E031
:1007600088E592E40E94320223969FAF8EAF2397D2
:100770007EE7E72E72E0F72E20E030E040EE50E416
:1007800060E070E080E992E40E94320225969FAF1B
:100790008EAF2597E1E8EE2EE2E0FE2E20E030E07D
:1007A00040EE50E460E070E084EB92E40E9432029C
:1007B00027969FAF8EAF2797F5E8EF2EF2E0FF2E3A
:1007C00002E010E020E030E048EC51E460E070E04E
:1007D00084EB92EC0E94320298AB8FA7A8E8EA2E35
:1007E000A2E0FA2E03E010E020E030E048EC51E413
:1007F00060E070E080E992EC0E9432029A8789877B
:10080000BBE8EB2EB2E0FB2E20E030E048EC51E4F8
:1008100060E070E088E592EC0E9432029C878B8752
:100820008EE8E82E82E0F82E20E030E048EC51E43B
:1008300060E070E080E192EC0E9432029E878D873A
:1008400091E9E92E92E0F92E20E030E048EC51E405
:1008500060E070E080E991EC0E943202988B8F8713
:1008600024E9E22E22E0F22E20E030E048EC51E4D0
:1008700060E070E080E991E40E9432029A8B898BFB
:1008800037E9E32E32E0F32E20E030E048EC51E48B
:1008900060E070E080E192E40E9432029C8B8B8BDE
:1008A0004AE9E42E42E0F42E20E030E048EC51E446
:1008B00060E070E088E592E40E9432029E8B8D8BAE
:1008C0005DE9E52E52E0F52E20E030E048EC51E401
:1008D00060E070E080E992E40E943202988F8F8B92
:1008E00060EAE62E62E0F62E02E010E020E030E062
:1008F00048EC51E460E070E084EB92E40E94320244
:100900009AAB89AB74EAE72E72E0F72E01E010E0B3
:1009100020E030E0A901CA01B9010E9432029A8F99
:10092000898FE6EAEE2EE2E0FE2E04E010E020E001
:1009300030E048EC51E460E070E0CB010E9432020C
:1009400069969FAF8EAF6997F9EAEF2EF2E0FF2E1E
:1009500020E030E042E852E460E070E0CB010E9429
:1009600032029A838983A3E5EA2EA2E0FA2E03E0FD
:1009700010E020E030E042E852E460E070E08CE01B
:1009800092EC0E9432029C838B83BCEAEB2EB2E095
:10099000FB2E20E030E043EC52E460E070E087E8BA
:1009A00092EC0E9432029E838D838FEAE82E82E0D1
:1009B000F82E20E030E844E053E460E070E087E89F
:1009C00092EC0E9432029C8F8B8F92EBE92E92E088
:1009D000F92E20E030E847E253E460E070E087E879
:1009E00092EC0E94320298878F8325EBE22E22E060
:1009F000F22E20E030E048E453E460E070E08CE068
:100A000092EC0E9432022C0138EBE32E32E0F32EFE
:100A100020E030E048E453E460E070E0CB010E9465
:100A200032029E8F8D8F4BEBE42E42E0F42E20E0BD
:100A300030E048E453E460E070E08CE092E40E942F
:100A400032023C015EEBE52E52E0F52E20E030E86C
:100A500047E253E460E070E087E892E40E943202EB
:100A60004C0162ECE62E62E0F62E20E030E844E035
:100A700053E460E070E087E892E40E94320298A3B9
:100A80008F8F76ECE72E72E0F72E20E030E043EC1B
:100A900052E460E070E087E892E40E9432025C0178
:100AA000EAECEE2EE2E0FE2E20E030E042E852E4F6
:100AB00060E070E08CE092E40E9432026C01FEEC97
:100AC000EF2EF2E0FF2E20E030E04DEC52E460E04B
:100AD00070E0CB010E9432029AA389A3A2EDEA2E14
:100AE000A2E0FA2E20E030E844E053E460E070E059
:100AF00080EF91EC0E9432029CA38BA3B6EDEB2E0B
:100B0000B2E0FB2E20E030E842E253E460E070E027
:100B1000CB010E9432029EA38DA38AEDE82E82E0D3
:100B2000F82E20E030E844E053E460E070E080EF2D
:100B300091E40E94320298A78FA39EEDE92E92E0E5
:100B4000F92E04E010E020E030E844E053E460E0F7
:100B500070E0CB010E9432021C0122EEE22E22E064
:100B6000F22E00E010E020E030E044E352E460E0E8
:100B700070E084E592EC0E94320237EEE32E32E020
:100B8000F32E20E030E044E352E460E070E088E8D7
:100B900091EC0E9432024CEEE42E42E0F42E20E072
:100BA00030E047EE52E460E070E08FEA92EC0E94A1
:100BB000320251EFE52E52E0F52E20E030E04FE911
:100BC00052E460E070E08FEA92EC0E94320266EF3D
:100BD000E62E62E0F62E20E030E849E353E460E0E0
:100BE00070E08FEA92EC0E9432027BEFE72E72E017
:100BF000F72E20E030E845E153E460E070E08FEA52
:100C000092EC0E943202E0E0EE2EE3E0FE2E20E0C5
:100C100030E04CE553E460E070E088E891EC0E943D
:100C20003202F5E0EF2EF3E0FF2E20E030E04CE55D
:100C300053E460E070E084E592EC0E943202AAE0A6
:100C4000EA2EA3E0FA2E20E030E04CE553E460E029
:100C500070E084E592E40E943202BFE0EB2EB3E044
:100C6000FB2E20E030E04CE553E460E070E088E8E3
:100C700091E40E94320284E1E82E83E0F82E20E025
:100C800030E845E153E460E070E08FEA92E40E94CE
:100C9000320299E1E92E93E0F92E20E030E849E3B1
:100CA00053E460E070E08FEA92E40E9432022EE1A9
:100CB000E22E23E0F22E20E030E04FE952E460E043
:100CC00070E08FEA92E40E94320233E2E32E33E0D6
:100CD000F32E20E030E047EE52E460E070E08FEA6F
:100CE00092E40E94320248E2E42E43E0F42E20E037
:100CF00030E044E352E460E070E088E891E40E9470
:100D000032025DE2E52E53E0F52E20E030E044E3D0
:100D100052E460E070E084E592E40E94320262E313
:100D2000E62E63E0F62E01E010E020E030E044E340
:100D300052E460E070E08CE092EC0E94320229966E
:100D40009FAF8EAF299775E3E72E73E0F72E20E073
:100D500030E043EC52E460E070E08FEA92EC0E94F5
:100D600032022B969FAF8EAF2B97E8E3EE2EE3E097
:100D7000FE2E20E030E847E253E460E070E08FEAC6
:100D800092EC0E9432022D969FAF8EAF2D97FBE31F
:100D9000EF2EF3E0FF2E20E030E04CE553E460E07E
:100DA00070E08CE092EC0E9432022F969FAF8EAFE3
:100DB0002F97AEE3EA2EA3E0FA2E20E030E04CE5D8
:100DC00053E460E070E08CE092E40E9432026196AD
:100DD0009FAF8EAF6197B1E4EB2EB3E0FB2E20E026
:100DE00030E847E253E460E070E08FEA92E40E946A
:100DF000320263969FAF8EAF639784E4E82E83E060
:100E0000F82E20E030E043EC52E460E070E08FEA3E
:100E100092E40E94320265969FAF8EAF659797E489
:100E2000E92E93E0F92E20E030E044E352E460E064
:100E300070E08CE092E40E94320267969FAF8EAF22
:100E400067972AE4E22E23E0F22E03E010E020E090
:100E500030E04DEC52E460E070E080EF91EC0E94F5
:100E600032029AA789A73DE4E32E33E0F32E20E077
:100E700030E842E253E460E070E080EF91EC0E94E1
:100E800032029CA78BA741E5E42E43E0F42E20E03C
:100E900030E842E253E460E070E080EF91E40E94C9
:100EA00032029EA78DA755E5E52E53E0F52E20E0F2
:100EB00030E04DEC52E460E070E080EF91E40E949D
:100EC00032028C012FE135E84BEC5FE369966EADA1
:100ED0007FAD6997898D9A8D0E949F0223E333E34A
:100EE00043E95FE36F85788969968EAD9FAD699719
:100EF0000E949F0223E333E343E95FE36BAD7CADE4
:100F00008F8598890E949F0223E333E343E95FE3DF
:100F10006D857E858F8598890E949F0223E333E348
:100F200043E95FE369AD7AAD8D859E850E949F029E
:100F300023E333E343E95FE36B857C858D859E8501
:100F40000E949F0223E333E343E95FE36FA978AD97
:100F50008B859C850E949F0223E333E343E95FE393
:100F600069857A858B859C850E949F0223E333E304
:100F700043E95FE36DA97EA989859A850E949F0256
:100F800023E333E343E95FE36FA578A989859A8575
:100F90000E949F0223E333E343E95FE36BA97CA94B
:100FA0008FA598A90E949F0223E333E343E95FE3FF
:100FB00069897A8969968EAD9FAD69970E949F0273
:100FC00023E333E343E95FE36DAD7EAD89899A891D
:100FD0000E949F0223E333E343E95FE36B897C894B
:100FE00089899A890E949F0223E333E343E95FE3FF
:100FF00021966EAD7FAD21978B899C890E949F02BF
:1010000023E333E343E95FE36D897E898B899C8920
:101010000E949F0223E333E343E95FE323966EAD2F
:101020007FAD23978D899E890E949F0223E333E33E
:1010300043E95FE36F89788D8D899E890E949F02C5
:1010400023E333E343E95FE325966EAD7FAD259758
:101050008F89988D0E949F0223E333E343E95FE386
:1010600069A97AA98F89988D0E949F0223E333E3AF
:1010700043E95FE327966EAD7FAD279789A99AA9CB
:101080000E949F0223E333E343E250E469817A81C3
:1010900069968EAD9FAD69970E949F0222E538EB5D
:1010A0004EE050E46B817C8189819A810E949F028D
:1010B0002CE53FE842EA5FE329966EAD7FAD2997C4
:1010C0008B819C810E949F0225E83BEE41E750E422
:1010D0006D817E818B819C810E949F022CE53FE87F
:1010E00042EA5FE32B966EAD7FAD2B978D819E819B
:1010F0000E949F0222E538EB4EE050E46B8D7C8D20
:101100008D819E810E949F0223EC35EF48E150E4DF
:101110006BA17CA18B8D9C8D0E949F0222E538EBF8
:101120004EE050E46F8178858B8D9C8D0E949F02EC
:101130002CE53FE842EA5FE32D966EAD7FAD2D973B
:101140008F8198850E949F0225E83BEE41E750E49D
:10115000B2018F8198850E949F022CE53FE842EA08
:101160005FE32F966EAD7FAD2F97C2010E949F0265
:1011700022E538EB4EE050E46D8D7E8DC2010E9479
:101180009F0223EC35EF48E150E46DA17EA18D8DE7
:101190009E8D0E949F0222E538EB4EE050E4B301A1
:1011A0008D8D9E8D0E949F022CE53FE842EA5FE311
:1011B00061966EAD7FAD6197C3010E949F0225E8E5
:1011C0003BEE41E750E4B401C3010E949F022CE5CD
:1011D0003FE842EA5FE363966EAD7FAD6397C4017B
:1011E0000E949F0222E538EB4EE050E46F8D78A11B
:1011F000C4010E949F0223EC35EF48E150E46FA147
:1012000078A58F8D98A10E949F0222E538EB4EE0D1
:1012100050E4B5018F8D98A10E949F022CE53FE814
:1012200042EA5FE365966EAD7FAD6597C5010E94AA
:101230009F0225E83BEE41E750E4B601C5010E945C
:101240009F022CE53FE842EA5FE367966EAD7FAD13
:101250006797C6010E949F0222E538EB4EE050E4FA
:1012600069817A81C6010E949F0223EC35EF48E133
:1012700050E469A17AA189819A810E949F0221EE9E
:101280003AE744EF5FE369A57AA589A19AA10E9494
:101290009F0221EE3AE744EF5FE36BA17CA189A5B1
:1012A0009AA50E949F0221EE3AE744EF5FE36BA507
:1012B0007CA58BA19CA10E949F0221EE3AE744EFFE
:1012C0005FE36DA17EA18BA59CA50E949F0221EEEC
:1012D0003AE744EF5FE36DA57EA58DA19EA10E9434
:1012E0009F0221EE3AE744EF5FE36FA178A58DA559
:1012F0009EA50E949F0221EE3AE744EF5FE3B8010A
:101300008FA198A50E949F0221EE3AE744EF5FE388
:1013100069A17AA1C8010E949F022DEC3CEC4CE22D
:1013200050E4B10189A59AA50E949F022DEC3CECE6
:101330004CE250E4B1018BA59CA50E949F022DECCC
:101340003CEC4CE250E4B1018DA59EA50E949F02A9
:101350002DEC3CEC4CE250E4B101C8010E949F022C
:10136000E0910504F0910604898D9A8D9183808324
:10137000E0910704F09108040190F081E02D918341
:10138000808380E090E0A4EBB2E482839383A48323
:10139000B583E091FF03F09100040280F381E02D1A
:1013A000AB81BC81B183A083E091FF03F091000485
:1013B000228133818D819E81D90113969C938E93D6
:1013C0001297228133818F819885D90115969C933C
:1013D0008E931497A281B38117965C924E921697C2
:1013E000A281B38119967C926E921897A281B381E3
:1013F0001B969C928E921A97A281B3811D96BC92E5
:10140000AE921C97A281B3811F96DC92CE921E975A
:1014100031822082C85ADF4F0FB6F894DEBF0FBE6C
:10142000CDBFDF91CF911F910F91FF90EF90DF9093
:10143000CF90BF90AF909F908F907F906F905F9074
:101440004F903F902F900895E0910704F091080489
:101450000190F081E02D808191810895CF92DF92FB
:10146000EF92FF920F931F93CF93DF93EC017B01D9
:101470006A0181E090E06115710511F080E090E073
:101480009B8F8A8FCE01F601199500E010E08C85C4
:101490009D8508171907C4F4AC8DBD8DC801880F50
:1014A000991FA80FB91FED91FC9184819581FC01D2
:1014B000228D338D2E153F0521F4A601B7010E9420
:1014C0002E0A0F5F1F4FE3CFDF91CF911F910F9136
:1014D000FF90EF90DF90CF900895CF93DF93EC01D2
:1014E000E0910504F091060480819181109202043C
:1014F00010920104C0930304D0930404FC01628D94
:10150000738D49E152E00E942E0A2091010430912E
:1015100002042115310599F4DF93CF9389E593E017
:101520009F938F930E944515E0910504F091060466
:10153000808191810F900F900F900F9001C0C90191
:10154000DF91CF910895FC0180E090E08617970726
:101550003CF4219131912417350721F00196F6CF03
:101560008FEF9FEF0895CF92DF92EF92FF920F934C
:101570001F93CF93DF936C018B017A01FB01C08134
:10158000D181BE010E94A30A019659F4FE01EE0F1B
:10159000FF1FEC0DFD1DF182E0822196F801D18341
:1015A000C083DF91CF911F910F91FF90EF90DF905B
:1015B000CF9008958091FF03909100040895809149
:1015C00005049091060408959F772DEC3CEC4CECBB
:1015D0005DE30E944B18089520E030E044E353E4BB
:1015E0000E944B182BED3FE049E450E40E94741632
:1015F0000895CF92DF92EF92FF926B017C0120E081
:1016000030E0A9010E94701620E030E044EB53E482
:1016100087FF05C0C701B6010E94AA15EECFC7011A
:10162000B601FF90EF90DF90CF900C945117CF92BE
:10163000DF92EF92FF926B017C0120E030E0A90184
:101640000E9470162BED3FE049EC50E487FF0AC082
:10165000C701B6010E94AA15FF90EF90DF90CF90CE
:101660000C94F90AC701B601FF90EF90DF90CF907C
:101670000C9451174F925F926F927F928F929F922C
:10168000AF92BF92CF92DF92EF92FF920F931F9390
:10169000CF93DF93EC018B01E091FF03F091000405
:1016A0000190F081E02D82809380A480B580C68077
:1016B000D780E084F1842A813B814C815D81C50122
:1016C000B4010E94A9152B013C012E813F81488560
:1016D0005985C701B6010E94A915A30192010E9474
:1016E0001D162B013C01F801228133814481558173
:1016F000C501B4010E94A9154B015C01F8012681C6
:10170000378140855185C701B6010E94A915A50101
:1017100094010E941D160E94170B6B017C01C301EE
:10172000B2010E94170B9B01AC01C701B6010E94D8
:10173000A915DF91CF911F910F91FF90EF90DF904E
:10174000CF90BF90AF909F908F907F906F905F9061
:101750004F9008950E943A0B20E030E0A9010E94CA
:10176000401887FD03C081E090E008958FEF9FEF60
:1017700008950E94390F0E9470130C94E8114F9243
:101780005F926F927F928F929F92AF92BF92CF9211
:10179000DF92EF92FF926B017C01CA01B901A701B0
:1017A00096010E94A9156B017C016091EC03709178
:1017B000ED038091EE039091EF030E940F174B0110
:1017C0005C01209108023091090240910A02509177
:1017D0000B02C701B6010E944B182B013C0120915E
:1017E0000402309105024091060250910702C501A2
:1017F000B4010E944B189B01AC01C301B2010E94CD
:10180000AA152B013C016091E8037091E9038091D6
:10181000EA039091EB030E940F179B01AC01C701F3
:10182000B6010E94A9152091000230910102409159
:101830000202509103020E944B189B01AC01C301AC
:10184000B2010E94AA152B013C01A7019601C50116
:10185000B4010E94AA150E94DC166093EC037093F9
:10186000ED038093EE039093EF03C701B6010E944E
:10187000DC166093E8037093E9038093EA03909386
:10188000EB03C301B201FF90EF90DF90CF90BF90C8
:10189000AF909F908F907F906F905F904F90089542
:1018A00021E030E0893210F420E030E0C9010895F1
:1018B000BF92CF92DF92EF92FF920F931F93CF933D
:1018C000DF9381E00E941B0FC1E0893208F4C0E081
:1018D00082E00E941B0F01E0893208F400E083E0FF
:1018E0000E941B0F893218F0BB24B39406C001116B
:1018F00003C0CC2309F441C0B12C10E0D0E06B2D23
:1019000070E080E090E00E940D176B017C01B8014F
:10191000660F771F882777FD8095982F0E940F17F5
:101920009B01AC01C701B6010E94AA156B017C01A5
:10193000BE01660F771F6C0F7D1F882777FD80958E
:10194000982F0E940F179B01AC01C701B6010E949E
:10195000AA156B017C01B8016B0D711D6C0F7D1F09
:10196000882777FD8095982F0E940F179B01AC0167
:10197000C701B6010E94741604C060E070E08FE7F2
:1019800093E4DF91CF911F910F91FF90EF90DF9043
:10199000CF90BF9008958F929F92AF92BF92CF92B7
:1019A000DF92EF92FF92CF935C01BC0180E090E068
:1019B0000E940D1728E431EE42E850E40E947416AC
:1019C0000E94E1166B01E12CF12CB5016550710903
:1019D00080E090E00E940D1728E431EE42E850E4E8
:1019E0000E9474160E94E1164B01A12CB12C0E949A
:1019F0008F130E94861382E00E941B0F8093F103D5
:101A00000E94981390E0A0E0B0E0C1E08C159D0525
:101A1000AE05BF0508F4C0E00E94A11390E0A0E06D
:101A2000B0E08C159D05AE05BF0510F4CC2349F040
:101A300081E090E02091F1032932E0F080E090E035
:101A400019C08091F1038932B0F20E94981390E09E
:101A5000A0E0B0E088159905AA05BB0548F70E94EB
:101A6000A11390E0A0E0B0E088159905AA05BB0598
:101A700010F2DECFCF91FF90EF90DF90CF90BF902C
:101A8000AF909F908F900895CF93DF93EC0118163D
:101A9000190654F40E945E12CE010E94CB0C0197ED
:101AA000A9F40E9461120EC0009781F00E94611299
:101AB000882799278C1B9D0B0E94CB0C019731F432
:101AC0000E945E1285E090E00E947312DF91CF9138
:101AD0000C9470128F929F92AF92BF92CF92DF922E
:101AE000EF92FF920F931F93CF93DF93EC01BC0112
:101AF000882777FD8095982F0E940F1725EE30EDEF
:101B00004AEA50E40E9474160E94E1164B015C01FF
:101B10000E9486130E948F130DE713E00E94981312
:101B2000DF93CF931F928F931F930F930E947C1488
:101B30000E94981390E0A0E0B0E0FF24F3940F908F
:101B40000F900F900F900F900F9088169906AA068D
:101B5000BB0608F0F12C0E94A11390E0A0E0B0E0D9
:101B600088169906AA06BB0610F0FF20B1F089E896
:101B700093E09F938F930E947C140F900F90DF91BE
:101B8000CF911F910F91FF90EF90DF90CF90BF907A
:101B9000AF909F908F900C9470120E94580C60939D
:101BA000140470931504809316049093170420E096
:101BB00030E04FE753E40E947016811110C080910D
:101BC000100490911104A0911204B0911304809319
:101BD000140490931504A0931604B0931704609115
:101BE000140470911504809116049091170420E05C
:101BF00030E040E050E40E94BF0B6B017C0120E02C
:101C000030E04FEF53E40E94401818164CF0C09299
:101C10000904D0920A04E0920B04F0920C040CC068
:101C200080E090E0AFEFB3E48093090490930A045E
:101C3000A0930B04B0930C0420E030E04FEF53EC82
:101C40006091090470910A0480910B0490910C0436
:101C50000E94701687FF0CC080E090E0AFEFB3ECFD
:101C60008093090490930A04A0930B04B0930C048E
:101C7000C0900904D0900A04E0900B04F0900C048A
:101C800020E030E0A901C701B6010E94701687FF6D
:101C90001EC020E030E04FE753E4C701B6010E94C8
:101CA000401818163CF420E030E04FE753E4C70139
:101CB000B60106C0A701960160E070E08FE793E4EB
:101CC0000E94A9150E94E1168FEF0E945312C09046
:101CD0000904D0900A04E0900B04F0900C0420E07A
:101CE00030E0A901C701B6010E94401887FD1EC05F
:101CF00020E030E04FE753ECC701B6010E947016B8
:101D000020E030E04FE753E487FF06C0C701B6018B
:101D10000E94AA15905804C0C701B6010E94AA15D6
:101D20000E94E116862F6FEF0E9453128FEF9FE8FB
:101D30000197F1F700C00000809114049091150400
:101D4000A0911604B091170480931004909311048D
:101D5000A0931204B0931304E1CECF93DF931F92AC
:101D60001F92CDB7DEB789839A830E9458129A8159
:101D70009F9389818F9320E933E03F932F93898349
:101D80009A830E947C142FEF3FEF4CE221503040A9
:101D90004040E1F700C0000089819A810F900F90C8
:101DA0000F900F900F900F90DF91CF910C946A0DD0
:101DB000CF93DF931F921F92CDB7DEB789839A83AB
:101DC0000E945B1289819A810F900F90DF91CF91D1
:101DD0000C946A0D10BA11BA109207011092080102
:101DE00008950C94EA0EE1E2F1E010828FEF809307
:101DF000250191E0909324011092290180932801FC
:101E000010922B0180932A0110922D0180932C01B6
:101E100089EA809320018BE080830895EAE7F0E06F
:101E2000108210927B0080E280937C0080E880BF6B
:101E300086E880830895883018F098E090937B00BE
:101E40008770806280937C0080917A0080648093A8
:101E50007A0080917A0084FFFCCF80917900909184
:101E60007A00906190937A0010927B0008950C9410
:101E70001B0FF8940E94EA0E0E940E0F0E94F30EB0
:101E80007894089540E050E060E87FE7FC014687E1
:101E90005787608B718B138A128A80E090E00895D7
:101EA0002F923F924F925F926F927F928F929F926A
:101EB000AF92BF92CF92DF92EF92FF920F931F9358
:101EC000CF93DF936B017C01B12CA12C80E8982E7D
:101ED0009FE7892E00E010E00C151D05F4F4F701D2
:101EE000C191D1917F018A899B89892B99F44E8474
:101EF0005F84688879882B2D3A2D492D582DB201A1
:101F0000C3010E94701687FF05C01E01B42CA52CCA
:101F1000962C872C0F5F1F4FDFCFC101DF91CF9130
:101F20001F910F91FF90EF90DF90CF90BF90AF90F7
:101F30009F908F907F906F905F904F903F902F90E9
:101F400008952F923F924F925F926F927F928F925D
:101F50009F92AF92BF92CF92DF92EF92FF920F9338
:101F60001F93CF93DF93CDB7DEB762970FB6F89488
:101F7000DEBF0FBECDBF98878F831B0169017A0139
:101F80001A82198288E090E00E940E199C838B834C
:101F9000DC0113961C921E921297EF81F885E215D0
:101FA000F30509F49EC1D80112968D919C91139767
:101FB000880F991F0E940E19EB81FC819183808309
:101FC0000E94DA0A9C878B87AF81B8855A966D91FB
:101FD0007C915B9742E45FE0CD010E942E0AF801FC
:101FE00082819381880F991F0E940E19988B8F8789
:101FF000AF81B8851E961D921D921D921C9251971D
:1020000081E090E053969C938E935297FD01C68A8F
:10201000D78AE08EF18E109719F02114310479F4EB
:102020008BE993E00E943E1A80E090E0A0E8BFE7D1
:10203000EB81FC8184839583A683B78352C10F8192
:10204000188520E137E23E872D87E1E0F0E0D801F6
:102050005396FC93EE9352971A861986D8011C96D4
:102060008D919C911D97E985FA85E817F9070CF089
:10207000E7C029853A85220F331F3A8B298BD80177
:102080005C96ED91FC915D97E20FF31F0190F0815A
:10209000E02D248135813E832D831E968D909D9069
:1020A000AD90BC905197D90152968D919C915397C8
:1020B000019709F4BFC0F80146885788608C718C7D
:1020C000228133814481558112966D917D918D914C
:1020D0009C9115970E94A9156B017C01D801169659
:1020E0002D913D914D915C911997ED81FE81668115
:1020F0007781808591850E94A915A70196010E948C
:102100001D160E94EC0A6B017C019B01AC01C3010E
:10211000B2010E94A9150E94E40ABC01882777FD3C
:102120008095982F0E940F172B013C01AB85BC8531
:1021300014966D917C911597A80112968D919C91A2
:1021400013970E94A30A019689F1EB85FC856481AF
:1021500075814D815E81828193810E94A30A0196DF
:1021600029F1D8015696CD90DD90ED90FC905997CD
:102170006D817E81C8010E94AA0B2AE5FC012E9F79
:10218000C0012F9F900D1124BC01882777FD8095F9
:10219000982F0E940F179B01AC01C701B6010E9446
:1021A000AA156B017C01412C512C3201A301920133
:1021B000C501B4010E94AA15D8015C96ED91FC916D
:1021C0005D9729893A89E20FF31F0190F081E02D94
:1021D00020813181428153810E94AA154B015C010B
:1021E000AD81BE811E962D913D914D915C9151978F
:1021F0000E94701687FF1EC0ED81FE81868697863D
:10220000A08AB18AC701B6010E94F90AAD81BE81D8
:1022100056966D937D938D939C93599755961C93E9
:102220000E935497AD01BE016F5F7F4F8F859889E4
:102230000E94B30AE985FA853196FA87E9870ECFBD
:1022400069817A818F8598890E94500F8C012D8534
:102250003E85215031093E872D87232B29F483EDBC
:1022600093E00E943E1A04C08215930509F0EDCE5A
:10227000F10186859785A089B189EB81FC818483F2
:102280009583A683B78322813381C901880F991F63
:10229000DF010190F081E02DE80FF91F31822082EB
:1022A0002F5F3F4F13963C932E931297C901880FCF
:1022B000991FF10124883588AB81BC81ED91FC9197
:1022C0001197E80FF91F318220822F5F3F4F02964E
:1022D000EF81F8852E163F0661F713963C932E93F7
:1022E00012978B819C8162960FB6F894DEBF0FBE69
:1022F000CDBFDF91CF911F910F91FF90EF90DF90B5
:10230000CF90BF90AF909F908F907F906F905F9095
:102310004F903F902F900895CF93DF938AE090E005
:102320000E940E19EC0190931A048093190486E020
:1023300090E00E940E19998388838AE090E00E94C1
:102340000E199F838E838AE090E00E940E19998770
:10235000888740E050E064EB72EC4A835B836C83D7
:102360007D83DF91CF9108958091190490911A0493
:10237000089581B18F6081B982B1807F82B9EAE02E
:10238000F1E0808188618083EBE0F1E08081886109
:10239000808308956C98749A08956D98759A08953D
:1023A0000E94B9110E94CA110C94CD11F894EAE66A
:1023B000F0E0808182608083EC9A78940895F894AC
:1023C000EAE6F0E0808188608083ED9A7894089551
:1023D000E1E2F1E010828FEF8093250191E090938C
:1023E0002401109229018093280110922B018093DF
:1023F0002A0110922D0180932C0189EA80932001FB
:102400008BE0808308951F920F920FB60F921124D4
:102410008F939F93AF93BF938091F7039091F803AD
:10242000A091F903B091FA030196A11DB11D80930B
:10243000F7039093F803A093F903B093FA03BF91C5
:10244000AF919F918F910F900FBE0F901F90189595
:102450001F920F920FB60F9211248F939F93AF93F9
:10246000BF938091FB039091FC03A091FD03B09179
:10247000FE030196A11DB11D8093FB039093FC0305
:10248000A093FD03B093FE03BF91AF919F918F91F5
:102490000F900FBE0F901F90189592B1907F8F7084
:1024A000892B82B908958093280160932A010895A9
:1024B00086E00C944D1289E00C944D1285E00C944A
:1024C0004D128AE00C944D1284E00C944D1282E07F
:1024D0000C944D1281E00C944D1288E00C944D1236
:1024E00080E00C944D120F931F93BC0180E090E0AC
:1024F0000E940D1728E431EE42E850E40E94741661
:102500000E94E116CB01A0E0B0E01092F703109218
:10251000F8031092F9031092FA031092FB03109241
:10252000FC031092FD031092FE034091F7035091BB
:10253000F8036091F9037091FA030091FB03109185
:10254000FC032091FD033091FE03081719072A07A9
:102550003B0728F4481759076A077B0730F31F9198
:102560000F910C947012CF92DF92EF92FF920F9323
:102570001F93BC0180E090E00E940D1725EE30ED26
:102580004AEA50E40E9474160E94E1161092F70382
:102590001092F8031092F9031092FA031092FB03C1
:1025A0001092FC031092FD031092FE030091F703BA
:1025B0001091F8032091F9033091FA03C090FB03C6
:1025C000D090FC03E090FD03F090FE036C157D05B8
:1025D0008E059F0528F0601771078207930730F773
:1025E0001F910F91FF90EF90DF90CF900C9470129D
:1025F000CF93DF931F921F92CDB7DEB789839A8363
:102600000E94581289819A810F900F90DF91CF918B
:102610000C94B312CF93DF931F921F92CDB7DEB706
:1026200089839A830E945B1289819A810F900F900F
:10263000DF91CF910C94B312CF93DF931F921F922F
:10264000CDB7DEB789839A830E945E1289819A8111
:102650000F900F90DF91CF910C947312CF93DF9373
:102660001F921F92CDB7DEB789839A830E946112B1
:1026700089819A810F900F90DF91CF910C94731202
:10268000CF93DF93EC010E946412CE01880F991F53
:10269000DF91CF910C947312CF93DF93EC010E94E2
:1026A0006712CE01880F991FDF91CF910C9473129E
:1026B000CF93DF93EC010E946A12CE01880F991F1D
:1026C000DF91CF910C947312CF93DF93EC010E94B2
:1026D0006D12CE01880F991FDF91CF910C94731268
:1026E000F8940E94D0110E94D6110E94DF117894B4
:1026F0000895181619061CF40E941C1305C0919524
:10270000819591090E942E130C9470121092F70378
:102710001092F8031092F9031092FA0308951092A0
:10272000FB031092FC031092FD031092FE03089528
:102730008091F7039091F803A091F903B091FA0307
:1027400008958091FB039091FC03A091FD03B0914B
:10275000FE03089587B1876F87B988B1807888B9FB
:1027600008950C94AA13F8940E94AA1378940895DB
:1027700086E69EE00197F1F700004098419880E3DB
:1027800088B9429A8FEF97E40197F1F700C00000F3
:10279000429886E69EE00197F1F700004098419844
:1027A00080E388B9429A8FEF97E40197F1F700C070
:1027B0000000429886E69EE00197F1F700004098FD
:1027C000419880E388B9429A8FEF97E40197F1F737
:1027D00000C00000429886E69EE00197F1F70000F5
:1027E0004098419880E288B9429A86E69EE0019737
:1027F000F1F700004298089598B19F7098B928B1F8
:10280000982F907F922B98B940984198429AEFEF79
:10281000F7E43197F1F700C00000429898B19F703B
:1028200098B998B18295807F892B88B94098419852
:10283000429A8FEF97E40197F1F700C000004298A9
:10284000089586E69EE00197F1F7000088E20E9475
:10285000FC1381E00E94FC1386E00E94FC138EE0D2
:102860000E94FC1380E80C94FC1398B19F7098B9F7
:1028700028B1982F907F922B98B9409A4198429A0C
:10288000EFEFF7E43197F1F700C00000429882952E
:10289000807F98B19F7098B998B1892B88B9409A78
:1028A0004198429A8FEF97E40197F1F700C000003A
:1028B0004298089580E80C94FC13EF92FF921F93C6
:1028C000CF93DF931F92CDB7DEB7182F81E09983A6
:1028D0000E94FC13E12E9981F92EF70181917F016D
:1028E000882319F00E943514F8CF0F90DF91CF9113
:1028F0001F91FF90EF900895CF93DF93CDB7DEB790
:1029000060970FB6F894DEBF0FBECDBFFE0176967E
:10291000419151919F0160E170E0CE0101960E94CA
:102920006B1ACE0101960E945D142FEF8FE796E19E
:10293000215080409040E1F700C0000060960FB643
:10294000F894DEBF0FBECDBFDF91CF910895982FD1
:10295000862F923059F01CF4913031F00895933065
:1029600039F0943039F00895815805C0815403C07E
:102970008D5601C08D520C94FC130F931F93CF936F
:10298000DF938A01E901882311F0611103C00E94DD
:102990005A1402C00E94A714C530D10579F4C801A9
:1029A00060E177E20E94FA18605D7F4F70931E0429
:1029B00060931D04862F0E94351403C0C430D105D6
:1029C00059F5C80168EE73E00E94FA18CB017093C4
:1029D000200460931F046AE070E00E94FA18C09619
:1029E00090932804809327040E943514C80164E65C
:1029F00070E00E94FA18CB017093200460931F04CA
:102A00006AE070E00E94FA18C096909324048093C4
:102A100023040E94351406C0C330D10539F3C230F7
:102A2000D10551F52AE030E0C801B9010E94FA1839
:102A3000CB017093200460931F04B9010E94FA181F
:102A4000C09690932204809321040E943514C801FB
:102A50006AE070E00E94FA18C09690932604809372
:102A600025040E94351426975CF085E4DF91CF9110
:102A70001F910F910C943514C130D105A1F7E7CF08
:102A8000DF91CF911F910F910895CF93DF93CDB731
:102A9000DEB760970FB6F894DEBF0FBECDBFFE0164
:102AA0007696419151919F0160E170E0CE010196CF
:102AB0000E946B1ACE0101960E945D142FEF8FE7E2
:102AC00096E1215080409040E1F700C00000609600
:102AD0000FB6F894DEBF0FBECDBFDF91CF91089542
:102AE00008950E948C110E94ED020E94B3130E946F
:102AF000B8130E9421140E94B90B8DE492E09F93B9
:102B00008F930E947C1483E592E00E946D0AFC0181
:102B100021812F9380818F9386E592E09F938F93FD
:102B20000E947C1483E592E00E946D0A0E94C80016
:102B300080E692E09F938F930E947C148DB79EB79E
:102B400008960FB6F8949EBF0FBE8DBF80E090E050
:102B500008955058BB27AA270ED058C249D230F04A
:102B60004ED220F031F49F3F11F41EF419C20EF43E
:102B7000E095E7FB01C2E92F5AD280F3BA1762074A
:102B800073078407950718F071F49EF572C20EF46E
:102B9000E0950B2EBA2FA02D0B01B90190010C016D
:102BA000CA01A0011124FF27591B99F0593F50F485
:102BB000503E68F11A16F040A22F232F342F4427DD
:102BC000585FF3CF469537952795A795F0405395D5
:102BD000C9F77EF41F16BA0B620B730B840BBAF0A5
:102BE0009150A1F0FF0FBB1F661F771F881FC2F710
:102BF0000EC0BA0F621F731F841F48F48795779524
:102C00006795B795F7959E3F08F0B3CF9395880FDA
:102C100008F09927EE0F979587950895E9D158F018
:102C200080E891E009F49EEFEAD128F040E851E015
:102C300059F45EEF09C0B4C11CC2E92FE078F7D1A6
:102C400068F3092E052AC1F32617370748075907E5
:102C500038F00E2E07F8E02569F0E025E0640AC0A0
:102C6000EF6307F8009407FADB01B9019D01DC016D
:102C7000CA01AD01EF9347D0C9D10AD05F91552366
:102C800031F02BED3FE049E450FD49EC63CF08956E
:102C9000DF93DD27B92FBF7740E85FE316161706ED
:102CA00048075B0710F4D92FEFD19F938F937F9341
:102CB0006F9396D2E4EEF0E076D1A8D12F913F91B8
:102CC0004F915F91F4D1DD2349F09058A2EA2AEDAB
:102CD0003FE049EC5FE3D0785D274DDFDF9196C19F
:102CE00027D108F481E008950CD090C188D140F03C
:102CF0007FD130F021F45F3F19F03EC15111BAC1CC
:102D00004FC195D198F39923C9F35523B1F3951B7E
:102D1000550BBB27AA2762177307840738F09F5FFC
:102D20005F4F220F331F441FAA1FA9F333D00E2E6B
:102D30003AF0E0E830D091505040E695001CCAF7D8
:102D400029D0FE2F27D0660F771F881FBB1F26179D
:102D500037074807AB07B0E809F0BB0B802DBF0170
:102D6000FF2793585F4F2AF09E3F510568F004C13A
:102D700081C15F3FECF3983EDCF3869577956795CC
:102D8000B795F7959F5FC9F7880F911D9695879521
:102D900097F90895E1E0660F771F881FBB1F621740
:102DA00073078407BA0720F0621B730B840BBA0BFE
:102DB000EE1F88F7E095089504D06894B1115AC1C8
:102DC00008953DD188F09F5790F0B92F9927B751BA
:102DD000A0F0D1F0660F771F881F991F1AF0BA95DF
:102DE000C9F712C0B13081F044D1B1E0089541C1BA
:102DF000672F782F8827B85F39F0B93FCCF38695D5
:102E000077956795B395D9F73EF490958095709531
:102E100061957F4F8F4F9F4F0895E89409C097FBAE
:102E20003EF490958095709561957F4F8F4F9F4FA1
:102E30009923A9F0F92F96E9BB279395F6958795E5
:102E400077956795B795F111F8CFFAF4BB0F11F4A8
:102E500060FF1BC06F5F7F4F8F4F9F4F16C088234F
:102E600011F096E911C0772321F09EE8872F762F85
:102E700005C0662371F096E8862F70E060E02AF0C6
:102E80009A95660F771F881FDAF7880F96958795B2
:102E900097F90895ADD018F011F0B1D038F480C092
:102EA000E9C0E92FC4D0B0F35523C9F3E7FB62179B
:102EB000730784079507A8F199F3E92FFF27882363
:102EC0002AF03197660F771F881FDAF7952F55275D
:102ED000442332F091505040220F331F441FD2F749
:102EE000BB27E91BF50B621B730B840BB109C1F205
:102EF00022F4620F731F841FB11D31972AF0660FF1
:102F0000771F881FBB1FEFCF915050405AF041F000
:102F1000882332F0660F771F881F91505040C1F709
:102F2000939530C08695779567959F5FD9F7F8CFD1
:102F3000990F0008550FAA0BE0E8FEEF16161706CA
:102F4000E807F907C0F012161306E407F50798F032
:102F5000621B730B840B950B39F40A2661F0232B4B
:102F6000242B252B21F408950A2609F4A140A695C7
:102F70008FEF811D811D089597F99F6780E870E0AC
:102F800060E008959F3F31F0915020F48795779548
:102F90006795B795880F911D9695879597F9089530
:102FA0009FEF80EC0895DF93CF931F930F93FF92D1
:102FB000EF92DF927B018C01689405C0DA2EEF015D
:102FC00076D0FE01E894A5912591359145915591D2
:102FD000AEF3EF01D0DDFE019701A801DA9479F795
:102FE000DF90EF90FF900F911F91CF91DF910895A7
:102FF00000240A94161617061806090608950024D8
:103000000A9412161306140605060895092E039451
:10301000000C11F4882352F0BB0F40F4BF2B11F4C5
:1030200060FF04C06F5F7F4F8F4F9F4F089557FD24
:103030009058440F551F59F05F3F71F04795880F26
:1030400097FB991F61F09F3F79F0879508951216BD
:1030500013061406551FF2CF4695F1DF08C0161669
:1030600017061806991FF1CF86957105610508941A
:103070000895E894BB2766277727CB0197F9089531
:1030800057DF08F48FEF08959B01AC0160E070E01A
:1030900080E89FE329CE0BD0B9CFAADF28F0AFDFBD
:1030A00018F0952309F068CF7BCF1124E3CFBFDF61
:1030B000A0F3959FD1F3950F50E0551F629FF0014B
:1030C000729FBB27F00DB11D639FAA27F00DB11DA4
:1030D000AA1F649F6627B00DA11D661F829F22272D
:1030E000B00DA11D621F739FB00DA11D621F839FB4
:1030F000A00D611D221F749F3327A00D611D231F8A
:10310000849F600D211D822F762F6A2F11249F57D7
:1031100050408AF0E1F088234AF0EE0FFF1FBB1FFA
:10312000661F771F881F91505040A9F79E3F510599
:1031300070F022CF9FCF5F3FECF3983EDCF3869593
:1031400077956795B795F795E7959F5FC1F7FE2B44
:10315000880F911D9695879597F9089511F40EF4AF
:103160001FCF10CF6CDFD0F39923D9F3CEF39F5745
:10317000550B87FF38D00024A0E640EA9001805824
:103180005695979528F4805C660F771F881F20F06E
:1031900026173707480730F4621B730B840B20296E
:1031A00031294A2BA69517940794202531254A27C3
:1031B00058F7660F771F881F20F026173707480734
:1031C00030F4620B730B840B200D311D411DA09553
:1031D00081F7B901842F9158880F969587950895A6
:1031E0009B01AC0158CF91505040660F771F881F4C
:1031F000D2F70895AA1BBB1B51E107C0AA1FBB1F32
:10320000A617B70710F0A61BB70B881F991F5A9572
:10321000A9F780959095BC01CD010895CF93DF93D8
:103220008230910510F482E090E0E0912B04F0915F
:103230002C0420E030E0A0E0B0E0309739F140818C
:10324000518148175907B8F04817590771F482811E
:103250009381109729F013969C938E9312972CC00C
:1032600090932C0480932B0427C02115310531F055
:103270004217530718F0A901DB0101C0EF019A01C1
:10328000BD01DF010280F381E02DD7CF211531058B
:10329000F9F0281B390B2430310580F48A819B8199
:1032A0006115710521F0FB019383828304C0909323
:1032B0002C0480932B04FE01329644C0FE01E20FE1
:1032C000F31F8193919322503109398328833AC0A7
:1032D0002091290430912A04232B41F420911002DB
:1032E0003091110230932A042093290420910E0278
:1032F00030910F022115310541F42DB73EB74091B1
:10330000120250911302241B350BE0912904F09115
:103310002A04E217F307A0F42E1B3F0B28173907E6
:1033200078F0AC014E5F5F4F2417350748F04E0F21
:103330005F1F50932A04409329048193919302C004
:10334000E0E0F0E0CF01DF91CF910895CF93DF93DC
:10335000009709F487C0FC01329713821282C09152
:103360002B04D0912C04209781F420813181280FE7
:10337000391F8091290490912A048217930779F5C7
:10338000F0932A04E09329046DC0DE0120E030E0D0
:10339000AE17BF0750F412964D915C9113979D01A3
:1033A0004115510509F1DA01F3CFB383A2834081BE
:1033B0005181840F951F8A179B0771F48D919C9101
:1033C0001197840F951F02969183808312968D9199
:1033D0009C911397938382832115310529F4F093EF
:1033E0002C04E0932B043EC0D9011396FC93EE937A
:1033F00012974D915D91A40FB51FEA17FB0779F461
:1034000080819181840F951F0296D90111969C931A
:103410008E938281938113969C938E931297E0E012
:10342000F0E08A819B81009719F0FE01EC01F9CF51
:10343000CE01029628813981820F931F20912904A1
:1034400030912A042817390769F4309729F410922B
:103450002C0410922B0402C013821282D0932A04EF
:10346000C0932904DF91CF910895FB01DC018D9178
:10347000019080190110D9F3990B08950F931F93B0
:10348000CF93DF93E0912F04F0913004238121FF4B
:103490001BC0EC0100E010E0899160912F04709155
:1034A0003004DB011896ED91FC911997882331F0D7
:1034B0001995892B89F30FEF1FEFEECF8AE019954D
:1034C000892B11F4C80102C08FEF9FEFDF91CF91DC
:1034D0001F910F9108950F931F93CF93DF93CDB753
:1034E000DEB72E970FB6F894DEBF0FBECDBF8C01AE
:1034F000CA0146E04C831A83098377FF02C060E06B
:1035000070E8615071097E836D83A901BC01CE0111
:1035100001960E94A41A4D815E8157FD0AC02F8139
:103520003885421753070CF49A01F801E20FF31F94
:1035300010822E960FB6F894DEBF0FBECDBFDF917E
:10354000CF911F910F9108952F923F924F925F92CA
:103550006F927F928F929F92AF92BF92CF92DF92A3
:10356000EF92FF920F931F93CF93DF93CDB7DEB708
:103570002C970FB6F894DEBF0FBECDBF7C016B0158
:103580008A01FC0117821682838181FFBDC1CE01B1
:1035900001964C01F7019381F60193FD859193FF0C
:1035A00081916F01882309F4ABC1853239F493FD11
:1035B000859193FF81916F01853229F4B70190E0E5
:1035C0000E94B51CE7CF512C312C20E02032A0F412
:1035D0008B3269F030F4803259F0833269F4206123
:1035E0002CC08D3239F0803339F4216026C022603E
:1035F000246023C0286021C027FD27C030ED380F8C
:103600003A3078F426FF06C0FAE05F9E300D1124B0
:10361000532E13C08AE0389E300D1124332E2062C1
:103620000CC08E3221F426FD6BC1206406C08C369E
:1036300011F4206802C0883641F4F60193FD8591AB
:1036400093FF81916F018111C1CF982F9F7D955478
:10365000933028F40C5F1F4FFFE3F9830DC08336CE
:1036600031F0833771F0833509F05BC022C0F80177
:10367000808189830E5F1F4F44244394512C540151
:1036800015C03801F2E06F0E711CF801A080B18006
:1036900026FF03C0652D70E002C06FEF7FEFC5010C
:1036A0002C870E94AA1C2C0183012C852F77222EA7
:1036B00017C03801F2E06F0E711CF801A080B180D4
:1036C00026FF03C0652D70E002C06FEF7FEFC501DC
:1036D0002C870E949F1C2C012C852068222E8301A0
:1036E00023FC1BC0832D90E048165906B0F4B701A7
:1036F00080E290E00E94B51C3A94F4CFF50127FCDB
:10370000859127FE81915F01B70190E00E94B51C71
:1037100031103A94F1E04F1A51084114510471F7F5
:10372000E5C0843611F0893639F5F80127FF07C066
:1037300060817181828193810C5F1F4F08C060811D
:103740007181882777FD8095982F0E5F1F4F2F7608
:10375000B22E97FF09C090958095709561957F4F27
:103760008F4F9F4F2068B22E2AE030E0A4010E94C4
:10377000E71CA82EA81844C0853729F42F7EB22E46
:103780002AE030E025C0F22FF97FBF2E8F36C1F03E
:1037900018F4883579F0B4C0803719F0883721F0F3
:1037A000AFC02F2F2061B22EB4FE0DC08B2D8460D0
:1037B000B82E09C024FF0AC09F2F9660B92E06C0FC
:1037C00028E030E005C020E130E002C020E132E036
:1037D000F801B7FE07C060817181828193810C5F1F
:1037E0001F4F06C06081718180E090E00E5F1F4F27
:1037F000A4010E94E71CA82EA818FB2DFF77BF2E5E
:10380000B6FE0BC02B2D2E7FA51450F4B4FE0AC0BB
:10381000B2FC08C02B2D2E7E05C07A2C2B2D03C0A8
:103820007A2C01C0752C24FF0DC0FE01EA0DF11D9C
:103830008081803311F4297E09C022FF06C0739471
:10384000739404C0822F867809F0739423FD13C00B
:1038500020FF06C05A2C731418F4530C5718732CFD
:10386000731468F4B70180E290E02C870E94B51CC5
:1038700073942C85F5CF731410F4371801C0312CD4
:1038800024FF12C0B70180E390E02C870E94B51C92
:103890002C8522FF17C021FF03C088E590E002C0FD
:1038A00088E790E0B7010CC0822F867859F021FD9F
:1038B00002C080E201C08BE227FD8DE2B70190E0FB
:1038C0000E94B51CA51438F4B70180E390E00E9473
:1038D000B51C5A94F7CFAA94F401EA0DF11D80812A
:1038E000B70190E00E94B51CA110F5CF332009F478
:1038F00051CEB70180E290E00E94B51C3A94F6CF19
:10390000F7018681978102C08FEF9FEF2C960FB64B
:10391000F894DEBF0FBECDBFDF91CF911F910F9105
:10392000FF90EF90DF90CF90BF90AF909F908F90DF
:103930007F906F905F904F903F902F900895FC0183
:103940000590615070400110D8F7809590958E0FCA
:103950009F1F0895FC016150704001900110D8F73D
:10396000809590958E0F9F1F08950F931F93CF936F
:10397000DF93182F092FEB018B8181FD03C08FEF9F
:103980009FEF20C082FF10C04E815F812C813D815E
:10399000421753077CF4E881F9819F012F5F3F4F65
:1039A00039832883108306C0E885F985812F19950E
:1039B000892B29F72E813F812F5F3F4F3F832E8335
:1039C000812F902FDF91CF911F910F910895FA01D0
:1039D000AA27283051F1203181F1E8946F936E7F4E
:1039E0006E5F7F4F8F4F9F4FAF4FB1E03ED0B4E03F
:1039F0003CD0670F781F891F9A1FA11D680F791F80
:103A00008A1F911DA11D6A0F711D811D911DA11D90
:103A100020D009F468943F912AE0269F11243019A0
:103A2000305D3193DEF6CF010895462F4770405D3B
:103A30004193B3E00FD0C9F7F6CF462F4F70405DEA
:103A40004A3318F0495D31FD4052419302D0A9F745
:103A5000EACFB4E0A6959795879577956795BA953F
:103A6000C9F700976105710508959B01AC010A2E05
:103A700006945795479537952795BA95C9F7620FDC
:0E3A8000731F841F951FA01D0895F894FFCF9B
:103A8E000000F042CDCC4C3E00004843466400009E
:103A9E003304200005000A546F74616C20636F7349
:103AAE00743A2025642025640A00437572766500F9
:103ABE00466F727761726420256400526561636897
:103ACE006564202573206E6F64652E0A0048656C50
:103ADE006C6F007233004265666F7265202573004D
:103AEE004166746572005031005032005033005000
:103AFE0034005035005036005037005038005039E1
:103B0E0000503130006331006332006333006334A0
:103B1E000063350063360063370063380063390095
:103B2E006331300053007231007232007234007211
:103B3E0035007236007237007238007239007231F9
:103B4E003000723131007231320072313300723115
:103B5E0034007231350072313600723137007231F5
:103B6E003800483144410048314442004832444113
:103B7E000048324442004833444100483344420036
:103B8E0048344441004834444200483544410048DA
:103B9E0035444200483644410048364442004837D6
:103BAE0044410048374442004838444100483844B4
:103BBE00420048310048320048330048340048354E
:103BCE000048360048370048380048390048313040
:103BDE000048313100483132004552524F523A209E
:103BEE00666F756E645F6E6F646520666F722025FA
:103BFE0073206973204E554C4C0A0A0A00526967AD
:103C0E00687420256420256400427265616B210072
:103C1E0050617373696E67202564004552524F528E
:103C2E003A204E554C4C20706F696E74657220664A
:103C3E006F7220736F75726365206F72207461727C
:103C4E00676574202D2064696A6B737472612E63CC
:103C5E000A0A00546F6F206D616E79206974657267
:083C6E006174696F6E7321009F
:00000001FF
