:100000000C948D000C94AE000C94AE000C94AE00D9
:100010000C94AE000C94AE000C94AE000C94AE00A8
:100020000C94AE000C94AE000C94AE000C94AE0098
:100030000C94AE000C94AE000C94AE000C94AE0088
:100040000C94AE000C94AE000C94AE000C94AE0078
:100050000C94AE000C94AE000C94AE000C94AE0068
:100060000C94AE000C94AE000C94AE000C94AE0058
:100070000C94AE000C94AE000C94AE000C94AE0048
:100080000C94AE000C94AE000C94AE000C94AE0038
:100090000C94AE000C94AE000C94AE000C94AE0028
:1000A0000C94AE000C94AE000C94AE000C94AE0018
:1000B0000C94AE000C94AE000C94AE000C94AE0008
:1000C0000C94AE000C94AE000C94AE000C94AE00F8
:1000D0000C94AE000C94AE000C94AE000C94AE00E8
:1000E0000C94AE00084AD73B3BCE016E84BCBFFDEA
:1000F000C12F3D6C74319ABD56833DDA3D00C77FF8
:1001000011BED9E4BB4C3E916BAAAABE0000008090
:100110003F000C94510B0C94B10111241FBECFEF82
:10012000D1E2DEBFCDBF00E00CBF13E0A0E0B2E043
:10013000E6E7F9E200E00BBF02C007900D92A63996
:10014000B107D9F713E0A6E9B3E001C01D92AC3ABC
:10015000B107E1F70E94CF0D0C94B9140C94000084
:100160000F931F93CF93DF931F921F92CDB7DEB7EC
:100170008C0169837A830E94720A69817A81C8013D
:100180000F900F90DF91CF911F910F910C94D20A95
:100190004F925F926F927F928F929F92AF92BF9297
:1001A000CF92DF92EF92FF920F931F93CF93DF9343
:1001B00000D01F92CDB7DEB76C010E94CA0D2C0192
:1001C0000E94720A7C010E94770A8C01D201ED9193
:1001D000FC91228133814481558129833A834B8369
:1001E0005C830E94BC0929813A814B815C81B60104
:1001F0000E94B00B8C01FC01A280B3804501880CE9
:10020000991C26E0622E22E0722EB1E0AB1AB108F2
:10021000E2E08E1A9108D801B7FC14C0ED91FC9170
:10022000E80DF91D0190F081E02D81818F9380818F
:100230008F937F926F920E94D9110F900F900F9021
:100240000F90E3CF17968C9117978F9316968C91FA
:1002500016978F9315968C9115978F9314968C9172
:100260008F938BE092E09F938F930E94D911D201DC
:10027000ED91FC91A080B180F80162807380F2E082
:100280006F1A7108660C771C0F900F900F900F90EB
:100290000F900F90AC14BD04D9F1D801ED91FC91F1
:1002A000E60DF71D80809180F70164817581A501BD
:1002B000828193810E943B0A019699F0D70114969E
:1002C0006D917C911597A40112968D919C91139735
:1002D0000E943B0A019629F0B401C5010E94B000BA
:1002E0000DC0F20120813181F40186899789A08DAA
:1002F000B18DF90182839383A483B583D201ED91FB
:10030000FC91B182A082B2E06B1A71085401C2CF95
:10031000D201ED91FC91B182A082F50181818F9390
:1003200080818F938CE192E09F938F930E94D911EB
:100330000F900F900F900F900F900F900F900F90C5
:10034000DF91CF911F910F91FF90EF90DF90CF90B1
:10035000BF90AF909F908F907F906F905F904F90E5
:100360000895CF93DF93EC0160919A0370919B0302
:10037000888199810E94D011892B39F4D0939903F7
:10038000C093980381E090E002C080E090E0DF91AC
:10039000CF9108958F929F92AF92BF92CF92DF92AA
:1003A000EF92FF920F931F93CF93DF9300D01F9292
:1003B000CDB7DEB74B015C018EE190E029833A8333
:1003C0004B835C830E94A9106C01FC0182829382A2
:1003D000A482B58229813A814B815C81268337834F
:1003E0004087518713870287F182E0821586148641
:1003F000138E128E138A128AC801880F991F0E94C9
:10040000A910F601958F848FE12CF12CE016F106EE
:100410009CF4C701880F991FF601A48CB58CA80E17
:10042000B91E86E090E00E94A910F50191838083B7
:10043000FFEFEF1AFF0AEACFE0919C03F0919D03D2
:1004400082819381019693838283C6010F900F90DE
:100450000F900F90DF91CF911F910F91FF90EF9030
:10046000DF90CF90BF90AF909F908F900895EF92C4
:10047000FF920F931F93CF93DF937C01FB01DC016D
:100480001C960D911C911D9764857585E801CC0F14
:10049000DD1F5C968D919C915D978C0F9D1FEC01EB
:1004A000A881B9811596FC93EE931497660F771F78
:1004B000C48DD58DC60FD71F68817981DB01159654
:1004C000FC92EE921497DC018D919C910990D88159
:1004D000C02D288339834A835B83EC0128833983C9
:1004E0004A835B830F5F1F4FD7011D961C930E93AA
:1004F0001C9784859585019695878487DF91CF9198
:100500001F910F91FF90EF9008952F923F924F927D
:100510005F926F927F928F929F92AF92BF92CF9293
:10052000DF92EF92FF920F931F93CF93DF93CDB79C
:10053000DEB7C855D1090FB6F894DEBF0FBECDBFE8
:100540000E94CA0D90939F0380939E0386E090E0E3
:100550000E94A9108C01909397038093960388E0E2
:1005600090E0D80115969C938E93149780E190E0CB
:100570000E94A910F8019383828384E090E00E9496
:10058000A91090939D0380939C03DC0113961C9209
:100590001E921297BEE2EB2EB2E0FB2E01E010E0BD
:1005A00020E030E040EE50E460E070E084EB92EC5C
:1005B0000E94CA019CAB8BAB81E3E82E82E0F82E4F
:1005C00020E030E040EE50E460E070E080E992EC42
:1005D0000E94CA019EAB8DAB94E3E92E92E0F92E06
:1005E00020E030E040EE50E460E070E088E592EC1E
:1005F0000E94CA0198AF8FAB27E3E22E22E0F22ED1
:1006000020E030E040EE50E460E070E080E192EC09
:100610000E94CA019AAF89AF3AE3E32E32E0F32E8B
:1006200020E030E040EE50E460E070E080E991ECE2
:100630000E94CA019CAF8BAF4DE3E42E42E0F42E42
:1006400020E030E040EE50E460E070E080E991E4CA
:100650000E94CA019EAF8DAF50E4E52E52E0F52E08
:1006600020E030E040EE50E460E070E080E192E4B1
:100670000E94CA0121969FAF8EAF219763E4E62EB8
:1006800062E0F62E20E030E040EE50E460E070E002
:1006900088E592E40E94CA0123969FAF8EAF23970C
:1006A00076E4E72E72E0F72E20E030E040EE50E4F2
:1006B00060E070E080E992E40E94CA0125969FAF55
:1006C0008EAF2597E9E4EE2EE2E0FE2E20E030E04A
:1006D00040EE50E460E070E084EB92E40E94CA01D6
:1006E00027969FAF8EAF2797FDE4EF2EF2E0FF2E07
:1006F00002E010E020E030E048EC51E460E070E01F
:1007000084EB92EC0E94CA0198AB8FA7A0E5EA2E79
:10071000A2E0FA2E03E010E020E030E048EC51E4E3
:1007200060E070E080E992EC0E94CA019A878987B4
:10073000B3E5EB2EB2E0FB2E20E030E048EC51E4D4
:1007400060E070E088E592EC0E94CA019C878B878C
:1007500086E5E82E82E0F82E20E030E048EC51E417
:1007600060E070E080E192EC0E94CA019E878D8774
:1007700099E5E92E92E0F92E20E030E048EC51E4D2
:1007800060E070E080E991EC0E94CA01988B8F874D
:100790002CE5E22E22E0F22E20E030E048EC51E49D
:1007A00060E070E080E991E40E94CA019A8B898B35
:1007B0003FE5E32E32E0F32E20E030E048EC51E458
:1007C00060E070E080E192E40E94CA019C8B8B8B18
:1007D00042E6E42E42E0F42E20E030E048EC51E422
:1007E00060E070E088E592E40E94CA019E8B8D8BE8
:1007F00055E6E52E52E0F52E20E030E048EC51E4DD
:1008000060E070E080E992E40E94CA01988F8F8BCB
:1008100068E6E62E62E0F62E02E010E020E030E02E
:1008200048EC51E460E070E084EB92E40E94CA017D
:100830009AAB89AB7CE6E72E72E0F72E01E010E080
:1008400020E030E0A901CA01B9010E94CA019A8FD3
:10085000898FEEE6EE2EE2E0FE2E04E010E020E0CE
:1008600030E048EC51E460E070E0CB010E94CA0146
:1008700069969FAF8EAF6997F1E7EF2EF2E0FF2EFA
:1008800020E030E042E852E460E070E0CB010E94FA
:10089000CA019A838983A4E7EA2EA2E0FA2E03E034
:1008A00010E020E030E042E852E460E070E08CE0EC
:1008B00092EC0E94CA019C838B83B7E7EB2EB2E0D7
:1008C000FB2E20E030E043EC52E460E070E087E88B
:1008D00092EC0E94CA019E838D838AE7E82E82E013
:1008E000F82E20E030E844E053E460E070E087E870
:1008F00092EC0E94CA019C8F8B8F9DE7E92E92E0BB
:10090000F92E20E030E847E253E460E070E087E849
:1009100092EC0E94CA0198878F8320E8E22E22E0A1
:10092000F22E20E030E048E453E460E070E08CE038
:1009300092EC0E94CA012C0133E8E32E32E0F32E40
:1009400020E030E048E453E460E070E0CB010E9436
:10095000CA019E8F8D8F46E8E42E42E0F42E20E0FF
:1009600030E048E453E460E070E08CE092E40E9400
:10097000CA013C0159E8E52E52E0F52E20E030E8AE
:1009800047E253E460E070E087E892E40E94CA0125
:100990004C016DE8E62E62E0F62E20E030E844E0FF
:1009A00053E460E070E087E892E40E94CA0198A3F3
:1009B0008F8F71E9E72E72E0F72E20E030E043ECF4
:1009C00052E460E070E087E892E40E94CA015C01B2
:1009D000E5E9EE2EE2E0FE2E20E030E042E852E4CF
:1009E00060E070E08CE092E40E94CA016C01F9E9D9
:1009F000EF2EF2E0FF2E20E030E04DEC52E460E01C
:100A000070E0CB010E94CA019AA389A3ADE9EA2E46
:100A1000A2E0FA2E20E030E844E053E460E070E029
:100A200080EF91EC0E94CA019CA38BA3B1EAEB2E4C
:100A3000B2E0FB2E20E030E842E253E460E070E0F8
:100A4000CB010E94CA019EA38DA385EAE82E82E015
:100A5000F82E20E030E844E053E460E070E080EFFE
:100A600091E40E94CA0198A78FA399EAE92E92E027
:100A7000F92E04E010E020E030E844E053E460E0C8
:100A800070E0CB010E94CA011C012DEAE22E22E097
:100A9000F22E00E010E020E030E044E352E460E0B9
:100AA00070E084E592EC0E94CA0132EBE32E32E062
:100AB000F32E20E030E044E352E460E070E088E8A8
:100AC00091EC0E94CA0147EBE42E42E0F42E20E0B4
:100AD00030E047EE52E460E070E08FEA92EC0E9472
:100AE000CA015CEBE52E52E0F52E20E030E04FE944
:100AF00052E460E070E08FEA92EC0E94CA0161EC7F
:100B0000E62E62E0F62E20E030E849E353E460E0B0
:100B100070E08FEA92EC0E94CA0176ECE72E72E058
:100B2000F72E20E030E845E153E460E070E08FEA22
:100B300092EC0E94CA01EBECEE2EE2E0FE2E20E0E9
:100B400030E04CE553E460E070E088E891EC0E940E
:100B5000CA01F0EDEF2EF2E0FF2E20E030E04CE590
:100B600053E460E070E084E592EC0E94CA01A5EDD8
:100B7000EA2EA2E0FA2E20E030E04CE553E460E0FB
:100B800070E084E592E40E94CA01BAEDEB2EB2E077
:100B9000FB2E20E030E04CE553E460E070E088E8B4
:100BA00091E40E94CA018FEDE82E82E0F82E20E049
:100BB00030E845E153E460E070E08FEA92E40E949F
:100BC000CA0194EEE92E92E0F92E20E030E849E3E4
:100BD00053E460E070E08FEA92E40E94CA0129EEDB
:100BE000E22E22E0F22E20E030E04FE952E460E015
:100BF00070E08FEA92E40E94CA013EEEE32E32E0FA
:100C0000F32E20E030E047EE52E460E070E08FEA3F
:100C100092E40E94CA0143EFE42E42E0F42E20E069
:100C200030E044E352E460E070E088E891E40E9440
:100C3000CA0158EFE52E52E0F52E20E030E044E303
:100C400052E460E070E084E592E40E94CA016DEF36
:100C5000E62E62E0F62E01E010E020E030E044E312
:100C600052E460E070E08CE092EC0E94CA012996A8
:100C70009FAF8EAF299770E0E72E73E0F72E20E04C
:100C800030E043EC52E460E070E08FEA92EC0E94C6
:100C9000CA012B969FAF8EAF2B97E3E0EE2EE3E0D9
:100CA000FE2E20E030E847E253E460E070E08FEA97
:100CB00092EC0E94CA012D969FAF8EAF2D97F6E061
:100CC000EF2EF3E0FF2E20E030E04CE553E460E04F
:100CD00070E08CE092EC0E94CA012F969FAF8EAF1D
:100CE0002F97A9E0EA2EA3E0FA2E20E030E04CE5B1
:100CF00053E460E070E08CE092E40E94CA016196E7
:100D00009FAF8EAF6197BCE0EB2EB3E0FB2E20E0EF
:100D100030E847E253E460E070E08FEA92E40E943A
:100D2000CA0163969FAF8EAF63978FE0E82E83E092
:100D3000F82E20E030E043EC52E460E070E08FEA0F
:100D400092E40E94CA0165969FAF8EAF659792E1CB
:100D5000E92E93E0F92E20E030E044E352E460E035
:100D600070E08CE092E40E94CA0167969FAF8EAF5C
:100D7000679725E1E22E23E0F22E03E010E020E069
:100D800030E04DEC52E460E070E080EF91EC0E94C6
:100D9000CA019AA789A738E1E32E33E0F32E20E0B9
:100DA00030E842E253E460E070E080EF91EC0E94B2
:100DB000CA019CA78BA74CE1E42E43E0F42E20E06F
:100DC00030E842E253E460E070E080EF91E40E949A
:100DD000CA019EA78DA750E2E52E53E0F52E20E034
:100DE00030E04DEC52E460E070E080EF91E40E946E
:100DF000CA018C012FE135E84BEC5FE369966EADDB
:100E00007FAD6997898D9A8D0E94370223E333E382
:100E100043E95FE36F85788969968EAD9FAD6997E9
:100E20000E94370223E333E343E95FE36BAD7CAD1C
:100E30008F8598890E94370223E333E343E95FE318
:100E40006D857E858F8598890E94370223E333E381
:100E500043E95FE369AD7AAD8D859E850E943702D7
:100E600023E333E343E95FE36B857C858D859E85D2
:100E70000E94370223E333E343E95FE36FA978ADD0
:100E80008B859C850E94370223E333E343E95FE3CC
:100E900069857A858B859C850E94370223E333E33D
:100EA00043E95FE36DA97EA989859A850E9437028F
:100EB00023E333E343E95FE36FA578A989859A8546
:100EC0000E94370223E333E343E95FE36BA97CA984
:100ED0008FA598A90E94370223E333E343E95FE338
:100EE00069897A8969968EAD9FAD69970E943702AC
:100EF00023E333E343E95FE36DAD7EAD89899A89EE
:100F00000E94370223E333E343E95FE36B897C8983
:100F100089899A890E94370223E333E343E95FE337
:100F200021966EAD7FAD21978B899C890E943702F7
:100F300023E333E343E95FE36D897E898B899C89F1
:100F40000E94370223E333E343E95FE323966EAD68
:100F50007FAD23978D899E890E94370223E333E377
:100F600043E95FE36F89788D8D899E890E943702FE
:100F700023E333E343E95FE325966EAD7FAD259729
:100F80008F89988D0E94370223E333E343E95FE3BF
:100F900069A97AA98F89988D0E94370223E333E3E8
:100FA00043E95FE327966EAD7FAD279789A99AA99C
:100FB0000E94370223E333E343E250E469817A81FC
:100FC00069968EAD9FAD69970E94370222E538EB96
:100FD0004EE050E46B817C8189819A810E943702C6
:100FE0002CE53FE842EA5FE329966EAD7FAD299795
:100FF0008B819C810E94370225E83BEE41E750E45B
:101000006D817E818B819C810E9437022CE53FE8B7
:1010100042EA5FE32B966EAD7FAD2B978D819E816B
:101020000E94370222E538EB4EE050E46B8D7C8D58
:101030008D819E810E94370223EC35EF48E150E418
:101040006BA17CA18B8D9C8D0E94370222E538EB31
:101050004EE050E46F8178858B8D9C8D0E94370225
:101060002CE53FE842EA5FE32D966EAD7FAD2D970C
:101070008F8198850E94370225E83BEE41E750E4D6
:10108000B2018F8198850E9437022CE53FE842EA41
:101090005FE32F966EAD7FAD2F97C2010E9437029E
:1010A00022E538EB4EE050E46D8D7E8DC2010E944A
:1010B000370223EC35EF48E150E46DA17EA18D8D20
:1010C0009E8D0E94370222E538EB4EE050E4B301DA
:1010D0008D8D9E8D0E9437022CE53FE842EA5FE34A
:1010E00061966EAD7FAD6197C3010E94370225E81E
:1010F0003BEE41E750E4B401C3010E9437022CE506
:101100003FE842EA5FE363966EAD7FAD6397C4014B
:101110000E94370222E538EB4EE050E46F8D78A153
:10112000C4010E94370223EC35EF48E150E46FA17F
:1011300078A58F8D98A10E94370222E538EB4EE00A
:1011400050E4B5018F8D98A10E9437022CE53FE84D
:1011500042EA5FE365966EAD7FAD6597C5010E947B
:10116000370225E83BEE41E750E4B601C5010E9495
:1011700037022CE53FE842EA5FE367966EAD7FAD4C
:101180006797C6010E94370222E538EB4EE050E433
:1011900069817A81C6010E94370223EC35EF48E16C
:1011A00050E469A17AA189819A810E94370221EED7
:1011B0003AE744EF5FE369A57AA589A19AA10E9465
:1011C000370221EE3AE744EF5FE36BA17CA189A5EA
:1011D0009AA50E94370221EE3AE744EF5FE36BA540
:1011E0007CA58BA19CA10E94370221EE3AE744EF37
:1011F0005FE36DA17EA18BA59CA50E94370221EE25
:101200003AE744EF5FE36DA57EA58DA19EA10E9404
:10121000370221EE3AE744EF5FE36FA178A58DA591
:101220009EA50E94370221EE3AE744EF5FE3B80142
:101230008FA198A50E94370221EE3AE744EF5FE3C1
:1012400069A17AA1C8010E9437022DEC3CEC4CE266
:1012500050E4B10189A59AA50E9437022DEC3CEC1F
:101260004CE250E4B1018BA59CA50E9437022DEC05
:101270003CEC4CE250E4B1018DA59EA50E943702E2
:101280002DEC3CEC4CE250E4B101C8010E94370265
:10129000E0919C03F0919D03898D9A8D91838083C9
:1012A000E0919E03F0919F030190F081E02D9183E6
:1012B000808380E090E0A4EBB2E482839383A483F4
:1012C000B583E0919603F09197030280F381E02DBE
:1012D000AB81BC81B183A083E0919603F091970329
:1012E000228133818D819E81D90113969C938E93A7
:1012F0001297228133818F819885D90115969C930D
:101300008E931497A281B38117965C924E92169792
:10131000A281B38119967C926E921897A281B381B3
:101320001B969C928E921A97A281B3811D96BC92B5
:10133000AE921C97A281B3811F96DC92CE921E972B
:1013400031822082C85ADF4F0FB6F894DEBF0FBE3D
:10135000CDBFDF91CF911F910F91FF90EF90DF9064
:10136000CF90BF90AF909F908F907F906F905F9045
:101370004F903F902F900895E0919E03F0919F032E
:101380000190F081E02D808191810895CF92DF92CC
:10139000EF92FF920F931F93CF93DF93EC017B01AA
:1013A0006A0181E090E06115710511F080E090E044
:1013B0009B8F8A8FCE01F601199500E010E08C8595
:1013C0009D8508171907C4F4AC8DBD8DC801880F21
:1013D000991FA80FB91FED91FC9184819581FC01A3
:1013E000228D338D2E153F0521F4A601B7010E94F1
:1013F000C6090F5F1F4FE3CFDF91CF911F910F9170
:10140000FF90EF90DF90CF900895CF93DF93EC01A2
:10141000E0919C03F0919D0380819181109299034A
:1014200010929803C0939A03D0939B03FC01628DA2
:10143000738D41EB51E00E94C609209198033091D1
:1014400099032115310599F4DF93CF9384E293E05A
:101450009F938F930E94D911E0919C03F0919D037B
:10146000808191810F900F900F900F9001C0C90162
:10147000DF91CF910895FC0180E090E086179707F7
:101480003CF4219131912417350721F00196F6CFD4
:101490008FEF9FEF0895CF92DF92EF92FF920F931D
:1014A0001F93CF93DF936C018B017A01FB01C08105
:1014B000D181BE010E943B0A019659F4FE01EE0F54
:1014C000FF1FEC0DFD1DF182E0822196F801D18312
:1014D000C083DF91CF911F910F91FF90EF90DF902C
:1014E000CF900895809196039091970308958091ED
:1014F0009C0390919D0308959F772DEC3CEC4CEC60
:101500005DE30E944310089520E030E044E353E49B
:101510000E9443102BED3FE049E450E40E949D0EF1
:101520000895CF92DF92EF92FF926B017C0120E051
:1015300030E0A9010E94990E20E030E044EB53E432
:1015400087FF05C0C701B6010E94D30DEECFC701CA
:10155000B601FF90EF90DF90CF900C94490FCF929F
:10156000DF92EF92FF926B017C0120E030E0A90155
:101570000E94990E2BED3FE049EC50E487FF0AC032
:10158000C701B6010E94D30DFF90EF90DF90CF907E
:101590000C94910AC701B601FF90EF90DF90CF90B5
:1015A0000C94490F4F925F926F927F928F929F920D
:1015B000AF92BF92CF92DF92EF92FF920F931F9361
:1015C000CF93DF93EC018B01E0919603F0919703A9
:1015D0000190F081E02D82809380A480B580C68048
:1015E000D780E084F1842A813B814C815D81C501F3
:1015F000B4010E94D20D2B013C012E813F81488510
:101600005985C701B6010E94D20DA30192010E9423
:10161000460E2B013C01F801228133814481558122
:10162000C501B4010E94D20D4B015C01F801268175
:10163000378140855185C701B6010E94D20DA501B1
:1016400094010E94460E0E94AF0A6B017C01C30107
:10165000B2010E94AF0A9B01AC01C701B6010E9412
:10166000D20DDF91CF911F910F91FF90EF90DF90FE
:10167000CF90BF90AF909F908F907F906F905F9032
:101680004F9008950E94D20A20E030E0A9010E9404
:10169000381087FD03C081E090E008958FEF9FEF41
:1016A000089540E050E060E87FE7FC0146875787F7
:1016B000608B718B138A128A80E090E008952F92DC
:1016C0003F924F925F926F927F928F929F92AF92D2
:1016D000BF92CF92DF92EF92FF920F931F93CF931F
:1016E000DF936B017C01B12CA12C80E8982E9FE741
:1016F000892E00E010E00C151D05F4F4F701C191EE
:10170000D1917F018A899B89892B99F44E845F84CA
:10171000688879882B2D3A2D492D582DB201C301A7
:101720000E94990E87FF05C01E01B42CA52C962C93
:10173000872C0F5F1F4FDFCFC101DF91CF911F912A
:101740000F91FF90EF90DF90CF90BF90AF909F9060
:101750008F907F906F905F904F903F902F90089563
:101760002F923F924F925F926F927F928F929F92B1
:10177000AF92BF92CF92DF92EF92FF920F931F939F
:10178000CF93DF93CDB7DEB762970FB6F894DEBF85
:101790000FBECDBF98878F831B0169017A011A8222
:1017A000198288E090E00E94A9109C838B83DC0161
:1017B00013961C921E921297EF81F885E215F3059D
:1017C00009F4A5C1D80112968D919C911397880FA9
:1017D000991F0E94A910EB81FC81918380830E9454
:1017E000720A9C878B87AF81B8855A966D917C91E0
:1017F0005B9741E55BE0CD010E94C609F80182815B
:101800009381880F991F0E94A910988B8F87AF81B1
:10181000B8851E961D921D921D921C92519781E0D3
:1018200090E053969C938E935297FD01C68AD78A77
:10183000E08EF18E109719F02114310479F488E4C8
:1018400093E00E94EB1180E090E0A0E8BFE7EB811D
:10185000FC8184839583A683B78359C10F81188542
:1018600020E137E23E872D87E1E0F0E0D801539692
:10187000FC93EE9352971A861986D8011C968D9187
:101880009C911D97E985FA85E817F9070CF0EEC0E1
:1018900029853A85220F331F3A8B298BD8015C9614
:1018A000ED91FC915D97E20FF31F0190F081E02D27
:1018B000248135813E832D831E968D909D90AD9021
:1018C000BC905197D90152968D919C915397019755
:1018D00009F4C6C0F80146885788608C718C228153
:1018E00033814481558112966D917D918D919C91AA
:1018F00015970E94D20D6B017C01D80116962D918F
:101900003D914D915C911997ED81FE8166817781C2
:10191000808591850E94D20DA70196010E94460EF6
:101920000E94840A6B017C019B01AC01C301B201DE
:101930000E94D20D0E947C0ABC01882777FD809509
:10194000982F0E94070F2B013C01AB85BC85149694
:101950006D917C911597A80112968D919C9113978A
:101960000E943B0A019689F1EB85FC8564817581B3
:101970004D815E81828193810E943B0A019629F10B
:10198000D8015696CD90DD90ED90FC9059976D81E1
:101990007E81C8010E94420B2AE5FC012E9FC001F6
:1019A0002F9F900D1124BC01882777FD8095982FDB
:1019B0000E94070F9B01AC01C701B6010E94D30D25
:1019C0006B017C01412C512C3201A3019201C50114
:1019D000B4010E94D30DD8015C96ED91FC915D9706
:1019E00029893A89E20FF31F0190F081E02D2081CF
:1019F0003181428153810E94D30D4B015C01AD8145
:101A0000BE811E962D913D914D915C9151970E9402
:101A1000990E87FF25C0ED81FE8186869786A08A74
:101A2000B18AC701B6010E94910ABC01882777FDDF
:101A30008095982F0E94070FAD81BE8156966D93B9
:101A40007D938D939C93599755961C930E93549721
:101A5000AD01BE016F5F7F4F8F8598890E944B0A51
:101A6000E985FA853196FA87E98707CF69817A8116
:101A70008F8598890E945F0B8C012D853E852150B2
:101A800031093E872D87232B29F480E893E00E94BB
:101A9000EB1104C08215930509F0E6CEF1018685AD
:101AA0009785A089B189EB81FC8184839583A68386
:101AB000B78322813381C901880F991FDF0101900B
:101AC000F081E02DE80FF91F318220822F5F3F4F18
:101AD00013963C932E931297C901880F991FF10119
:101AE00024883588AB81BC81ED91FC911197E80F7A
:101AF000F91F318220822F5F3F4F0296EF81F885D8
:101B00002E163F0661F713963C932E9312978B8106
:101B10009C8162960FB6F894DEBF0FBECDBFDF91F9
:101B2000CF911F910F91FF90EF90DF90CF90BF90DA
:101B3000AF909F908F907F906F905F904F903F906D
:101B40002F900895CF93DF938AE090E00E94A91030
:101B5000EC019093A1038093A00386E090E00E94A3
:101B6000A910998388838AE090E00E94A9109F833E
:101B70008E838AE090E00E94A9109987888740E0D0
:101B800050E064EB72EC4A835B836C837D83DF916E
:101B9000CF9108958091A0039091A103089580E0D2
:101BA00090E008955058BB27AA270ED027C218D21C
:101BB00030F01DD220F031F49F3F11F41EF4E8C143
:101BC0000EF4E095E7FBD0C1E92F29D280F3BA17D4
:101BD000620773078407950718F071F49EF541C2F8
:101BE0000EF4E0950B2EBA2FA02D0B01B901900138
:101BF0000C01CA01A0011124FF27591B99F0593F7C
:101C000050F4503E68F11A16F040A22F232F342FC3
:101C10004427585FF3CF469537952795A795F04011
:101C20005395C9F77EF41F16BA0B620B730B840B26
:101C3000BAF09150A1F0FF0FBB1F661F771F881FDE
:101C4000C2F70EC0BA0F621F731F841F48F4879536
:101C500077956795B795F7959E3F08F0B3CF939525
:101C6000880F08F09927EE0F979587950895B8D1BA
:101C700058F080E891E009F49EEFB9D128F040E8EF
:101C800051E059F45EEF09C083C1EBC1E92FE07860
:101C9000C6D168F3092E052AC1F32617370748076E
:101CA000590738F00E2E07F8E02569F0E025E064CA
:101CB0000AC0EF6307F8009407FADB01B9019D0140
:101CC000DC01CA01AD01EF9347D098D10AD05F91F2
:101CD000552331F02BED3FE049E450FD49EC63CF53
:101CE0000895DF93DD27B92FBF7740E85FE316162D
:101CF000170648075B0710F4D92FBED19F938F9327
:101D00007F936F9323D2E4EEF0E045D177D12F910A
:101D10003F914F915F91C3D1DD2349F09058A2EAE2
:101D20002AED3FE049EC5FE3D0785D274DDFDF919E
:101D300065C1F6D008F481E008950CD05FC157D199
:101D400040F04ED130F021F45F3F19F00DC1511138
:101D500089C11EC164D198F39923C9F35523B1F306
:101D6000951B550BBB27AA2762177307840738F00A
:101D70009F5F5F4F220F331F441FAA1FA9F333D069
:101D80000E2E3AF0E0E830D091505040E695001C1D
:101D9000CAF729D0FE2F27D0660F771F881FBB1FD9
:101DA000261737074807AB07B0E809F0BB0B802DB3
:101DB000BF01FF2793585F4F2AF09E3F510568F0FF
:101DC000D3C050C15F3FECF3983EDCF38695779526
:101DD0006795B795F7959F5FC9F7880F911D969501
:101DE000879597F90895E1E0660F771F881FBB1F5D
:101DF000621773078407BA0720F0621B730B840B0A
:101E0000BA0BEE1F88F7E0950895E89409C097FB98
:101E10003EF490958095709561957F4F8F4F9F4FC1
:101E20009923A9F0F92F96E9BB279395F695879505
:101E300077956795B795F111F8CFFAF4BB0F11F4C8
:101E400060FF1BC06F5F7F4F8F4F9F4F16C088236F
:101E500011F096E911C0772321F09EE8872F762FA5
:101E600005C0662371F096E8862F70E060E02AF0E6
:101E70009A95660F771F881FDAF7880F96958795D2
:101E800097F90895ADD018F011F0B1D038F480C0B2
:101E9000E9C0E92FC4D0B0F35523C9F3E7FB6217BB
:101EA000730784079507A8F199F3E92FFF27882383
:101EB0002AF03197660F771F881FDAF7952F55277D
:101EC000442332F091505040220F331F441FD2F769
:101ED000BB27E91BF50B621B730B840BB109C1F225
:101EE00022F4620F731F841FB11D31972AF0660F11
:101EF000771F881FBB1FEFCF915050405AF041F021
:101F0000882332F0660F771F881F91505040C1F729
:101F1000939530C08695779567959F5FD9F7F8CFF1
:101F2000990F0008550FAA0BE0E8FEEF16161706EA
:101F3000E807F907C0F012161306E407F50798F052
:101F4000621B730B840B950B39F40A2661F0232B6B
:101F5000242B252B21F408950A2609F4A140A695E7
:101F60008FEF811D811D089597F99F6780E870E0CC
:101F700060E008959F3F31F0915020F48795779568
:101F80006795B795880F911D9695879597F9089550
:101F90009FEF80EC0895DF93CF931F930F93FF92F1
:101FA000EF92DF927B018C01689405C0DA2EEF017D
:101FB00076D0FE01E894A5912591359145915591F2
:101FC000AEF3EF0101DEFE019701A801DA9479F783
:101FD000DF90EF90FF900F911F91CF91DF910895C7
:101FE00000240A94161617061806090608950024F8
:101FF0000A9412161306140605060895092E039472
:10200000000C11F4882352F0BB0F40F4BF2B11F4E5
:1020100060FF04C06F5F7F4F8F4F9F4F089557FD44
:102020009058440F551F59F05F3F71F04795880F46
:1020300097FB991F61F09F3F79F0879508951216DD
:1020400013061406551FF2CF4695F1DF08C0161689
:1020500017061806991FF1CF86957105610508943A
:102060000895E894BB2766277727CB0197F9089551
:1020700057DF08F48FEF08959B01AC0160E070E03A
:1020800080E89FE35ACE0BD0B9CFAADF28F0AFDFAC
:1020900018F0952309F068CF7BCF1124E3CFBFDF81
:1020A000A0F3959FD1F3950F50E0551F629FF0016B
:1020B000729FBB27F00DB11D639FAA27F00DB11DC4
:1020C000AA1F649F6627B00DA11D661F829F22274D
:1020D000B00DA11D621F739FB00DA11D621F839FD4
:1020E000A00D611D221F749F3327A00D611D231FAA
:1020F000849F600D211D822F762F6A2F11249F57F8
:1021000050408AF0E1F088234AF0EE0FFF1FBB1F1A
:10211000661F771F881F91505040A9F79E3F5105B9
:1021200070F022CF9FCF5F3FECF3983EDCF38695B3
:1021300077956795B795F795E7959F5FC1F7FE2B64
:10214000880F911D9695879597F908959B01AC018D
:102150009ACFCF93DF938230910510F482E090E024
:10216000E091A403F091A50320E030E0A0E0B0E00E
:10217000309739F14081518148175907B8F0481715
:10218000590771F482819381109729F013969C93DB
:102190008E9312972CC09093A5038093A40327C01D
:1021A0002115310531F04217530718F0A901DB0161
:1021B00001C0EF019A01BD01DF010280F381E02D32
:1021C000D7CF21153105F9F0281B390B2430310503
:1021D00080F48A819B816115710521F0FB01938355
:1021E000828304C09093A5038093A403FE013296DA
:1021F00044C0FE01E20FF31F8193919322503109F5
:10220000398328833AC02091A2033091A303232B62
:1022100041F420910202309103023093A3032093F2
:10222000A20320910002309101022115310541F4F1
:102230002DB73EB74091040250910502241B350B87
:10224000E091A203F091A303E217F307A0F42E1B81
:102250003F0B2817390778F0AC014E5F5F4F24170A
:10226000350748F04E0F5F1F5093A3034093A2031E
:102270008193919302C0E0E0F0E0CF01DF91CF9134
:102280000895CF93DF93009709F487C0FC0132973C
:1022900013821282C091A403D091A503209781F4E8
:1022A00020813181280F391F8091A2039091A303CF
:1022B0008217930779F5F093A303E093A2036DC00F
:1022C000DE0120E030E0AE17BF0750F412964D91CA
:1022D0005C9113979D014115510509F1DA01F3CF86
:1022E000B383A28340815181840F951F8A179B0776
:1022F00071F48D919C911197840F951F0296918393
:10230000808312968D919C911397938382832115DC
:10231000310529F4F093A503E093A4033EC0D9014D
:102320001396FC93EE9312974D915D91A40FB51FF8
:10233000EA17FB0779F480819181840F951F02963B
:10234000D90111969C938E938281938113969C93CD
:102350008E931297E0E0F0E08A819B81009719F05C
:10236000FE01EC01F9CFCE01029628813981820F5E
:10237000931F2091A2033091A3032817390769F412
:10238000309729F41092A5031092A40302C013827F
:102390001282D093A303C093A203DF91CF9108953B
:1023A000FB01DC018D91019080190110D9F3990B8B
:1023B0000895CF93DF93CDB7DEB7FE0136966191D6
:1023C0007191AF018091A8039091A9030E94181206
:1023D000DF91CF9108950F931F93CF93DF93E091F7
:1023E000A803F091A903238121FF1BC0EC0100E0A9
:1023F00010E089916091A8037091A903DB01189600
:10240000ED91FC911997882331F01995892B89F367
:102410000FEF1FEFEECF8AE01995892B11F4C80159
:1024200002C08FEF9FEFDF91CF911F910F91089521
:102430002F923F924F925F926F927F928F929F92D4
:10244000AF92BF92CF92DF92EF92FF920F931F93C2
:10245000CF93DF93CDB7DEB72C970FB6F894DEBFDE
:102460000FBECDBF7C016B018A01FC011782168271
:10247000838181FFBDC1CE0101964C01F70193819B
:10248000F60193FD859193FF81916F01882309F4F3
:10249000ABC1853239F493FD859193FF81916F0132
:1024A000853229F4B70190E00E942914E7CF512C1E
:1024B000312C20E02032A0F48B3269F030F48032ED
:1024C00059F0833269F420612CC08D3239F08033A9
:1024D00039F4216026C02260246023C0286021C016
:1024E00027FD27C030ED380F3A3078F426FF06C0BC
:1024F000FAE05F9E300D1124532E13C08AE0389EFF
:10250000300D1124332E20620CC08E3221F426FDB2
:102510006BC1206406C08C3611F4206802C0883676
:1025200041F4F60193FD859193FF81916F01811133
:10253000C1CF982F9F7D9554933028F40C5F1F4F87
:10254000FFE3F9830DC0833631F0833771F08335B3
:1025500009F05BC022C0F801808189830E5F1F4FA4
:1025600044244394512C540115C03801F2E06F0EFD
:10257000711CF801A080B18026FF03C0652D70E0BA
:1025800002C06FEF7FEFC5012C870E941E142C0143
:1025900083012C852F77222E17C03801F2E06F0EB1
:1025A000711CF801A080B18026FF03C0652D70E08A
:1025B00002C06FEF7FEFC5012C870E9413142C011E
:1025C0002C852068222E830123FC1BC0832D90E0E4
:1025D00048165906B0F4B70180E290E00E94291431
:1025E0003A94F4CFF50127FC859127FE81915F0194
:1025F000B70190E00E94291431103A94F1E04F1A8B
:1026000051084114510471F7E5C0843611F0893640
:1026100039F5F80127FF07C06081718182819381BC
:102620000C5F1F4F08C060817181882777FD8095FE
:10263000982F0E5F1F4F2F76B22E97FF09C09095EF
:102640008095709561957F4F8F4F9F4F2068B22E78
:102650002AE030E0A4010E945B14A82EA81844C010
:10266000853729F42F7EB22E2AE030E025C0F22FE4
:10267000F97FBF2E8F36C1F018F4883579F0B4C0D9
:10268000803719F0883721F0AFC02F2F2061B22E8C
:10269000B4FE0DC08B2D8460B82E09C024FF0AC083
:1026A0009F2F9660B92E06C028E030E005C020E1DB
:1026B00030E002C020E132E0F801B7FE07C06081DF
:1026C0007181828193810C5F1F4F06C0608171818F
:1026D00080E090E00E5F1F4FA4010E945B14A82EC3
:1026E000A818FB2DFF77BF2EB6FE0BC02B2D2E7F1B
:1026F000A51450F4B4FE0AC0B2FC08C02B2D2E7EE7
:1027000005C07A2C2B2D03C07A2C01C0752C24FF18
:102710000DC0FE01EA0DF11D8081803311F4297E88
:1027200009C022FF06C07394739404C0822F867878
:1027300009F0739423FD13C020FF06C05A2C7314B4
:1027400018F4530C5718732C731468F4B70180E213
:1027500090E02C870E94291473942C85F5CF731474
:1027600010F4371801C0312C24FF12C0B70180E3E8
:1027700090E02C870E9429142C8522FF17C021FF8E
:1027800003C088E590E002C088E790E0B7010CC084
:10279000822F867859F021FD02C080E201C08BE2D1
:1027A00027FD8DE2B70190E00E942914A51438F4AA
:1027B000B70180E390E00E9429145A94F7CFAA94BD
:1027C000F401EA0DF11D8081B70190E00E94291407
:1027D000A110F5CF332009F451CEB70180E290E08B
:1027E0000E9429143A94F6CFF7018681978102C09E
:1027F0008FEF9FEF2C960FB6F894DEBF0FBECDBFC4
:10280000DF91CF911F910F91FF90EF90DF90CF90CC
:10281000BF90AF909F908F907F906F905F904F9000
:102820003F902F900895FC01059061507040011079
:10283000D8F7809590958E0F9F1F0895FC016150E9
:10284000704001900110D8F7809590958E0F9F1FD2
:1028500008950F931F93CF93DF93182F092FEB0148
:102860008B8181FD03C08FEF9FEF20C082FF10C0DE
:102870004E815F812C813D81421753077CF4E881B2
:10288000F9819F012F5F3F4F39832883108306C052
:10289000E885F985812F1995892B29F72E813F81AC
:1028A0002F5F3F4F3F832E83812F902FDF91CF915A
:1028B0001F910F910895FA01AA27283051F1203174
:1028C00081F1E8946F936E7F6E5F7F4F8F4F9F4FC4
:1028D000AF4FB1E03ED0B4E03CD0670F781F891F06
:1028E0009A1FA11D680F791F8A1F911DA11D6A0FD4
:1028F000711D811D911DA11D20D009F468943F9187
:102900002AE0269F11243019305D3193DEF6CF0185
:102910000895462F4770405D4193B3E00FD0C9F74B
:10292000F6CF462F4F70405D4A3318F0495D31FDB8
:102930004052419302D0A9F7EACFB4E0A69597950B
:10294000879577956795BA95C9F7009761057105E1
:1029500008959B01AC010A2E06945795479537952B
:102960002795BA95C9F7620F731F841F951FA01D85
:062970000895F894FFCF6A
:102976000000AC03200025732C20000A546F7461FC
:102986006C20636F73743A2025660A005265616392
:10299600686564202573206E6F64652E0A005031C9
:1029A600005032005033005034005035005036008D
:1029B6005037005038005039005031300063310034
:1029C60063320063330063340063350063360063AB
:1029D60037006338006339006331300053007231C9
:1029E60000723200723300723400723500723600A3
:1029F600723700723800723900723130007231312C
:102A06000072313200723133007231340072313566
:102A16000072313600723137007231380048314465
:102A26004100483144420048324441004832444261
:102A3600004833444100483344420048344441008E
:102A46004834444200483544410048354442004831
:102A5600364441004836444200483744410048372E
:102A66004442004838444100483844420048310056
:102A7600483200483300483400483500483600489C
:102A860037004838004839004831300048313100B5
:102A9600483132004552524F523A20666F756E6485
:102AA6005F6E6F646520666F7220257320697320E0
:102AB6004E554C4C0A0A0A004552524F523A204E85
:102AC600554C4C20706F696E74657220666F72206B
:102AD600736F75726365206F7220746172676574B7
:102AE600202D2064696A6B737472612E630A0A0072
:102AF600546F6F206D616E792069746572617469B7
:062B06006F6E7321000058
:00000001FF
