:100000000C9472000C947E000C947E000C947E0084
:100010000C947E000C947E000C947E000C947E0068
:100020000C947E000C947E000C947E000C947E0058
:100030000C947E000C947E000C947E000C947E0048
:100040000C947E000C947E000C947E000C947E0038
:100050000C947E000C947E000C947E000C947E0028
:100060000C947E000C947E000C947E000C947E0018
:100070000C947E000C947E000C947E000C947E0008
:100080000C947E000C947E000C947E000C947E00F8
:100090000C947E000C947E000C947E000C947E00E8
:1000A0000C947E000C947E000C947E000C947E00D8
:1000B0000C947E000C947E000C947E000C947E00C8
:1000C0000C947E000C947E000C947E000C947E00B8
:1000D0000C947E000C947E000C947E000C947E00A8
:1000E0000C947E0011241FBECFEFD1E2DEBFCDBF46
:1000F00000E00CBF0E94AD000C94C6000C94000000
:100100003B9A439808950C94800086B1886088B922
:10011000089586B1877F88B90895CF93DF93EC0166
:100120000E948500CE010E94A1000E948900CE019C
:10013000DF91CF910C94A100F8940E9480007894F4
:1001400008951816190644F4E6E6FEE03197F1F733
:10015000000001970097C1F708950E949C000E943B
:1001600085002FEF8FEF9CE2215080409040E1F717
:1001700000C000000E9489002FEF8FEF96E8215009
:1001800080409040E1F700C00000E9CFF894FFCF35
:00000001FF
