:100000000C9472000C9493000C9493000C94930045
:100010000C9493000C94D0020C94AB020C949300BB
:100020000C9493000C9493000C9493000C94930004
:100030000C9493000C9493000C9493000C949300F4
:100040000C9493000C9493000C9493000C949300E4
:100050000C9493000C9493000C9493000C949300D4
:100060000C9493000C9493000C9493000C949300C4
:100070000C9493000C9493000C9493000C949300B4
:100080000C9493000C9493000C9493000C949300A4
:100090000C9493000C9493000C9493000C94930094
:1000A0000C9493000C9493000C9493000C94930084
:1000B0000C9493000C9493000C9493000C94930074
:1000C0000C9493000C9493000C9493000C94930064
:1000D0000C9493000C9493000C9493000C94930054
:1000E0000C94930011241FBECFEFD1E2DEBFCDBF31
:1000F00000E00CBF12E0A0E0B2E0ECE2FAE000E0C9
:100100000BBF02C007900D92A230B107D9F722E0D1
:10011000A2E0B2E001C01D92A132B207E1F70E9455
:10012000D1030C9414050C940000CF92DF92EF924F
:10013000FF920F931F93BC0180E090E00E94860421
:1001400028E431EE42E850E40E94F2030E945A048F
:100150006B01E12CF12C1092060210920702109212
:1001600008021092090210920A0210920B021092D9
:100170000C0210920D0282E00E943A0280930F025C
:1001800081E00E943A0280930E0240910602509153
:100190000702609108027091090200910A02109111
:1001A0000B0220910C0230910D020C151D052E053D
:1001B0003F0528F44C155D056E057F05E0F2883299
:1001C000D0F680910F028832B0F61F910F91FF9008
:1001D000EF90DF90CF900C941803CF92DF92EF92C4
:1001E000FF920F931F93BC0180E090E00E94860471
:1001F00028E431EE42E850E40E94F2030E945A04DF
:100200006B01E12CF12C1092060210920702109261
:1002100008021092090210920A0210920B02109228
:100220000C0210920D0283E00E943A0280931002A9
:1002300082E00E943A0280930F02409106025091A0
:100240000702609108027091090200910A02109160
:100250000B0220910C0230910D020C151D052E058C
:100260003F0528F44C155D056E057F05E0F2909181
:1002700010029832C0F68832B0F61F910F91FF90AD
:10028000EF90DF90CF900C9418030E9458020E94C8
:10029000B0030C949002CF93DF93EC01181619066B
:1002A0003CF40E940603CE01DF91CF910C9495009F
:1002B000009739F00E940903CE01DF91CF910C9491
:1002C000ED00DF91CF910895CF92DF92EF92FF92F0
:1002D000BC0180E090E00E94860425EE30ED4AEA01
:1002E00050E40E94F2030E945A046B017C011092B8
:1002F0000602109207021092080210920902109250
:100300000A0210920B0210920C0210920D028091C0
:10031000060290910702A0910802B0910902409153
:100320000A0250910B0260910C0270910D02C416EA
:10033000D506E606F70608F454C0C816D906EA063C
:10034000FB0608F44EC01092110283E00E943A02AC
:100350008093100282E00E943A0280930F0281E0B3
:100360000E943A0280930E0280910F02893238F087
:1003700081E0809311026FEF8FEF0E94FB0280916A
:100380001002883258F480911102811107C081E077
:100390008093110268EC8FEF0E94FB0280910E02A5
:1003A000883258F480911102811107C081E0809356
:1003B00011026FEF88EC0E94FB0280910F028832DD
:1003C00008F0A5CF80911002883208F0A0CF80916C
:1003D0000E02883208F09BCF88E691E00E944B0124
:1003E00096CFFF90EF90DF90CF900C941803CF93AF
:1003F000DF931F921F92CDB7DEB789839A830E9445
:10040000000389819A810F900F90DF91CF910C9416
:10041000640110BA11BA10920701109208010895F0
:100420000C940902E1E2F1E010828FEF8093250144
:1004300091E0909324011092290180932801109259
:100440002B0180932A0110922D0180932C0189EABF
:10045000809320018BE080830895EAE7F0E010822A
:1004600010927B0080E280937C0080E880BF86E869
:1004700080830895883018F098E090937B0087700F
:10048000806280937C0080917A00806480937A00FF
:1004900080917A0084FFFCCF8091790090917A005E
:1004A000906190937A0010927B0008950C943A0228
:1004B000F8940E9409020E942D020E941202789470
:1004C000089581B18F6081B982B1807F82B9EAE0FD
:1004D000F1E0808188618083EBE0F1E080818861D8
:1004E000808308956C98749A08956D98759A08950C
:1004F0000E9461020E9472020C947502F894EAE66E
:10050000F0E0808182608083EC9A78940895F8947A
:10051000EAE6F0E0808188608083ED9A789408951F
:10052000E1E2F1E010828FEF8093250191E090935A
:100530002401109229018093280110922B018093AD
:100540002A0110922D0180932C0189EA80932001C9
:100550008BE0808308951F920F920FB60F921124A3
:100560008F939F93AF93BF93809116029091170240
:10057000A0911802B09119020196A11DB11D80939E
:10058000160290931702A0931802B0931902BF911C
:10059000AF919F918F910F900FBE0F901F90189564
:1005A0001F920F920FB60F9211248F939F93AF93C8
:1005B000BF9380911A0290911B02A0911C02B091EE
:1005C0001D020196A11DB11D80931A0290931B027A
:1005D000A0931C02B0931D02BF91AF919F918F9188
:1005E0000F900FBE0F901F90189592B1907F8F7053
:1005F000892B82B908958093280160932A01089578
:1006000086E00C94F50289E00C94F50285E00C94E8
:10061000F5028AE00C94F50284E00C94F50282E085
:100620000C94F50281E00C94F50288E00C94F5023C
:1006300080E00C94F50210921602109217021092AC
:1006400018021092190210921A0210921B021092B4
:100650001C0210921D02BC0180E090E00E94860402
:1006600028E431EE42E850E40E94F2030E945A046A
:10067000672B11F40C941803FFCF109216021092FE
:1006800017021092180210921902FFCF0E94000365
:10069000109216021092170210921802109219026C
:1006A000FFCF0E94030310921602109217021092BD
:1006B000180210921902FFCFCF93DF931F921F925F
:1006C000CDB7DEB789839A830E94060389819A8118
:1006D0000F900F90DF91CF910C941B03CF93DF937A
:1006E0001F921F92CDB7DEB789839A830E940903B8
:1006F00089819A810F900F90DF91CF910C941B0309
:10070000CF93DF93EC010E940C03CE01880F991F59
:10071000DF91CF910C941B03CF93DF93EC010E94E8
:100720000F03CE01880F991FDF91CF910C941B030B
:10073000CF93DF93EC010E941203CE01880F991F23
:10074000DF91CF910C941B03CF93DF93EC010E94B8
:100750001503CE01880F991FDF91CF910C941B03D5
:10076000F8940E9478020E947E020E948702789488
:100770000895181619061CF40E945C0305C0919593
:10078000819591090E946E030C941803181619069E
:100790003CF4E6E6FEE03197F1F700000197F6CF72
:1007A00008950E9445016FEF8FEF0E94FB0284E6DF
:1007B00090E00E9464012FEF8FE796E12150804086
:1007C0009040E1F700C000008AE590E00E944B01F4
:1007D0002FEF8FE796E1215080409040E1F700C075
:1007E000000008950CD0E6C0DED040F0D5D030F047
:1007F00021F45F3F19F0C7C0511110C1CAC0EBD03E
:1008000098F39923C9F35523B1F3951B550BBB27D7
:10081000AA2762177307840738F09F5F5F4F220F84
:10082000331F441FAA1FA9F333D00E2E3AF0E0E87D
:1008300030D091505040E695001CCAF729D0FE2FC9
:1008400027D0660F771F881FBB1F2617370748075B
:10085000AB07B0E809F0BB0B802DBF01FF27935811
:100860005F4F2AF09E3F510568F08DC0D7C05F3FB3
:10087000ECF3983EDCF3869577956795B795F795F9
:100880009F5FC9F7880F911D9695879597F90895F1
:10089000E1E0660F771F881FBB1F6217730784078D
:1008A000BA0720F0621B730B840BBA0BEE1F88F79C
:1008B000E095089598D088F09F5790F0B92F992728
:1008C000B751A0F0D1F0660F771F881F991F1AF05B
:1008D000BA95C9F712C0B13081F09FD0B1E0089548
:1008E0009CC0672F782F8827B85F39F0B93FCCF3C9
:1008F000869577956795B395D9F73EF49095809551
:10090000709561957F4F8F4F9F4F0895E89409C070
:1009100097FB3EF490958095709561957F4F8F4F32
:100920009F4F9923A9F0F92F96E9BB279395F69548
:10093000879577956795B795F111F8CFFAF4BB0FC6
:1009400011F460FF1BC06F5F7F4F8F4F9F4F16C02A
:10095000882311F096E911C0772321F09EE8872FB4
:10096000762F05C0662371F096E8862F70E060E070
:100970002AF09A95660F771F881FDAF7880F9695E9
:10098000879597F9089597F99F6780E870E060E090
:1009900008959FEF80EC089500240A941616170618
:1009A00018060906089500240A9412161306140660
:1009B00005060895092E0394000C11F4882352F0C3
:1009C000BB0F40F4BF2B11F460FF04C06F5F7F4F7B
:1009D0008F4F9F4F089557FD9058440F551F59F062
:1009E0005F3F71F04795880F97FB991F61F09F3F1C
:1009F00079F087950895121613061406551FF2CF45
:100A00004695F1DF08C0161617061806991FF1CF94
:100A100086957105610508940895E894BB276627BB
:0C0A20007727CB0197F90895F894FFCFD9
:020A2C00FF00C9
:00000001FF
