:100000000C9472000C9493000C9493000C94930045
:100010000C9493000C940D020C94E8010C94930042
:100020000C9493000C9493000C9493000C94930004
:100030000C9493000C9493000C9493000C949300F4
:100040000C9493000C9493000C9493000C949300E4
:100050000C9493000C9493000C9493000C949300D4
:100060000C9493000C9493000C9493000C949300C4
:100070000C9493000C9493000C9493000C949300B4
:100080000C9493000C9493000C9493000C949300A4
:100090000C9493000C9493000C9493000C94930094
:1000A0000C9493000C9493000C9493000C94930084
:1000B0000C9493000C9493000C9493000C94930074
:1000C0000C9493000C9493000C9493000C94930064
:1000D0000C9493000C9493000C9493000C94930054
:1000E0000C94930011241FBECFEFD1E2DEBFCDBF31
:1000F00000E00CBF12E0A0E0B2E0E6EBF9E000E0C7
:100100000BBF02C007900D92A430B107D9F712E0DF
:10011000A4E0B2E001C01D92A931B107E1F70E944D
:100120009A030C94D9040C9400000E9495010E943B
:1001300055030C94CD010E94770121E030E0893213
:1001400010F420E030E0C90108958F929F92AF92A1
:10015000BF92CF92DF92EF92FF92CF935C01BC01EE
:1001600080E090E00E944B0428E431EE42E850E445
:100170000E94B7030E941F046B01E12CF12CB50112
:100180006451710980E090E00E944B0428E431EE54
:1001900042E850E40E94B7030E941F044B01A12CC7
:1001A000B12C0E9474030E946B030E947D0390E0B7
:1001B000A0E0B0E0C1E08C159D05AE05BF0508F4D8
:1001C000C0E00E94860390E0A0E0B0E08C159D05A1
:1001D000AE05BF0510F4CC2369F00E94550282E001
:1001E00090E00E949B0021E030E0892BF1F020E0BC
:1001F00030E01BC082E090E00E949B00892BA9F2B6
:100200000E947D0390E0A0E0B0E088159905AA0562
:10021000BB0518F70E94860390E0A0E0B0E08815C7
:100220009905AA05BB0508F2D8CFC901CF91FF9067
:10023000EF90DF90CF90BF90AF909F908F900895F8
:10024000CF93DF93EC011816190654F40E94430271
:10025000CE010E94A5000197A9F40E9446020EC09B
:10026000009781F00E944602882799278C1B9D0BDE
:100270000E94A500019731F40E94430284E190E0BE
:100280000E945802DF91CF910C94550210BA11BA16
:10029000109207011092080108950C944601E1E2C2
:1002A000F1E010828FEF8093250191E0909324017B
:1002B000109229018093280110922B0180932A012A
:1002C00010922D0180932C0189EA809320018BE00C
:1002D00080830895EAE7F0E0108210927B0080E2CC
:1002E00080937C0080E880BF86E880830895883012
:1002F00018F098E090937B008770806280937C0078
:1003000080917A00806480937A0080917A0084FFE3
:10031000FCCF8091790090917A00906190937A005F
:1003200010927B0008950C947701F8940E94460186
:100330000E946A010E944F017894089581B18F60F4
:1003400081B982B1807F82B9EAE0F1E08081886181
:100350008083EBE0F1E080818861808308956C9870
:10036000749A08956D98759A08950E949E010E944E
:10037000AF010C94B201F894EAE6F0E0808182606B
:100380008083EC9A78940895F894EAE6F0E080810E
:1003900088608083ED9A78940895E1E2F1E010821C
:1003A0008FEF8093250191E0909324011092290111
:1003B0008093280110922B0180932A0110922D0125
:1003C00080932C0189EA809320018BE0808308953B
:1003D0001F920F920FB60F9211248F939F93AF939A
:1003E000BF9380910B0290910C02A0910D02B091ED
:1003F0000E020196A11DB11D80930B0290930C0279
:10040000A0930D02B0930E02BF91AF919F918F9177
:100410000F900FBE0F901F9018951F920F920FB65E
:100420000F9211248F939F93AF93BF9380910F02EC
:1004300090911002A0911102B09112020196A11D9B
:10044000B11D80930F0290931002A0931102B093FC
:100450001202BF91AF919F918F910F900FBE0F909D
:100460001F90189592B1907F8F70892B82B9089553
:100470008093280160932A01089586E00C9432024B
:1004800089E00C94320285E00C9432028AE00C94EC
:10049000320284E00C94320282E00C94320281E059
:1004A0000C94320288E00C94320280E00C94320208
:1004B0000F931F93BC0180E090E00E944B0428E45E
:1004C00031EE42E850E40E94B7030E941F04CB01C2
:1004D000A0E0B0E010920B0210920C0210920D02FC
:1004E00010920E0210920F0210921002109211023E
:1004F0001092120240910B0250910C0260910D0279
:1005000070910E0200910F021091100220911102C1
:1005100030911202081719072A073B0728F44817D9
:1005200059076A077B0730F31F910F910C9455020E
:10053000CF92DF92EF92FF920F931F93BC0180E066
:1005400090E00E944B0425EE30ED4AEA50E40E9410
:10055000B7030E941F0410920B0210920C0210921B
:100560000D0210920E0210920F02109210021092C1
:1005700011021092120200910B0210910C022091B4
:100580000D0230910E02C0900F02D0901002E09048
:100590001102F09012026C157D058E059F0528F062
:1005A000601771078207930730F71F910F91FF9033
:1005B000EF90DF90CF900C945502CF93DF931F9272
:1005C0001F92CDB7DEB789839A830E943D0289814D
:1005D0009A810F900F90DF91CF910C949802CF9356
:1005E000DF931F921F92CDB7DEB789839A830E9453
:1005F000400289819A810F900F90DF91CF910C94E6
:100600009802CF93DF931F921F92CDB7DEB78983F5
:100610009A830E94430289819A810F900F90DF9103
:10062000CF910C945802CF93DF931F921F92CDB7B6
:10063000DEB789839A830E94460289819A810F904E
:100640000F90DF91CF910C945802CF93DF93EC0180
:100650000E944902CE01880F991FDF91CF910C941F
:100660005802CF93DF93EC010E944C02CE01880F19
:10067000991FDF91CF910C945802CF93DF93EC0137
:100680000E944F02CE01880F991FDF91CF910C94E9
:100690005802CF93DF93EC010E945202CE01880FE3
:1006A000991FDF91CF910C945802F8940E94B501E4
:1006B0000E94BB010E94C40178940895181619067F
:1006C0001CF40E94010305C09195819591090E9437
:1006D00013030C94550210920B0210920C0210920C
:1006E0000D0210920E02089510920F021092100245
:1006F0001092110210921202089580910B029091B3
:100700000C02A0910D02B0910E02089580910F028B
:1007100090911002A0911102B09112020895181642
:1007200019063CF4E6E6FEE03197F1F70000019788
:10073000F6CF08950E9495008AE590E00E9420017E
:100740002FEF8FEF9CE2215080409040E1F700C0F6
:10075000000086EA9FEF0E9420012FEF8FEF9CE2BE
:10076000215080409040E1F700C00000E5CF0CD060
:10077000E6C0DED040F0D5D030F021F45F3F19F074
:10078000C7C0511110C1CAC0EBD098F39923C9F367
:100790005523B1F3951B550BBB27AA276217730787
:1007A000840738F09F5F5F4F220F331F441FAA1F3B
:1007B000A9F333D00E2E3AF0E0E830D091505040FB
:1007C000E695001CCAF729D0FE2F27D0660F771FA9
:1007D000881FBB1F261737074807AB07B0E809F08B
:1007E000BB0B802DBF01FF2793585F4F2AF09E3F20
:1007F000510568F08DC0D7C05F3FECF3983EDCF345
:10080000869577956795B795F7959F5FC9F7880F98
:10081000911D9695879597F90895E1E0660F771FEA
:10082000881FBB1F621773078407BA0720F0621B7B
:10083000730B840BBA0BEE1F88F7E095089598D0E0
:1008400088F09F5790F0B92F9927B751A0F0D1F0B9
:10085000660F771F881F991F1AF0BA95C9F712C043
:10086000B13081F09FD0B1E008959CC0672F782F00
:100870008827B85F39F0B93FCCF3869577956795AF
:10088000B395D9F73EF490958095709561957F4F1B
:100890008F4F9F4F0895E89409C097FB3EF49095C1
:1008A0008095709561957F4F8F4F9F4F9923A9F049
:1008B000F92F96E9BB279395F695879577956795D8
:1008C000B795F111F8CFFAF4BB0F11F460FF1BC01C
:1008D0006F5F7F4F8F4F9F4F16C0882311F096E9AF
:1008E00011C0772321F09EE8872F762F05C066235D
:1008F00071F096E8862F70E060E02AF09A95660F16
:10090000771F881FDAF7880F9695879597F90895CE
:1009100097F99F6780E870E060E008959FEF80ECB2
:10092000089500240A941616170618060906089555
:1009300000240A9412161306140605060895092EBB
:100940000394000C11F4882352F0BB0F40F4BF2B2A
:1009500011F460FF04C06F5F7F4F8F4F9F4F08956A
:1009600057FD9058440F551F59F05F3F71F0479560
:10097000880F97FB991F61F09F3F79F08795089545
:10098000121613061406551FF2CF4695F1DF08C064
:10099000161617061806991FF1CF86957105610581
:1009A00008940895E894BB2766277727CB0197F929
:0609B0000895F894FFCF4A
:0409B600E6FF140044
:00000001FF
