:100000000C9472000C9493000C9493000C94930045
:100010000C9493000C9404030C94DF020C94930052
:100020000C9493000C9493000C9493000C94930004
:100030000C9493000C9493000C9493000C949300F4
:100040000C9493000C9493000C9493000C949300E4
:100050000C9493000C9493000C9493000C949300D4
:100060000C9493000C9493000C9493000C949300C4
:100070000C9493000C9493000C9493000C949300B4
:100080000C9493000C9493000C9493000C949300A4
:100090000C9493000C9493000C9493000C94930094
:1000A0000C9493000C9493000C9493000C94930084
:1000B0000C9493000C9493000C9493000C94930074
:1000C0000C9493000C9493000C9493000C94930064
:1000D0000C9493000C9493000C9493000C94930054
:1000E0000C94930011241FBECFEFD1E2DEBFCDBF31
:1000F00000E00CBF12E0A0E0B2E0E4E6FBE000E0CC
:100100000BBF02C007900D92A430B107D9F722E0CF
:10011000A4E0B2E001C01D92AA32B207E1F70E944A
:100120006D040C94B0050C9400008F929F92AF92D6
:10013000BF92CF92DF92EF92FF920F931F938C01A9
:10014000BC016B5F7F4F80E090E00E94220528E4B5
:1001500031EE42E850E40E948E040E94F6046B01E6
:10016000E12CF12CB8016550710980E090E00E940B
:10017000220528E431EE42E850E40E948E040E94F9
:10018000F6044B01A12CB12C109208021092090226
:1001900010920A0210920B0210920C0210920D02A1
:1001A00010920E0210920F0282E00E946E02E82F5F
:1001B00080931102409108025091090260910A0255
:1001C00070910B0200910C0210910D0220910E0211
:1001D00030910F020C151D052E053F0528F44C1516
:1001E0005D056E057F0538F081E090E0E93208F1A9
:1001F00080E090E01EC08932B8F240910802509130
:10020000090260910A0270910B02481559056A05AE
:100210007B0550F740910C0250910D0260910E0247
:1002200070910F02481559056A057B0508F4BCCF8B
:10023000DBCF1F910F91FF90EF90DF90CF90BF9099
:10024000AF909F908F90089583E00E946E028093FC
:10025000120282E00E946E028093110281E00E94ED
:100260006E028093100208950E948C020E944C043A
:100270000C94C402CF93DF93EC011816190654F4C2
:100280000E943A03CE010E9495000197A1F40E94BA
:100290003D030BC0009779F00E943D03CE010E9400
:1002A0009500019741F40E943A0385E090E0DF91C8
:1002B000CF910C944F03DF91CF91089521E030E06E
:1002C000893210F420E030E0C9010895CF92DF9226
:1002D000EF92FF92CF93BC0180E090E00E94220554
:1002E00025EE30ED4AEA50E40E948E040E94F604A6
:1002F0006B017C01109217021092160210921502E7
:1003000010921402109208021092090210920A022E
:1003100010920B0210920C0210920D0210920E021B
:1003200010920F02C1E08091080290910902A09101
:100330000A02B0910B0240910C0250910D026091A3
:100340000E0270910F02C416D506E606F70608F4F1
:1003500058C0C816D906EA06FB0608F452C00E9427
:1003600024011092130280911102893208F050C0CA
:10037000809112028932F0F08091130281111AC02B
:10038000C093130260910002809101020E942F032A
:100390008091160290911702019690931702809314
:1003A000160282309105E1F5609101028091000210
:1003B0000E942F03809110028932F0F08091130285
:1003C00081111AC0C0931302609101028091000252
:1003D0000E942F0380911402909115020196909330
:1003E0001502809314028230910501F5609100029C
:1003F000809101020E942F03809111028932E0F462
:1004000092CFCF91FF90EF90DF90CF900C944C0360
:10041000C093130280910102682F0E942F03A8CF7E
:10042000039741F680910102682FC2CF039721F70D
:1004300080910102682FDECF80911202893208F488
:1004400072CF80911002893208F46DCF88E691E076
:100450000E943A0168CFCF93DF931F921F92CDB7CE
:10046000DEB789839A830E94340389819A810F9031
:100470000F90DF91CF910C94660110BA11BA1092CF
:1004800007011092080108950C943D02E1E2F1E0A9
:1004900010828FEF8093250191E0909324011092B8
:1004A00029018093280110922B0180932A01109238
:1004B0002D0180932C0189EA809320018BE08083B9
:1004C0000895EAE7F0E0108210927B0080E28093CA
:1004D0007C0080E880BF86E880830895883018F02B
:1004E00098E090937B008770806280937C0080917D
:1004F0007A00806480937A0080917A0084FFFCCF38
:100500008091790090917A00906190937A00109296
:100510007B0008950C946E02F8940E943D020E94A4
:1005200061020E9446027894089581B18F6081B97A
:1005300082B1807F82B9EAE0F1E0808188618083C6
:10054000EBE0F1E080818861808308956C98749A73
:1005500008956D98759A08950E9495020E94A602CA
:100560000C94A902F894EAE6F0E08081826080832E
:10057000EC9A78940895F894EAE6F0E08081886037
:100580008083ED9A78940895E1E2F1E010828FEF94
:100590008093250191E0909324011092290180938A
:1005A000280110922B0180932A0110922D01809333
:1005B0002C0189EA809320018BE0808308951F92AB
:1005C0000F920FB60F9211248F939F93AF93BF9307
:1005D00080911C0290911D02A0911E02B0911F02F9
:1005E0000196A11DB11D80931C0290931D02A09342
:1005F0001E02B0931F02BF91AF919F918F910F90F8
:100600000FBE0F901F9018951F920F920FB60F926A
:1006100011248F939F93AF93BF9380912002909169
:100620002102A0912202B09123020196A11DB11DC9
:100630008093200290932102A0932202B093230280
:10064000BF91AF919F918F910F900FBE0F901F9010
:10065000189592B1907F8F70892B82B908958093FD
:10066000280160932A01089586E00C94290389E00B
:100670000C94290385E00C9429038AE00C94290347
:1006800084E00C94290382E00C94290381E00C940B
:10069000290388E00C94290380E00C9429030F932C
:1006A0001F93BC0180E090E00E94220528E431EE17
:1006B00042E850E40E948E040E94F604CB01A0E0C0
:1006C000B0E010921C0210921D0210921E021092B5
:1006D0001F02109220021092210210922202109208
:1006E000230240911C0250911D0260911E027091E4
:1006F0001F020091200210912102209122023091CC
:100700002302081719072A073B0728F44817590737
:100710006A077B0730F31F910F910C944C03CF9223
:10072000DF92EF92FF920F931F93BC0180E090E065
:100730000E94220525EE30ED4AEA50E40E948E0424
:100740000E94F60410921C0210921D0210921E02CA
:1007500010921F0210922002109221021092220287
:100760001092230200911C0210911D0220911E0282
:1007700030911F02C0902002D0902102E09022020E
:10078000F09023026C157D058E059F0528F06017FB
:1007900071078207930730F71F910F91FF90EF9039
:1007A000DF90CF900C944C03CF93DF931F921F9256
:1007B000CDB7DEB789839A830E94340389819A81F9
:1007C0000F900F90DF91CF910C948F03CF93DF9315
:1007D0001F921F92CDB7DEB789839A830E94370399
:1007E00089819A810F900F90DF91CF910C948F03A4
:1007F000CF93DF931F921F92CDB7DEB789839A8381
:100800000E943A0389819A810F900F90DF91CF91D6
:100810000C944F03CF93DF931F921F92CDB7DEB797
:1008200089839A830E943D0389819A810F900F905A
:10083000DF91CF910C944F03CF93DF93EC010E9493
:100840004003CE01880F991FDF91CF910C944F0385
:10085000CF93DF93EC010E944303CE01880F991FD1
:10086000DF91CF910C944F03CF93DF93EC010E9463
:100870004603CE01880F991FDF91CF910C944F034F
:10088000CF93DF93EC010E944903CE01880F991F9B
:10089000DF91CF910C944F03F8940E94AC020E9418
:1008A000B2020E94BB0278940895181619061CF42F
:1008B0000E94F80305C09195819591090E940A0450
:1008C0000C944C03181619063CF4E6E6FEE031974A
:1008D000F1F700000197F6CF08950E9434016FEF01
:1008E0008FEF0E942F0384E690E00E9466012FEFB5
:1008F0008FE796E1215080409040E1F700C0000072
:100900008AE590E00E943A012FEF8FE796E12150AF
:1009100080409040E1F700C0000008950CD0E6C090
:10092000DED040F0D5D030F021F45F3F19F0C7C0E1
:10093000511110C1CAC0EBD098F39923C9F35523C4
:10094000B1F3951B550BBB27AA27621773078407C2
:1009500038F09F5F5F4F220F331F441FAA1FA9F378
:1009600033D00E2E3AF0E0E830D091505040E6956A
:10097000001CCAF729D0FE2F27D0660F771F881FCB
:10098000BB1F261737074807AB07B0E809F0BB0BBA
:10099000802DBF01FF2793585F4F2AF09E3F5105DE
:1009A00068F08DC0D7C05F3FECF3983EDCF38695CE
:1009B00077956795B795F7959F5FC9F7880F911D54
:1009C0009695879597F90895E1E0660F771F881F40
:1009D000BB1F621773078407BA0720F0621B730BF3
:1009E000840BBA0BEE1F88F7E095089598D088F035
:1009F0009F5790F0B92F9927B751A0F0D1F0660F0B
:100A0000771F881F991F1AF0BA95C9F712C0B13025
:100A100081F09FD0B1E008959CC0672F782F882780
:100A2000B85F39F0B93FCCF3869577956795B39564
:100A3000D9F73EF490958095709561957F4F8F4FD3
:100A40009F4F0895E89409C097FB3EF490958095D8
:100A5000709561957F4F8F4F9F4F9923A9F0F92F84
:100A600096E9BB279395F695879577956795B79502
:100A7000F111F8CFFAF4BB0F11F460FF1BC06F5FE8
:100A80007F4F8F4F9F4F16C0882311F096E911C0FA
:100A9000772321F09EE8872F762F05C0662371F01B
:100AA00096E8862F70E060E02AF09A95660F771F2F
:100AB000881FDAF7880F9695879597F9089597F923
:100AC0009F6780E870E060E008959FEF80EC0895F4
:100AD00000240A941616170618060906089500241D
:100AE0000A9412161306140605060895092E039497
:100AF000000C11F4882352F0BB0F40F4BF2B11F40B
:100B000060FF04C06F5F7F4F8F4F9F4F089557FD69
:100B10009058440F551F59F05F3F71F04795880F6B
:100B200097FB991F61F09F3F79F087950895121602
:100B300013061406551FF2CF4695F1DF08C01616AE
:100B400017061806991FF1CF86957105610508945F
:100B50000895E894BB2766277727CB0197F9089576
:040B6000F894FFCF37
:040B6400C8FF0500C1
:00000001FF
