:100000000C947A000C948E000C948E000C948E004C
:100010000C948E000C948E000C948E000C948E0028
:100020000C948E000C948E000C948E000C948E0018
:100030000C948E000C948E000C948E000C948E0008
:100040000C948E000C948E000C948E000C948E00F8
:100050000C948E000C948E000C948E000C948E00E8
:100060000C948E000C948E000C948E000C948E00D8
:100070000C948E000C948E000C948E000C948E00C8
:100080000C948E000C948E000C948E000C948E00B8
:100090000C948E000C948E000C948E000C948E00A8
:1000A0000C948E000C948E000C948E000C948E0098
:1000B0000C948E000C948E000C948E000C948E0088
:1000C0000C948E000C948E000C948E000C948E0078
:1000D0000C948E000C948E000C948E000C948E0068
:1000E0000C948E000C9404020C94CA010C94E70149
:1000F0000C94210211241FBECFEFD1E2DEBFCDBF91
:1001000000E00CBF12E0A0E0B2E001C01D92A430FC
:10011000B107E1F70E9477030C94F20F0C940000F2
:10012000CF93DF93CDB7DEB784E290E024E230E0F6
:10013000F90120812062FC01208385E290E025E224
:1001400030E0F90120812062FC012083DF91CF9112
:100150000895CF93DF93CDB7DEB784E290E024E239
:1001600030E0F90120812064FC01208385E290E0E9
:1001700025E230E0F90120812064FC012083DF9139
:10018000CF910895CF93DF93CDB7DEB784E290E0AF
:1001900024E230E0F90120812068FC01208385E21F
:1001A00090E025E230E0F90120812068FC01208305
:1001B000DF91CF910895CF93DF93CDB7DEB781E084
:1001C00091E021E031E0F90120812061FC012083F0
:1001D00082E091E022E031E0F90120812061FC0120
:1001E0002083DF91CF910895CF93DF93CDB7DEB712
:1001F0000E9490000E94A9000E94C2000E94DB00A1
:10020000DF91CF910895CF93DF93CDB7DEB781E82B
:1002100090E0FC01108285E890E02CEFFC01208347
:1002200084E890E021E0FC01208389E890E023E06D
:10023000FC01208388E890E02FEFFC0120838BE80D
:1002400090E023E0FC0120838AE890E02FEFFC019E
:1002500020838DE890E023E0FC0120838CE890E08F
:100260002FEFFC01208387E890E023E0FC0120834E
:1002700086E890E02FEFFC01208380E890E02BEAF5
:10028000FC01208382E890E0FC01108281E890E08C
:100290002CE0FC01208381EA90E0FC01108285EAD9
:1002A00090E02CEFFC01208384EA90E021E0FC0147
:1002B00020838BEA90E023E0FC0120838AEA90E02F
:1002C0002FEFFC01208387EA90E023E0FC012083EC
:1002D00086EA90E02FEFFC01208380EA90E02BEA91
:1002E000FC01208382EA90E0FC01108281EA90E028
:1002F0002CE0FC012083DF91CF910895CF93DF9311
:10030000CDB7DEB7F8940E94F4000E940301789400
:10031000DF91CF910895CF93DF9300D01F921F926A
:10032000CDB7DEB78D8319821A821B821C828D8124
:10033000882F90E0A0E0B0E0BC01CD010E94D90E72
:10034000DC01CB012BE734E14EEE5FE3BC01CD01D4
:100350000E94450EDC01CB0120E030E04CE052E48D
:10036000BC01CD010E94DD0DDC01CB0189839A83A4
:10037000AB83BC8369817A818B819C810E94AD0EA5
:10038000DC01CB010F900F900F900F900F90DF9139
:10039000CF9108950F931F93CF93DF931F92CDB703
:1003A000DEB7898389E890E0FC011082898180931F
:1003B000000208E810E0809100020E948B01F80121
:1003C00080830F90DF91CF911F910F9108950F932C
:1003D0001F93CF93DF931F92CDB7DEB789838BE84E
:1003E00090E0FC0110828981809301020AE810E00C
:1003F000809101020E948B01F80180830F90DF91B0
:10040000CF911F910F9108950F931F93CF93DF9377
:100410001F92CDB7DEB789838DE890E0FC01108292
:100420008981809302020CE810E0809102020E9410
:100430008B01F80180830F90DF91CF911F910F9175
:1004400008950F931F93CF93DF931F92CDB7DEB71D
:1004500089838BEA90E0FC011082898180930302FA
:100460000AEA10E0809103020E948B01F801808368
:100470000F90DF91CF911F910F910895CF93DF934C
:10048000CDB7DEB767970FB6F894DEBF0FBECDBF0E
:100490009E8B8D8B6F8B1A82198281E090E09C83FA
:1004A0008B838F89853B08F0D5C08D899E898130EB
:1004B000910559F480910002882F90E09A838983F6
:1004C0008AEC91E09E838D832FC08D899E89823036
:1004D000910559F480910102882F90E09A838983D5
:1004E00087EE91E09E838D831FC08D899E89833026
:1004F000910559F480910202882F90E09A838983B4
:1005000084E092E09E838D830FC08D899E89843024
:10051000910551F480910302882F90E09A8389839A
:1005200081E292E09E838D838F89282F30E089813C
:100530009A81281739072CF48FEF9FEF9C838B83C8
:1005400080C07FC089812D813E81F9011995298163
:100550003A818B819C81820F931F9A83898380E0EB
:1005600090E0A0E2B1E48F839887A987BA8726E656
:1005700036E646E655E46F81788589859A850E943E
:100580008F0FDC01CB018B879C87AD87BE8720E076
:1005900030E040E85FE36B857C858D859E850E9419
:1005A000410E88232CF481E090E0988B8F873FC028
:1005B00020E03FEF4FE757E46B857C858D859E8576
:1005C0000E948B0F18164CF520E030E040E251E419
:1005D0006F81788589859A850E948F0FDC01CB0118
:1005E000BC01CD010E94AD0EDC01CB01988B8F8741
:1005F0000FC080E791E09A8B898B89899A8901974E
:10060000F1F79A8B898B8F8598890197988B8F87C3
:100610008F859889009769F714C06B857C858D85D7
:100620009E850E94AD0EDC01CB01988B8F878F8554
:1006300098899C8B8B8B8B899C890197F1F79C8B7C
:100640008B8B8F89282F30E089819A812817390771
:1006500009F078CF67960FB6F894DEBF0FBECDBF16
:10066000DF91CF910895CF93DF93CDB7DEB789E8BF
:1006700090E023E0FC01208388E890E02FEFFC016C
:100680002083DF91CF910895CF93DF93CDB7DEB76D
:100690008BE890E023E0FC0120838AE890E02FEFD4
:1006A000FC012083DF91CF910895CF93DF93CDB7E5
:1006B000DEB78DE890E023E0FC0120838CE890E039
:1006C0002FEFFC012083DF91CF910895CF93DF932B
:1006D000CDB7DEB78BEA90E023E0FC0120838AEA05
:1006E00090E02FEFFC012083DF91CF9108950F93CD
:1006F0001F93CF93DF93CDB7DEB7C45DD1090FB69B
:10070000F894DEBF0FBECDBF0E947E0184E190E071
:100710009A83898380EA90E09C838B8382E890E0CF
:100720009E838D8382E390E098878F838CE390E0B3
:100730009A8789878DE790E09C878B8788E790E090
:100740009E878D878FE590E0988B8F878981682FB2
:1007500081E090E00E943E0280E090E0AAE7B4E4ED
:10076000898B9A8BAB8BBC8B26E636E646E655E446
:1007700069897A898B899C890E948F0FDC01CB0162
:100780008D8B9E8BAF8BB88F20E030E040E85FE32D
:100790006D897E898F89988D0E94410E88232CF463
:1007A00081E090E09A8F898F3FC020E03FEF4FE7D4
:1007B00057E46D897E898F89988D0E948B0F18165A
:1007C0004CF520E030E040E251E469897A898B8978
:1007D0009C890E948F0FDC01CB01BC01CD010E94DE
:1007E000AD0EDC01CB019A8F898F0FC080E791E0BD
:1007F0009C8F8B8F8B8D9C8D0197F1F79C8F8B8FAE
:10080000898D9A8D01979A8F898F898D9A8D0097FE
:1008100069F714C06D897E898F89988D0E94AD0E0D
:10082000DC01CB019A8F898F898D9A8D9E8F8D8F58
:100830008D8D9E8D0197F1F79E8F8D8F8B81682F07
:1008400084E090E00E943E0280E090E0AAE7B4E4F9
:100850008F8F98A3A9A3BAA326E636E646E655E409
:100860006F8D78A189A19AA10E948F0FDC01CB0125
:100870008BA39CA3ADA3BEA320E030E040E85FE3E0
:100880006BA17CA18DA19EA10E94410E88232CF416
:1008900081E090E098A78FA33FC020E03FEF4FE7B3
:1008A00057E46BA17CA18DA19EA10E948B0F18160D
:1008B0004CF520E030E040E251E46F8D78A189A151
:1008C0009AA10E948F0FDC01CB01BC01CD010E94D7
:1008D000AD0EDC01CB0198A78FA30FC080E791E09C
:1008E0009AA789A789A59AA50197F1F79AA789A739
:1008F0008FA198A5019798A78FA38FA198A500977E
:1009000069F714C06BA17CA18DA19EA10E94AD0EC0
:10091000DC01CB0198A78FA38FA198A59CA78BA7DB
:100920008BA59CA50197F1F79CA78BA78B85682FBA
:1009300082E090E00E943E0280E090E0AAE7B4E40A
:100940008DA79EA7AFA7B8AB26E636E646E655E4E8
:100950006DA57EA58FA598A90E948F0FDC01CB0104
:1009600089AB9AABABABBCAB20E030E040E85FE3D7
:1009700069A97AA98BA99CA90E94410E88232CF40D
:1009800081E090E09EAB8DAB3FC020E03FEF4FE7B2
:1009900057E469A97AA98BA99CA90E948B0F181604
:1009A0004CF520E030E040E251E46DA57EA58FA536
:1009B00098A90E948F0FDC01CB01BC01CD010E94E0
:1009C000AD0EDC01CB019EAB8DAB0FC080E791E09B
:1009D00098AF8FAB8FA998AD0197F1F798AF8FAB18
:1009E0008DA99EA901979EAB8DAB8DA99EA900975D
:1009F00069F714C069A97AA98BA99CA90E94AD0EB8
:100A0000DC01CB019EAB8DAB8DA99EA99AAF89AFBE
:100A100089AD9AAD0197F1F79AAF89AF8985682FB3
:100A200083E090E00E943E0280E090E0AAE7B4E418
:100A30008BAF9CAFADAFBEAF8E01015C1F4F26E602
:100A400036E646E655E46BAD7CAD8DAD9EAD0E94BD
:100A50008F0FDC01CB01F80180839183A283B383E4
:100A6000CE01CF9620E030E040E85FE3FC016081FA
:100A70007181828193810E94410E88234CF4CE01C2
:100A80008D5B9F4F21E030E0FC013183208367C004
:100A9000CE01CF9620E03FEF4FE757E4FC016081A5
:100AA0007181828193810E948B0F18160CF046C0D1
:100AB00020E030E040E251E46BAD7CAD8DAD9EAD09
:100AC0000E948F0FDC01CB018E010D5B1F4FBC011B
:100AD000CD010E94AD0EDC01CB01F8019183808332
:100AE00024C0CE018B5B9F4F20E731E0FC013183B6
:100AF0002083CE018B5B9F4FFC0180819181019708
:100B0000F1F79E012B5B3F4FF90191838083CE016A
:100B10008D5B9F4F9E012D5B3F4FF90120813181FD
:100B200021503109FC0131832083CE018D5B9F4F21
:100B3000FC01808191810097A1F62BC08E010D5B95
:100B40001F4FCE01CF96FC0160817181828193811C
:100B50000E94AD0EDC01CB01F80191838083CE01B0
:100B6000895B9F4F9E012D5B3F4FF90120813181B1
:100B7000FC0131832083CE01895B9F4FFC01808182
:100B800091810197F1F79E01295B3F4FF901918314
:100B900080838D81682F81E090E00E943E029E015B
:100BA000275B3F4F80E090E0AAE7B4E4F90180833F
:100BB0009183A283B3838E01035B1F4FCE01875BBA
:100BC0009F4F26E636E646E655E4FC0160817181DA
:100BD000828193810E948F0FDC01CB01F801808319
:100BE0009183A283B383CE01835B9F4F20E030E0EB
:100BF00040E85FE3FC0160817181828193810E9402
:100C0000410E88234CF4CE018F5A9F4F21E030E0F3
:100C1000FC01318320836DC0CE01835B9F4F20E0B8
:100C20003FEF4FE757E4FC0160817181828193813E
:100C30000E948B0F18160CF04AC0CE01875B9F4FA5
:100C400020E030E040E251E4FC016081718182816A
:100C500093810E948F0FDC01CB018E010F5A1F4F31
:100C6000BC01CD010E94AD0EDC01CB01F8019183E6
:100C7000808324C0CE018D5A9F4F20E731E0FC01D4
:100C800031832083CE018D5A9F4FFC018081918159
:100C90000197F1F79E012D5A3F4FF901918380830F
:100CA000CE018F5A9F4F9E012F5A3F4FF90120814D
:100CB000318121503109FC0131832083CE018F5ACB
:100CC0009F4FFC01808191810097A1F62CC08E017D
:100CD0000F5A1F4FCE01835B9F4FFC0160817181D2
:100CE000828193810E94AD0EDC01CB01F8019183DA
:100CF0008083CE018B5A9F4F9E012F5A3F4FF9019F
:100D000020813181FC0131832083CE018B5A9F4F9A
:100D1000FC01808191810197F1F79E012B5A3F4F91
:100D2000F901918380838F81682F84E090E00E9495
:100D30003E029E01295A3F4F80E090E0AAE7B4E4CA
:100D4000F90180839183A283B3838E01055A1F4FDB
:100D5000CE01895A9F4F26E636E646E655E4FC0169
:100D600060817181828193810E948F0FDC01CB01B0
:100D7000F80180839183A283B383CE01855A9F4F6C
:100D800020E030E040E85FE3FC0160817181828116
:100D900093810E94410E88234CF4CE01815A9F4FCB
:100DA00021E030E0FC01318320836DC0CE01855A03
:100DB0009F4F20E03FEF4FE757E4FC0160817181D6
:100DC000828193810E948B0F18160CF04AC0CE01CD
:100DD000895A9F4F20E030E040E251E4FC016081FD
:100DE0007181828193810E948F0FDC01CB018E0182
:100DF000015A1F4FBC01CD010E94AD0EDC01CB0199
:100E0000F8019183808324C0CE018F599F4F20E742
:100E100031E0FC0131832083CE018F599F4FFC01CB
:100E2000808191810197F1F79E012F593F4FF90180
:100E300091838083CE01815A9F4F9E01215A3F4F5B
:100E4000F9012081318121503109FC013183208356
:100E5000CE01815A9F4FFC01808191810097A1F6BC
:100E60002CC08E01015A1F4FCE01855A9F4FFC01A5
:100E700060817181828193810E94AD0EDC01CB0182
:100E8000F80191838083CE018D599F4F9E01215A95
:100E90003F4FF90120813181FC0131832083CE0154
:100EA0008D599F4FFC01808191810197F1F79E013F
:100EB0002D593F4FF901918380838D85682F83E001
:100EC00090E00E943E029E012B593F4F80E090E847
:100ED000ABE3B5E4F90180839183A283B3838E01F0
:100EE00007591F4FCE018B599F4F26E636E646E63F
:100EF00055E4FC0160817181828193810E948F0F92
:100F0000DC01CB01F80180839183A283B383CE01FE
:100F100087599F4F20E030E040E85FE3FC016081AB
:100F20007181828193810E94410E88234CF4CE010D
:100F300083599F4F21E030E0FC01318320836DC055
:100F4000CE0187599F4F20E03FEF4FE757E4FC0168
:100F500060817181828193810E948B0F18160CF041
:100F60004AC0CE018B599F4F20E030E040E251E46F
:100F7000FC0160817181828193810E948F0FDC016D
:100F8000CB018E0103591F4FBC01CD010E94AD0E54
:100F9000DC01CB01F8019183808324C0CE0181590B
:100FA0009F4F20E731E0FC0131832083CE0181593E
:100FB0009F4FFC01808191810197F1F79E0121599A
:100FC0003F4FF90191838083CE0183599F4F9E014A
:100FD00023593F4FF9012081318121503109FC0112
:100FE00031832083CE0183599F4FFC018081918101
:100FF0000097A1F62CC08E0103591F4FCE018759CF
:101000009F4FFC0160817181828193810E94AD0EAE
:10101000DC01CB01F80191838083CE018F589F4F73
:101020009E0123593F4FF90120813181FC01318319
:101030002083CE018F589F4FFC01808191810197C1
:10104000F1F79E012F583F4FF901918380838F85DF
:10105000682F82E090E00E943E029E012D583F4F93
:1010600080E090E8ABE3B5E4F90180839183A2834B
:10107000B3838E0109581F4FCE018D589F4F26E62E
:1010800036E646E655E4FC016081718182819381F8
:101090000E948F0FDC01CB01F80180839183A28332
:1010A000B383CE0189589F4F20E030E040E85FE3F2
:1010B000FC0160817181828193810E94410E8823AD
:1010C0004CF4CE0185589F4F21E030E0FC01318384
:1010D00020836DC0CE0189589F4F20E03FEF4FE73E
:1010E00057E4FC0160817181828193810E948B0FA2
:1010F00018160CF04AC0CE018D589F4F20E030E00A
:1011000040E251E4FC0160817181828193810E94FF
:101110008F0FDC01CB018E0105581F4FBC01CD01A3
:101120000E94AD0EDC01CB01F8019183808324C0C5
:10113000CE0183589F4F20E731E0FC0131832083AB
:10114000CE0183589F4FFC01808191810197F1F777
:101150009E0123583F4FF90191838083CE0185582A
:101160009F4F9E0125583F4FF90120813181215029
:101170003109FC0131832083CE0185589F4FFC014A
:10118000808191810097A1F62CC08E0105581F4FD8
:10119000CE0189589F4FFC016081718182819381CA
:1011A0000E94AD0EDC01CB01F80191838083CE015A
:1011B00081589F4F9E0125583F4FF9012081318171
:1011C000FC0131832083CE0181589F4FFC01808137
:1011D00091810197F1F79E0121583F4FF9019183C9
:1011E00080838981682F81E090E00E943E029E0109
:1011F0002F573F4F80E090E0AAE7B4E4F9018083E5
:101200009183A283B3838E010B571F4FCE018F575B
:101210009F4F26E636E646E655E4FC016081718183
:10122000828193810E948F0FDC01CB01F8018083C2
:101230009183A283B383CE018B579F4F20E030E090
:1012400040E85FE3FC0160817181828193810E94AB
:10125000410E88234CF4CE0187579F4F21E030E0A8
:10126000FC01318320836DC0CE018B579F4F20E05E
:101270003FEF4FE757E4FC016081718182819381E8
:101280000E948B0F18160CF04AC0CE018F579F4F4B
:1012900020E030E040E251E4FC0160817181828114
:1012A00093810E948F0FDC01CB018E0107571F4FE6
:1012B000BC01CD010E94AD0EDC01CB01F801918390
:1012C000808324C0CE0185579F4F20E731E0FC0189
:1012D00031832083CE0185579F4FFC01808191810E
:1012E0000197F1F79E0125573F4FF90191838083C4
:1012F000CE0187579F4F9E0127573F4FF90120810D
:10130000318121503109FC0131832083CE0187577F
:101310009F4FFC01808191810097A1F62CC08E0126
:1013200007571F4FCE018B579F4FFC016081718182
:10133000828193810E94AD0EDC01CB01F801918383
:101340008083CE0183579F4F9E0127573F4FF9015E
:1013500020813181FC0131832083CE0183579F4F4F
:10136000FC01808191810197F1F79E0123573F4F46
:10137000F901918380838B81682F84E090E00E9443
:101380003E029E0121573F4F80E090E4ACE9B5E476
:10139000F90180839183A283B3838E010D561F4F81
:1013A000CE0181579F4F26E636E646E655E4FC011E
:1013B00060817181828193810E948F0FDC01CB015A
:1013C000F80180839183A283B383CE018D569F4F12
:1013D00020E030E040E85FE3FC01608171818281C0
:1013E00093810E94410E88234CF4CE0189569F4F71
:1013F00021E030E0FC01318320836DC0CE018D56A9
:101400009F4F20E03FEF4FE757E4FC01608171817F
:10141000828193810E948B0F18160CF04AC0CE0176
:1014200081579F4F20E030E040E251E4FC016081B1
:101430007181828193810E948F0FDC01CB018E012B
:1014400009561F4FBC01CD010E94AD0EDC01CB013E
:10145000F8019183808324C0CE0187569F4F20E7F7
:1014600031E0FC0131832083CE0187569F4FFC0180
:10147000808191810197F1F79E0127563F4FF90135
:1014800091838083CE0189569F4F9E0129563F4FFD
:10149000F9012081318121503109FC013183208300
:1014A000CE0189569F4FFC01808191810097A1F662
:1014B0002CC08E0109561F4FCE018D569F4FFC0147
:1014C00060817181828193810E94AD0EDC01CB012C
:1014D000F80191838083CE0185569F4F9E01295646
:1014E0003F4FF90120813181FC0131832083CE01FE
:1014F00085569F4FFC01808191810197F1F79E01F4
:1015000025563F4FF901918380838D81682F81E0BB
:1015100090E00E943E029E0123563F4F80E090E003
:10152000AAE7B4E4F90180839183A283B3838E0197
:101530000F551F4FCE0183569F4F26E636E646E6EF
:1015400055E4FC0160817181828193810E948F0F3B
:10155000DC01CB01F80180839183A283B383CE01A8
:101560008F559F4F20E030E040E85FE3FC01608151
:101570007181828193810E94410E88234CF4CE01B7
:101580008B559F4F21E030E0FC01318320836DC0FB
:10159000CE018F559F4F20E03FEF4FE757E4FC010E
:1015A00060817181828193810E948B0F18160CF0EB
:1015B0004AC0CE0183569F4F20E030E040E251E424
:1015C000FC0160817181828193810E948F0FDC0117
:1015D000CB018E010B551F4FBC01CD010E94AD0EFA
:1015E000DC01CB01F8019183808324C0CE018955B1
:1015F0009F4F20E731E0FC0131832083CE018955E4
:101600009F4FFC01808191810197F1F79E0129553F
:101610003F4FF90191838083CE018B559F4F9E01EF
:101620002B553F4FF9012081318121503109FC01B7
:1016300031832083CE018B559F4FFC0180819181A6
:101640000097A1F62CC08E010B551F4FCE018F5570
:101650009F4FFC0160817181828193810E94AD0E58
:10166000DC01CB01F80191838083CE0187559F4F28
:101670009E012B553F4FF90120813181FC013183BF
:101680002083CE0187559F4FFC0180819181019776
:10169000F1F79E0127553F4FF901918380838F8198
:1016A000682F84E090E00E943E029E0125553F4F46
:1016B00080E090E0AAE7B4E4F90180839183A283FB
:1016C000B3838E0101551F4FCE0185559F4F26E6EE
:1016D00036E646E655E4FC016081718182819381A2
:1016E0000E948F0FDC01CB01F80180839183A283DC
:1016F000B383CE0181559F4F20E030E040E85FE3A7
:10170000FC0160817181828193810E94410E882356
:101710004CF4CE018D549F4F21E030E0FC01318329
:1017200020836DC0CE0181559F4F20E03FEF4FE7F2
:1017300057E4FC0160817181828193810E948B0F4B
:1017400018160CF04AC0CE0185559F4F20E030E0BE
:1017500040E251E4FC0160817181828193810E94A9
:101760008F0FDC01CB018E010D541F4FBC01CD0149
:101770000E94AD0EDC01CB01F8019183808324C06F
:10178000CE018B549F4F20E731E0FC013183208351
:10179000CE018B549F4FFC01808191810197F1F71D
:1017A0009E012B543F4FF90191838083CE018D54CC
:1017B0009F4F9E012D543F4FF901208131812150CF
:1017C0003109FC0131832083CE018D549F4FFC01F0
:1017D000808191810097A1F62CC08E010D541F4F7E
:1017E000CE0181559F4FFC0160817181828193817F
:1017F0000E94AD0EDC01CB01F80191838083CE0104
:1018000089549F4F9E012D543F4FF9012081318112
:10181000FC0131832083CE0189549F4FFC018081DC
:1018200091810197F1F79E0129543F4FF90191836E
:1018300080838B85682F82E090E00E943E029E01AB
:1018400027543F4F80E090E0AAE7B4E4F901808399
:101850009183A283B3838E0103541F4FCE0187541B
:101860009F4F26E636E646E655E4FC01608171812D
:10187000828193810E948F0FDC01CB01F80180836C
:101880009183A283B383CE0183549F4F20E030E045
:1018900040E85FE3FC0160817181828193810E9455
:1018A000410E88234CF4CE018F539F4F21E030E04E
:1018B000FC01318320836DC0CE0183549F4F20E013
:1018C0003FEF4FE757E4FC01608171818281938192
:1018D0000E948B0F18160CF04AC0CE0187549F4F00
:1018E00020E030E040E251E4FC01608171818281BE
:1018F00093810E948F0FDC01CB018E010F531F4F8C
:10190000BC01CD010E94AD0EDC01CB01F801918339
:10191000808324C0CE018D539F4F20E731E0FC012E
:1019200031832083CE018D539F4FFC0180819181B3
:101930000197F1F79E012D533F4FF9019183808369
:10194000CE018F539F4F9E012F533F4FF9012081AE
:10195000318121503109FC0131832083CE018F5325
:101960009F4FFC01808191810097A1F62CC08E01D0
:101970000F531F4FCE0183549F4FFC016081718133
:10198000828193810E94AD0EDC01CB01F80191832D
:101990008083CE018B539F4F9E012F533F4FF90100
:1019A00020813181FC0131832083CE018B539F4FF5
:1019B000FC01808191810197F1F79E012B533F4FEC
:1019C000F901918380838985682F83E090E00E94EC
:1019D0003E029E0129533F4F80E090E4ACE9B5E41C
:1019E000F90180839183A283B3838E0105531F4F36
:1019F000CE0189539F4F26E636E646E655E4FC01C4
:101A000060817181828193810E948F0FDC01CB0103
:101A1000F80180839183A283B383CE0185539F4FC6
:101A200020E030E040E85FE3FC0160817181828169
:101A300093810E94410E88234CF4CE0181539F4F25
:101A400021E030E0FC01318320836EC0CE0185535C
:101A50009F4F20E03FEF4FE757E4FC016081718129
:101A6000828193810E948B0F18160CF04BC0CE011F
:101A700089539F4F20E030E040E251E4FC01608157
:101A80007181828193810E948F0FDC01CB018E01D5
:101A900001531F4FBC01CD010E94AD0EDC01CB01F3
:101AA000F8019183808324C0CE018F529F4F20E79D
:101AB00031E0FC0131832083CE018F529F4FFC0126
:101AC000808191810197F1F79E012F523F4FF901DB
:101AD00091838083CE0181539F4F9E0121533F4FBD
:101AE000F9012081318121503109FC0131832083AA
:101AF000CE0181539F4FFC01808191810097A1F617
:101B00000C94A6038E0101531F4FCE0185539F4FA6
:101B1000FC0160817181828193810E94AD0EDC01A4
:101B2000CB01F80191838083CE018D529F4F9E019E
:101B300021533F4FF90120813181FC013183208302
:101B4000CE018D529F4FFC01808191810197F1F769
:101B50009E012D523F4FF901918380830C94A6037F
:101B60003B9A439808950C94B00D86B1886088B96B
:101B7000089586B1877F88B90895CF93DF93EC01EC
:101B80000E94B50DCE010E94D10D0E94B90DCE016B
:101B9000DF91CF910C94D10DF8940E94B00D789400
:101BA0000895181619063CF4E6E6FEE03197F1F7C1
:101BB00000000197F6CF08955058BB27AA270ED0F2
:101BC00070C161D130F066D120F031F49F3F11F443
:101BD0001EF456C10EF4E095E7FB4CC1E92F72D11B
:101BE00080F3BA17620773078407950718F071F43A
:101BF0009EF58AC10EF4E0950B2EBA2FA02D0B0195
:101C0000B90190010C01CA01A0011124FF27591B41
:101C100099F0593F50F4503E68F11A16F040A22F47
:101C2000232F342F4427585FF3CF469537952795B8
:101C3000A795F0405395C9F77EF41F16BA0B620BB7
:101C4000730B840BBAF09150A1F0FF0FBB1F661FFE
:101C5000771F881FC2F70EC0BA0F621F731F841F41
:101C600048F4879577956795B795F7959E3F08F067
:101C7000B3CF9395880F08F09927EE0F9795879526
:101C80000895D4D008F481E008950CD00AC102D19F
:101C900040F0F9D030F021F45F3F19F0EBC0511162
:101CA00034C1EEC00FD198F39923C9F35523B1F392
:101CB000951B550BBB27AA2762177307840738F0BB
:101CC0009F5F5F4F220F331F441FAA1FA9F333D01A
:101CD0000E2E3AF0E0E830D091505040E695001CCE
:101CE000CAF729D0FE2F27D0660F771F881FBB1F8A
:101CF000261737074807AB07B0E809F0BB0B802D64
:101D0000BF01FF2793585F4F2AF09E3F510568F0AF
:101D1000B1C0FBC05F3FECF3983EDCF3869577954E
:101D20006795B795F7959F5FC9F7880F911D9695B1
:101D3000879597F90895E1E0660F771F881FBB1F0D
:101D4000621773078407BA0720F0621B730B840BBA
:101D5000BA0BEE1F88F7E0950895BCD088F09F5726
:101D600090F0B92F9927B751A0F0D1F0660F771FE7
:101D7000881F991F1AF0BA95C9F712C0B13081F0C7
:101D8000C3D0B1E00895C0C0672F782F8827B85F0F
:101D900039F0B93FCCF3869577956795B395D9F728
:101DA0003EF490958095709561957F4F8F4F9F4F32
:101DB0000895E89409C097FB3EF49095809570953E
:101DC00061957F4F8F4F9F4F9923A9F0F92F96E987
:101DD000BB279395F695879577956795B795F111FC
:101DE000F8CFFAF4BB0F11F460FF1BC06F5F7F4F99
:101DF0008F4F9F4F16C0882311F096E911C07723AB
:101E000021F09EE8872F762F05C0662371F096E8B3
:101E1000862F70E060E02AF09A95660F771F881F82
:101E2000DAF7880F9695879597F90895990F000826
:101E3000550FAA0BE0E8FEEF16161706E807F9079C
:101E4000C0F012161306E407F50798F0621B730B37
:101E5000840B950B39F40A2661F0232B242B252BB8
:101E600021F408950A2609F4A140A6958FEF811D5B
:101E7000811D089597F99F6780E870E060E00895FC
:101E80009FEF80EC089500240A9416161706180692
:101E90000906089500240A9412161306140605066E
:101EA0000895092E0394000C11F4882352F0BB0FFF
:101EB00040F4BF2B11F460FF04C06F5F7F4F8F4F62
:101EC0009F4F089557FD9058440F551F59F05F3F9D
:101ED00071F04795880F97FB991F61F09F3F79F04C
:101EE00087950895121613061406551FF2CF4695CE
:101EF000F1DF08C0161617061806991FF1CF869550
:101F00007105610508940895E894BB276627772733
:101F1000CB0197F908958ADF08F48FEF08950BD06D
:101F2000C0CFB1DF28F0B6DF18F0952309F0A2CFBB
:101F3000A7CF1124EACFC6DFA0F3959FD1F3950F69
:101F400050E0551F629FF001729FBB27F00DB11D3D
:101F5000639FAA27F00DB11DAA1F649F6627B00DCD
:101F6000A11D661F829F2227B00DA11D621F739FB6
:101F7000B00DA11D621F839FA00D611D221F749FC4
:101F80003327A00D611D231F849F600D211D822F0B
:101F9000762F6A2F11249F5750408AF0E1F0882352
:101FA0004AF0EE0FFF1FBB1F661F771F881F91505F
:101FB0005040A9F79E3F510570F05CCFA6CF5F3F20
:101FC000ECF3983EDCF3869577956795B795F79592
:101FD000E7959F5FC1F7FE2B880F911D969587951A
:081FE00097F90895F894FFCF72
:00000001FF
