:100000000C9472000C947E000C947E000C947E0084
:100010000C947E000C947E000C947E000C947E0068
:100020000C947E000C947E000C947E000C947E0058
:100030000C947E000C947E000C947E000C947E0048
:100040000C947E000C947E000C947E000C947E0038
:100050000C947E000C947E000C947E000C947E0028
:100060000C947E000C947E000C947E000C947E0018
:100070000C947E000C947E000C947E000C947E0008
:100080000C947E000C947E000C947E000C947E00F8
:100090000C947E000C947E000C947E000C947E00E8
:1000A0000C947E000C947E000C947E000C947E00D8
:1000B0000C947E000C947E000C947E000C947E00C8
:1000C0000C947E000C947E000C947E000C947E00B8
:1000D0000C947E000C947E000C947E000C947E00A8
:1000E0000C947E0011241FBECFEFD1E2DEBFCDBF46
:1000F00000E00CBF0E9462020C9429050C940000E1
:10010000CF93DF93CDB7DEB784E290E024E230E016
:10011000F90120812062FC01208385E290E025E244
:1001200030E0F90120812062FC012083DF91CF9132
:100130000895CF93DF93CDB7DEB784E290E024E259
:1001400030E0F90120812064FC01208385E290E009
:1001500025E230E0F90120812064FC012083DF9159
:10016000CF910895CF93DF93CDB7DEB784E290E0CF
:1001700024E230E0F90120812068FC01208385E23F
:1001800090E025E230E0F90120812068FC01208325
:10019000DF91CF910895CF93DF93CDB7DEB781E0A4
:1001A00091E021E031E0F90120812061FC01208310
:1001B00082E091E022E031E0F90120812061FC0140
:1001C0002083DF91CF910895CF93DF93CDB7DEB732
:1001D0000E9480000E9499000E94B2000E94CB0001
:1001E000DF91CF910895CF93DF93CDB7DEB781E84C
:1001F00090E0FC01108285E890E02CEFFC01208368
:1002000084E890E021E0FC01208389E890E023E08D
:10021000FC01208388E890E02FEFFC0120838BE82D
:1002200090E023E0FC0120838AE890E02FEFFC01BE
:1002300020838DE890E023E0FC0120838CE890E0AF
:100240002FEFFC01208387E890E023E0FC0120836E
:1002500086E890E02FEFFC01208380E890E02BEA15
:10026000FC01208382E890E0FC01108281E890E0AC
:100270002CE0FC01208381EA90E0FC01108285EAF9
:1002800090E02CEFFC01208384EA90E021E0FC0167
:1002900020838BEA90E023E0FC0120838AEA90E04F
:1002A0002FEFFC01208387EA90E023E0FC0120830C
:1002B00086EA90E02FEFFC01208380EA90E02BEAB1
:1002C000FC01208382EA90E0FC01108281EA90E048
:1002D0002CE0FC012083DF91CF910895CF93DF9331
:1002E000CDB7DEB7F8940E94E4000E94F300789442
:1002F000DF91CF910895CF93DF9300D01F921F928B
:10030000CDB7DEB78D8319821A821B821C828D8144
:10031000882F90E0A0E0B0E0BC01CD010E94100465
:10032000DC01CB012BE734E14EEE5FE3BC01CD01F4
:100330000E947C03DC01CB0120E030E04CE052E481
:10034000BC01CD010E941403DC01CB0189839A8397
:10035000AB83BC8369817A818B819C810E94E40399
:10036000DC01CB010F900F900F900F900F90DF9159
:10037000CF9108950F931F93CF93DF931F92CDB723
:10038000DEB7898389E890E0FC01108208E810E07C
:1003900089810E947B01F80180830F90DF91CF91CA
:1003A0001F910F9108950F931F93CF93DF931F9287
:1003B000CDB7DEB789838BE890E0FC0110820AE8B4
:1003C00010E089810E947B01F80180830F90DF910A
:1003D000CF911F910F9108950F931F93CF93DF93A8
:1003E0001F92CDB7DEB789838DE890E0FC011082C3
:1003F0000CE810E089810E947B01F80180830F9056
:10040000DF91CF911F910F9108950F931F93CF9379
:10041000DF931F92CDB7DEB789838BEA90E0FC01B2
:1004200010820AEA10E089810E947B01F801808332
:100430000F90DF91CF911F910F910895CF93DF938C
:10044000CDB7DEB789E890E023E0FC01208388E89F
:1004500090E02FEFFC012083DF91CF910895CF939F
:10046000DF93CDB7DEB78BE890E023E0FC0120837B
:100470008AE890E02FEFFC012083DF91CF9108956F
:10048000CF93DF93CDB7DEB78DE890E023E0FC019A
:1004900020838CE890E02FEFFC012083DF91CF9147
:1004A0000895CF93DF93CDB7DEB78BEA90E023E0DA
:1004B000FC0120838AEA90E02FEFFC012083DF918A
:1004C000CF910895CF93DF93CDB7DEB72E970FB6B8
:1004D000F894DEBF0FBECDBF0E946E018AE50E9478
:1004E000BA0180E090E0AAE7B4E489839A83AB8301
:1004F000BC8326E636E646E655E469817A818B813F
:100500009C810E94C604DC01CB018D839E83AF8356
:10051000B88720E030E040E85FE36D817E818F8125
:1005200098850E94780388232CF481E090E09A87D4
:1005300089873FC020E03FEF4FE757E46D817E8120
:100540008F8198850E94C20418164CF520E030E097
:1005500040E251E469817A818B819C810E94C604CA
:10056000DC01CB01BC01CD010E94E403DC01CB0125
:100570009A8789870FC080E791E09C878B878B855E
:100580009C850197F1F79C878B8789859A850197D0
:100590009A87898789859A85009769F714C06D8144
:1005A0007E818F8198850E94E403DC01CB019A87CC
:1005B000898789859A859E878D878D859E850197F8
:1005C000F1F79E878D8780E00E94BA01FFCF3B9AAA
:1005D000439808950C94E70286B1886088B908951D
:1005E00086B1877F88B90895181619063CF4E6E6A7
:1005F000FEE03197F1F700000197F6CF0895CF9311
:10060000DF93EC010E94EC02CE010E94F4020E94F2
:10061000F002CE01DF91CF910C94F402F8940E9485
:10062000E702789408955058BB27AA270ED070C1CE
:1006300061D130F066D120F031F49F3F11F41EF407
:1006400056C10EF4E095E7FB4CC1E92F72D180F35F
:10065000BA17620773078407950718F071F49EF5BF
:100660008AC10EF4E0950B2EBA2FA02D0B01B90113
:1006700090010C01CA01A0011124FF27591B99F018
:10068000593F50F4503E68F11A16F040A22F232F24
:10069000342F4427585FF3CF469537952795A79574
:1006A000F0405395C9F77EF41F16BA0B620B730B1B
:1006B000840BBAF09150A1F0FF0FBB1F661F771F8C
:1006C000881FC2F70EC0BA0F621F731F841F48F441
:1006D000879577956795B795F7959E3F08F0B3CFC7
:1006E0009395880F08F09927EE0F979587950895B1
:1006F000D4D008F481E008950CD00AC102D140F0B2
:10070000F9D030F021F45F3F19F0EBC0511134C142
:10071000EEC00FD198F39923C9F35523B1F3951B7C
:10072000550BBB27AA2762177307840738F09F5F12
:100730005F4F220F331F441FAA1FA9F333D00E2E81
:100740003AF0E0E830D091505040E695001CCAF7EE
:1007500029D0FE2F27D0660F771F881FBB1F2617B3
:1007600037074807AB07B0E809F0BB0B802DBF0186
:10077000FF2793585F4F2AF09E3F510568F0B1C0A4
:10078000FBC05F3FECF3983EDCF386957795679569
:10079000B795F7959F5FC9F7880F911D9695879537
:1007A00097F90895E1E0660F771F881FBB1F621756
:1007B00073078407BA0720F0621B730B840BBA0B14
:1007C000EE1F88F7E0950895BCD088F09F5790F011
:1007D000B92F9927B751A0F0D1F0660F771F881F66
:1007E000991F1AF0BA95C9F712C0B13081F0C3D081
:1007F000B1E00895C0C0672F782F8827B85F39F01F
:10080000B93FCCF3869577956795B395D9F73EF4C4
:1008100090958095709561957F4F8F4F9F4F08956C
:10082000E89409C097FB3EF490958095709561958A
:100830007F4F8F4F9F4F9923A9F0F92F96E9BB2740
:100840009395F695879577956795B795F111F8CFBC
:10085000FAF4BB0F11F460FF1BC06F5F7F4F8F4F27
:100860009F4F16C0882311F096E911C0772321F01D
:100870009EE8872F762F05C0662371F096E8862FB5
:1008800070E060E02AF09A95660F771F881FDAF70C
:10089000880F9695879597F90895990F0008550F39
:1008A000AA0BE0E8FEEF16161706E807F907C0F0F6
:1008B00012161306E407F50798F0621B730B840BFE
:1008C000950B39F40A2661F0232B242B252B21F4D8
:1008D00008950A2609F4A140A6958FEF811D811D78
:1008E000089597F99F6780E870E060E008959FEFB2
:1008F00080EC089500240A941616170618060906B7
:10090000089500240A941216130614060506089585
:10091000092E0394000C11F4882352F0BB0F40F40D
:10092000BF2B11F460FF04C06F5F7F4F8F4F9F4F4D
:10093000089557FD9058440F551F59F05F3F71F0CF
:100940004795880F97FB991F61F09F3F79F0879536
:100950000895121613061406551FF2CF4695F1DFBF
:1009600008C0161617061806991FF1CF869571054F
:10097000610508940895E894BB2766277727CB0183
:1009800097F908958ADF08F48FEF08950BD0C0CF50
:10099000B1DF28F0B6DF18F0952309F0A2CFA7CF7A
:1009A0001124EACFC6DFA0F3959FD1F3950F50E055
:1009B000551F629FF001729FBB27F00DB11D639F11
:1009C000AA27F00DB11DAA1F649F6627B00DA11DB7
:1009D000661F829F2227B00DA11D621F739FB00D5D
:1009E000A11D621F839FA00D611D221F749F3327CD
:1009F000A00D611D231F849F600D211D822F762F66
:100A00006A2F11249F5750408AF0E1F088234AF062
:100A1000EE0FFF1FBB1F661F771F881F91505040AE
:100A2000A9F79E3F510570F05CCFA6CF5F3FECF376
:100A3000983EDCF3869577956795B795F795E7959A
:100A40009F5FC1F7FE2B880F911D9695879597F9AB
:060A50000895F894FFCFA9
:00000001FF
