:100000000C9472000C9493000C9493000C94930045
:100010000C9493000C9404010C94DF000C94930056
:100020000C9493000C9493000C9493000C94930004
:100030000C9493000C9493000C9493000C949300F4
:100040000C9493000C9493000C9493000C949300E4
:100050000C9493000C9493000C9493000C949300D4
:100060000C9493000C9493000C9493000C949300C4
:100070000C9493000C9493000C9493000C949300B4
:100080000C9493000C9493000C9493000C949300A4
:100090000C9493000C9493000C9493000C94930094
:1000A0000C9493000C9493000C9493000C94930084
:1000B0000C9493000C9493000C9493000C94930074
:1000C0000C9493000C9493000C9493000C94930064
:1000D0000C9493000C9493000C9493000C94930054
:1000E0000C94930011241FBECFEFD1E2DEBFCDBF31
:1000F00000E00CBF12E0A0E0B2E0E8E4F1E100E0D3
:100100000BBF02C007900D92AC30B107D9F712E0D7
:10011000ACE0B2E001C01D92A232B107E1F70E944B
:10012000F4030C94A2080C94000081B18F6081B993
:1001300082B1807F82B9EAE0F1E0808188618083CA
:10014000EBE0F1E080818861808308956C98749A77
:1001500008956D98759A08950E9495000E94A600D2
:100160000C94A900F894EAE6F0E080818260808334
:10017000EC9A78940895F894EAE6F0E0808188603B
:100180008083ED9A78940895E1E2F1E010828FEF98
:100190008093250191E0909324011092290180938E
:1001A000280110922B0180932A0110922D01809337
:1001B0002C0189EA809320018BE0808308951F92AF
:1001C0000F920FB60F9211248F939F93AF93BF930B
:1001D00080910C0290910D02A0910E02B0910F023D
:1001E0000196A11DB11D80930C0290930D02A09366
:1001F0000E02B0930F02BF91AF919F918F910F901C
:100200000FBE0F901F9018951F920F920FB60F926E
:1002100011248F939F93AF93BF938091100290917D
:100220001102A0911202B09113020196A11DB11DFD
:100230008093100290931102A0931202B0931302C4
:10024000BF91AF919F918F910F900FBE0F901F9014
:10025000189592B1907F8F70892B82B90895809301
:10026000280160932A01089586E00C94290189E011
:100270000C94290185E00C9429018AE00C94290151
:1002800084E00C94290182E00C94290181E00C9413
:10029000290188E00C94290180E00C9429010F9336
:1002A0001F93BC0180E090E00E94260528E431EE17
:1002B00042E850E40E9492040E94FA04CB01A0E0BC
:1002C000B0E010920C0210920D0210920E021092E9
:1002D0000F0210921002109211021092120210924C
:1002E000130240910C0250910D0260910E02709128
:1002F0000F02009110021091110220911202309110
:100300001302081719072A073B0728F4481759074B
:100310006A077B0730F31F910F910C944C01CF9229
:10032000DF92EF92FF920F931F93BC0180E090E069
:100330000E94260525EE30ED4AEA50E40E94920420
:100340000E94FA0410920C0210920D0210920E02FA
:1003500010920F02109210021092110210921202CB
:100360001092130200910C0210910D0220910E02C6
:1003700030910F02C0901002D0901102E090120252
:10038000F09013026C157D058E059F0528F060170F
:1003900071078207930730F71F910F91FF90EF903D
:1003A000DF90CF900C944C01CF93DF931F921F925C
:1003B000CDB7DEB789839A830E94340189819A81FF
:1003C0000F900F90DF91CF910C948F01CF93DF931B
:1003D0001F921F92CDB7DEB789839A830E9437019F
:1003E00089819A810F900F90DF91CF910C948F01AA
:1003F000CF93DF931F921F92CDB7DEB789839A8385
:100400000E943A0189819A810F900F90DF91CF91DC
:100410000C944F01CF93DF931F921F92CDB7DEB79D
:1004200089839A830E943D0189819A810F900F9060
:10043000DF91CF910C944F01CF93DF93EC010E9499
:100440004001CE01880F991FDF91CF910C944F018D
:10045000CF93DF93EC010E944301CE01880F991FD7
:10046000DF91CF910C944F01CF93DF93EC010E9469
:100470004601CE01880F991FDF91CF910C944F0157
:10048000CF93DF93EC010E944901CE01880F991FA1
:10049000DF91CF910C944F01F8940E94AC000E9420
:1004A000B2000E94BB0078940895181619061CF437
:1004B0000E94F80105C09195819591090E940A0258
:1004C0000C944C0187B1876F87B988B1807888B95F
:1004D00008950C946202F8940E9462027894089540
:1004E00086E69EE00197F1F700004098419880E38E
:1004F00088B9429A8FEF97E40197F1F700C00000A6
:10050000429886E69EE00197F1F7000040984198F6
:1005100080E388B9429A8FEF97E40197F1F700C022
:100520000000429886E69EE00197F1F700004098AF
:10053000419880E388B9429A8FEF97E40197F1F7E9
:1005400000C00000429886E69EE00197F1F70000A7
:100550004098419880E288B9429A86E69EE00197E9
:10056000F1F700004298089598B19F7098B928B1AA
:10057000982F907F922B98B940984198429AEFEF2C
:10058000F7E43197F1F700C00000429898B19F70EE
:1005900098B998B18295807F892B88B94098419805
:1005A000429A8FEF97E40197F1F700C0000042985C
:1005B000089586E69EE00197F1F7000088E20E9428
:1005C000B40281E00E94B40286E00E94B4028EE090
:1005D0000E94B40280E80C94B40298B19F7098B95C
:1005E00028B1982F907F922B98B9409A4198429ABF
:1005F000EFEFF7E43197F1F700C0000042988295E1
:10060000807F98B19F7098B998B1892B88B9409A2A
:100610004198429A8FEF97E40197F1F700C00000EC
:100620004298089580E80C94B402EF92FF921F93D1
:10063000CF93DF931F92CDB7DEB7182F81E0998358
:100640000E94B402E12E9981F92EF70181917F0178
:10065000882319F00E94ED02F8CF0F90DF91CF911F
:100660001F91FF90EF900895CF93DF93CDB7DEB742
:1006700060970FB6F894DEBF0FBECDBFFE01769631
:10068000419151919F0160E170E0CE0101960E947D
:10069000C805CE0101960E94150360960FB6F89426
:1006A000DEBF0FBECDBFDF91CF910895982F862F6B
:1006B000923059F01CF4913031F00895933039F0B4
:1006C000943039F00895815805C0815403C08D5687
:1006D00001C08D520C94B4020F931F93CF93DF93FC
:1006E0008A01E901882311F0611103C00E941203FD
:1006F00002C00E945603C530D10579F4C80160E1FB
:1007000077E20E94B405605D7F4F7093170260939B
:100710001602862F0E94ED0203C0C430D10559F5A0
:10072000C80168EE73E00E94B405CB017093190212
:10073000609318026AE070E00E94B405C09690933E
:100740002102809320020E94ED02C80164E670E05D
:100750000E94B405CB0170931902609318026AE0FD
:1007600070E00E94B405C09690931D0280931C0215
:100770000E94ED0206C0C330D10539F3C230D10565
:1007800051F52AE030E0C801B9010E94B405CB015F
:100790007093190260931802B9010E94B405C096C3
:1007A00090931B0280931A020E94ED02C8016AE036
:1007B00070E00E94B405C09690931F0280931E02C1
:1007C0000E94ED0226975CF085E4DF91CF911F91A6
:1007D0000F910C94ED02C130D105A1F7E7CFDF9165
:1007E000CF911F910F9108950E944C020E94C40066
:1007F0000E946B020E9470020E94D90280E092E087
:100800009F938F930E9434030F900F9062ED8FEFB0
:100810000E942F010E9434018CE291E00E948F011E
:100820002FEF8FE796E1215080409040E1F700C024
:1008300000008AE090E00E94D4010E944C012FEF5A
:100840008FE796E1215080409040E1F700C0000022
:1008500084E690E00E94E6010E944C012FEF8FE7B2
:1008600096E1215080409040E1F700C000008AE509
:1008700090E00E94F8010E944C012FEF8FE796E173
:10088000215080409040E1F700C000008AE590E0F0
:100890000E940A020E944C012FEF8FE796E121503F
:1008A00080409040E1F700C000008AE590E00E949F
:1008B0001C020E944C012FEF8FE796E121508040EF
:1008C0009040E1F700C000008AE590E00E94280215
:1008D0000E944C012FEF8FE796E12150804090401D
:1008E000E1F700C000008AE590E00E9434020E9417
:1008F0004C012FEF8FE796E1215080409040E1F7C7
:1009000000C000008AE590E00E9440020E944C0175
:100910002FEF8FE796E1215080409040E1F700C033
:10092000000074CF0CD0E6C0DED040F0D5D030F05F
:1009300021F45F3F19F0C7C0511110C1CAC0EBD0FC
:1009400098F39923C9F35523B1F3951B550BBB2796
:10095000AA2762177307840738F09F5F5F4F220F43
:10096000331F441FAA1FA9F333D00E2E3AF0E0E83C
:1009700030D091505040E695001CCAF729D0FE2F88
:1009800027D0660F771F881FBB1F2617370748071A
:10099000AB07B0E809F0BB0B802DBF01FF279358D0
:1009A0005F4F2AF09E3F510568F08DC0D7C05F3F72
:1009B000ECF3983EDCF3869577956795B795F795B8
:1009C0009F5FC9F7880F911D9695879597F90895B0
:1009D000E1E0660F771F881FBB1F6217730784074C
:1009E000BA0720F0621B730B840BBA0BEE1F88F75B
:1009F000E095089598D088F09F5790F0B92F9927E7
:100A0000B751A0F0D1F0660F771F881F991F1AF019
:100A1000BA95C9F712C0B13081F09FD0B1E0089506
:100A20009CC0672F782F8827B85F39F0B93FCCF387
:100A3000869577956795B395D9F73EF4909580950F
:100A4000709561957F4F8F4F9F4F0895E89409C02F
:100A500097FB3EF490958095709561957F4F8F4FF1
:100A60009F4F9923A9F0F92F96E9BB279395F69507
:100A7000879577956795B795F111F8CFFAF4BB0F85
:100A800011F460FF1BC06F5F7F4F8F4F9F4F16C0E9
:100A9000882311F096E911C0772321F09EE8872F73
:100AA000762F05C0662371F096E8862F70E060E02F
:100AB0002AF09A95660F771F881FDAF7880F9695A8
:100AC000879597F9089597F99F6780E870E060E04F
:100AD00008959FEF80EC089500240A9416161706D7
:100AE00018060906089500240A941216130614061F
:100AF00005060895092E0394000C11F4882352F082
:100B0000BB0F40F4BF2B11F460FF04C06F5F7F4F39
:100B10008F4F9F4F089557FD9058440F551F59F020
:100B20005F3F71F04795880F97FB991F61F09F3FDA
:100B300079F087950895121613061406551FF2CF03
:100B40004695F1DF08C0161617061806991FF1CF53
:100B500086957105610508940895E894BB2766277A
:100B60007727CB0197F90895AA1BBB1B51E107C05A
:100B7000AA1FBB1FA617B70710F0A61BB70B881F2D
:100B8000991F5A95A9F780959095BC01CD010895BC
:100B90000F931F93CF93DF93CDB7DEB72E970FB68A
:100BA000F894DEBF0FBECDBF8C01CA0146E04C8376
:100BB0001A83098377FF02C060E070E86150710911
:100BC0007E836D83A901BC01CE0101960E940106BE
:100BD0004D815E8157FD0AC02F813885421753072A
:100BE0000CF49A01F801E20FF31F10822E960FB653
:100BF000F894DEBF0FBECDBFDF91CF911F910F9153
:100C000008952F923F924F925F926F927F928F92B0
:100C10009F92AF92BF92CF92DF92EF92FF920F938B
:100C20001F93CF93DF93CDB7DEB72C970FB6F89411
:100C3000DEBF0FBECDBF7C016B018A01FC011782B4
:100C40001682838181FFBDC1CE0101964C01F7015F
:100C50009381F60193FD859193FF81916F01882324
:100C600009F4ABC1853239F493FD859193FF8191ED
:100C70006F01853229F4B70190E00E941208E7CF96
:100C8000512C312C20E02032A0F48B3269F030F46A
:100C9000803259F0833269F420612CC08D3239F0F2
:100CA000803339F4216026C02260246023C028608C
:100CB00021C027FD27C030ED380F3A3078F426FFE9
:100CC00006C0FAE05F9E300D1124532E13C08AE057
:100CD000389E300D1124332E20620CC08E3221F448
:100CE00026FD6BC1206406C08C3611F4206802C05A
:100CF000883641F4F60193FD859193FF81916F0150
:100D00008111C1CF982F9F7D9554933028F40C5FAB
:100D10001F4FFFE3F9830DC0833631F0833771F045
:100D2000833509F05BC022C0F801808189830E5FA2
:100D30001F4F44244394512C540115C03801F2E054
:100D40006F0E711CF801A080B18026FF03C0652DD5
:100D500070E002C06FEF7FEFC5012C870E9407088B
:100D60002C0183012C852F77222E17C03801F2E049
:100D70006F0E711CF801A080B18026FF03C0652DA5
:100D800070E002C06FEF7FEFC5012C870E94FC0767
:100D90002C012C852068222E830123FC1BC0832D6F
:100DA00090E048165906B0F4B70180E290E00E9446
:100DB00012083A94F4CFF50127FC859127FE819122
:100DC0005F01B70190E00E94120831103A94F1E0FF
:100DD0004F1A51084114510471F7E5C0843611F0DF
:100DE000893639F5F80127FF07C06081718182815A
:100DF00093810C5F1F4F08C060817181882777FD48
:100E00008095982F0E5F1F4F2F76B22E97FF09C047
:100E100090958095709561957F4F8F4F9F4F20687B
:100E2000B22E2AE030E0A4010E944408A82EA8189F
:100E300044C0853729F42F7EB22E2AE030E025C049
:100E4000F22FF97FBF2E8F36C1F018F4883579F074
:100E5000B4C0803719F0883721F0AFC02F2F206140
:100E6000B22EB4FE0DC08B2D8460B82E09C024FFB5
:100E70000AC09F2F9660B92E06C028E030E005C05A
:100E800020E130E002C020E132E0F801B7FE07C007
:100E900060817181828193810C5F1F4F06C06081E8
:100EA000718180E090E00E5F1F4FA4010E94440812
:100EB000A82EA818FB2DFF77BF2EB6FE0BC02B2D3A
:100EC0002E7FA51450F4B4FE0AC0B2FC08C02B2D2E
:100ED0002E7E05C07A2C2B2D03C07A2C01C0752CD8
:100EE00024FF0DC0FE01EA0DF11D8081803311F455
:100EF000297E09C022FF06C07394739404C0822F18
:100F0000867809F0739423FD13C020FF06C05A2C85
:100F1000731418F4530C5718732C731468F4B70136
:100F200080E290E02C870E94120873942C85F5CF04
:100F3000731410F4371801C0312C24FF12C0B7010C
:100F400080E390E02C870E9412082C8522FF17C0B6
:100F500021FF03C088E590E002C088E790E0B70178
:100F60000CC0822F867859F021FD02C080E201C0BA
:100F70008BE227FD8DE2B70190E00E941208A514D4
:100F800038F4B70180E390E00E9412085A94F7CF3A
:100F9000AA94F401EA0DF11D8081B70190E00E944E
:100FA0001208A110F5CF332009F451CEB70180E229
:100FB00090E00E9412083A94F6CFF701868197815B
:100FC00002C08FEF9FEF2C960FB6F894DEBF0FBED6
:100FD000CDBFDF91CF911F910F91FF90EF90DF90E8
:100FE000CF90BF90AF909F908F907F906F905F90C9
:100FF0004F903F902F900895FC01059061507040F4
:101000000110D8F7809590958E0F9F1F0895FC01D1
:101010006150704001900110D8F7809590958E0F27
:101020009F1F08950F931F93CF93DF93182F092FBE
:10103000EB018B8181FD03C08FEF9FEF20C082FF0A
:1010400010C04E815F812C813D81421753077CF493
:10105000E881F9819F012F5F3F4F398328831083F7
:1010600006C0E885F985812F1995892B29F72E81EE
:101070003F812F5F3F4F3F832E83812F902FDF9142
:10108000CF911F910F910895FA01AA27283051F1AD
:10109000203181F1E8946F936E7F6E5F7F4F8F4FA9
:1010A0009F4FAF4FB1E03ED0B4E03CD0670F781F08
:1010B000891F9A1FA11D680F791F8A1F911DA11DED
:1010C0006A0F711D811D911DA11D20D009F4689426
:1010D0003F912AE0269F11243019305D3193DEF6CE
:1010E000CF010895462F4770405D4193B3E00FD084
:1010F000C9F7F6CF462F4F70405D4A3318F0495D6F
:1011000031FD4052419302D0A9F7EACFB4E0A69551
:101110009795879577956795BA95C9F70097610573
:10112000710508959B01AC010A2E069457954795C9
:1011300037952795BA95C9F7620F731F841F951FBE
:08114000A01D0895F894FFCFF3
:0C11480044414E474552205A4F4E45008E
:00000001FF
