:100000000C9472000C947E000C947E000C947E0084
:100010000C947E000C947E000C947E000C947E0068
:100020000C947E000C947E000C947E000C947E0058
:100030000C947E000C947E000C947E000C947E0048
:100040000C947E000C947E000C947E000C947E0038
:100050000C947E000C947E000C947E000C947E0028
:100060000C947E000C947E000C947E000C947E0018
:100070000C947E000C947E000C947E000C947E0008
:100080000C947E000C947E000C947E000C947E00F8
:100090000C947E000C947E000C947E000C947E00E8
:1000A0000C947E000C947E000C947E000C947E00D8
:1000B0000C947E000C947E000C947E000C947E00C8
:1000C0000C947E000C947E000C947E000C947E00B8
:1000D0000C947E000C947E000C947E000C947E00A8
:1000E0000C947E0011241FBECFEFD1E2DEBFCDBF46
:1000F00000E00CBF0E94A0000C94DF000C940000F4
:10010000EAE0F1E08081826C80830895EBE0F1E029
:100110008081826C80830895823721F480910B0165
:100120008F770BC0873621F480910B018F7B05C040
:10013000823629F480910B018D7F80930B01089505
:100140000E94800082E70E948C002FEF8FEF9CE2DC
:10015000215080409040E1F700C000000E948600DE
:100160008FEF9FE80197F1F700C0000087E60E943B
:100170008C009FEF2FEF8CE2915020408040E1F700
:1001800000C000000E9486008FEF9FE80197F1F702
:1001900000C0000082E60E948C009FEF2FEF8CE2EF
:1001A000915020408040E1F700C000000E9486008E
:1001B0008FEF9FE80197F1F700C00000C3CFF894DC
:0201C000FFCF6F
:00000001FF
