:100000000C9472000C948B000C948B000C948B005D
:100010000C948B000C948B000C948B000C948B0034
:100020000C948B000C948B000C948B000C948B0024
:100030000C948B000C948B000C948B000C948B0014
:100040000C948B000C948B000C948B000C948B0004
:100050000C948B000C948B000C948B000C948B00F4
:100060000C948B000C948B000C948B000C948B00E4
:100070000C948B000C948B000C948B000C948B00D4
:100080000C948B000C948B000C948B000C948B00C4
:100090000C948B000C948B000C948B000C948B00B4
:1000A0000C948B000C948B000C948B000C948B00A4
:1000B0000C948B000C948B000C948B000C948B0094
:1000C0000C948B000C948B000C948B000C948B0084
:1000D0000C948B000C948B000C948B000C948B0074
:1000E0000C948B0011241FBECFEFD1E2DEBFCDBF39
:1000F00000E00CBF12E0A0E0B2E0E8EAF1E000E0CE
:100100000BBF02C007900D92A231B107D9F70E9430
:10011000AA000C94D2000C9400008AB18E608AB9B7
:1001200008958BB1817F8BB90895CF93DF93825669
:10013000813130F4E82FF0E0E050FE4FC08102C082
:10014000C1EFD0E00E9491008BB18C238BB9DF917D
:10015000CF91089582E790E00E9495002FEF8FEFF6
:100160009CE2215080409040E1F700C0000087E60B
:1001700090E00E9495002FEF8FEF9CE2215080408D
:100180009040E1F700C0000082E690E00E949500F8
:100190002FEF8FEF9CE2215080409040E1F700C0AC
:0801A0000000D8CFF894FFCF56
:1001A800F7F1F1F1F1FBF1F1F1F1F1F1F1F1F1F127
:0201B800FD0048
:00000001FF
